{
  "_format": "hh-sol-artifact-1",
  "contractName": "Airdrop",
  "sourceName": "contracts/Airdrop.sol",
  "abi": [
    {
      "inputs": [
        {
          "internalType": "address",
          "name": "_token",
          "type": "address"
        },
        {
          "internalType": "bytes32",
          "name": "_merkleRoot",
          "type": "bytes32"
        },
        {
          "internalType": "uint256",
          "name": "_claimAmount",
          "type": "uint256"
        }
      ],
      "stateMutability": "nonpayable",
      "type": "constructor"
    },
    {
      "inputs": [
        {
          "internalType": "address",
          "name": "owner",
          "type": "address"
        }
      ],
      "name": "OwnableInvalidOwner",
      "type": "error"
    },
    {
      "inputs": [
        {
          "internalType": "address",
          "name": "account",
          "type": "address"
        }
      ],
      "name": "OwnableUnauthorizedAccount",
      "type": "error"
    },
    {
      "anonymous": false,
      "inputs": [
        {
          "indexed": true,
          "internalType": "address",
          "name": "account",
          "type": "address"
        },
        {
          "indexed": false,
          "internalType": "uint256",
          "name": "amount",
          "type": "uint256"
        }
      ],
      "name": "Claimed",
      "type": "event"
    },
    {
      "anonymous": false,
      "inputs": [
        {
          "indexed": true,
          "internalType": "address",
          "name": "previousOwner",
          "type": "address"
        },
        {
          "indexed": true,
          "internalType": "address",
          "name": "newOwner",
          "type": "address"
        }
      ],
      "name": "OwnershipTransferred",
      "type": "event"
    },
    {
      "inputs": [
        {
          "internalType": "bytes32[]",
          "name": "merkleProof",
          "type": "bytes32[]"
        }
      ],
      "name": "claim",
      "outputs": [],
      "stateMutability": "nonpayable",
      "type": "function"
    },
    {
      "inputs": [],
      "name": "claimAmount",
      "outputs": [
        {
          "internalType": "uint256",
          "name": "",
          "type": "uint256"
        }
      ],
      "stateMutability": "view",
      "type": "function"
    },
    {
      "inputs": [
        {
          "internalType": "address",
          "name": "account",
          "type": "address"
        }
      ],
      "name": "hasClaimed",
      "outputs": [
        {
          "internalType": "bool",
          "name": "",
          "type": "bool"
        }
      ],
      "stateMutability": "view",
      "type": "function"
    },
    {
      "inputs": [
        {
          "internalType": "address",
          "name": "account",
          "type": "address"
        },
        {
          "internalType": "bytes32[]",
          "name": "merkleProof",
          "type": "bytes32[]"
        }
      ],
      "name": "isEligible",
      "outputs": [
        {
          "internalType": "bool",
          "name": "",
          "type": "bool"
        }
      ],
      "stateMutability": "view",
      "type": "function"
    },
    {
      "inputs": [],
      "name": "merkleRoot",
      "outputs": [
        {
          "internalType": "bytes32",
          "name": "",
          "type": "bytes32"
        }
      ],
      "stateMutability": "view",
      "type": "function"
    },
    {
      "inputs": [],
      "name": "owner",
      "outputs": [
        {
          "internalType": "address",
          "name": "",
          "type": "address"
        }
      ],
      "stateMutability": "view",
      "type": "function"
    },
    {
      "inputs": [],
      "name": "renounceOwnership",
      "outputs": [],
      "stateMutability": "nonpayable",
      "type": "function"
    },
    {
      "inputs": [],
      "name": "token",
      "outputs": [
        {
          "internalType": "contract IERC20",
          "name": "",
          "type": "address"
        }
      ],
      "stateMutability": "view",
      "type": "function"
    },
    {
      "inputs": [
        {
          "internalType": "address",
          "name": "newOwner",
          "type": "address"
        }
      ],
      "name": "transferOwnership",
      "outputs": [],
      "stateMutability": "nonpayable",
      "type": "function"
    },
    {
      "inputs": [
        {
          "internalType": "uint256",
          "name": "_claimAmount",
          "type": "uint256"
        }
      ],
      "name": "updateClaimAmount",
      "outputs": [],
      "stateMutability": "nonpayable",
      "type": "function"
    },
    {
      "inputs": [
        {
          "internalType": "bytes32",
          "name": "_merkleRoot",
          "type": "bytes32"
        }
      ],
      "name": "updateMerkleRoot",
      "outputs": [],
      "stateMutability": "nonpayable",
      "type": "function"
    },
    {
      "inputs": [
        {
          "internalType": "address",
          "name": "account",
          "type": "address"
        },
        {
          "internalType": "bytes32[]",
          "name": "merkleProof",
          "type": "bytes32[]"
        }
      ],
      "name": "verify",
      "outputs": [
        {
          "internalType": "bool",
          "name": "",
          "type": "bool"
        }
      ],
      "stateMutability": "view",
      "type": "function"
    },
    {
      "inputs": [],
      "name": "withdrawUnclaimed",
      "outputs": [],
      "stateMutability": "nonpayable",
      "type": "function"
    }
  ],
  "bytecode": "0x608060405234801561001057600080fd5b506040516116493803806116498339818101604052810190610032919061029f565b33600073ffffffffffffffffffffffffffffffffffffffff168173ffffffffffffffffffffffffffffffffffffffff16036100a55760006040517f1e4fbdf700000000000000000000000000000000000000000000000000000000815260040161009c9190610301565b60405180910390fd5b6100b48161010c60201b60201c565b5082600160006101000a81548173ffffffffffffffffffffffffffffffffffffffff021916908373ffffffffffffffffffffffffffffffffffffffff160217905550816002819055508060038190555050505061031c565b60008060009054906101000a900473ffffffffffffffffffffffffffffffffffffffff169050816000806101000a81548173ffffffffffffffffffffffffffffffffffffffff021916908373ffffffffffffffffffffffffffffffffffffffff1602179055508173ffffffffffffffffffffffffffffffffffffffff168173ffffffffffffffffffffffffffffffffffffffff167f8be0079c531659141344cd1fd0a4f28419497f9722a3daafe3b4186f6b6457e060405160405180910390a35050565b600080fd5b600073ffffffffffffffffffffffffffffffffffffffff82169050919050565b6000610200826101d5565b9050919050565b610210816101f5565b811461021b57600080fd5b50565b60008151905061022d81610207565b92915050565b6000819050919050565b61024681610233565b811461025157600080fd5b50565b6000815190506102638161023d565b92915050565b6000819050919050565b61027c81610269565b811461028757600080fd5b50565b60008151905061029981610273565b92915050565b6000806000606084860312156102b8576102b76101d0565b5b60006102c68682870161021e565b93505060206102d786828701610254565b92505060406102e88682870161028a565b9150509250925092565b6102fb816101f5565b82525050565b600060208201905061031660008301846102f2565b92915050565b61131e8061032b6000396000f3fe608060405234801561001057600080fd5b50600436106100cf5760003560e01c80638da5cb5b1161008c578063c18b065e11610066578063c18b065e146101da578063dca8b0811461020a578063f2fde38b14610226578063fc0c546a14610242576100cf565b80638da5cb5b14610170578063b391c5081461018e578063b76a0df4146101aa576100cf565b80632eb4a7ab146100d457806333fc56d9146100f25780634783f0ef146100fc578063715018a61461011857806373b2e80e14610122578063830953ab14610152575b600080fd5b6100dc610260565b6040516100e99190610b51565b60405180910390f35b6100fa610266565b005b61011660048036038101906101119190610ba2565b6103f7565b005b61012061044e565b005b61013c60048036038101906101379190610c2d565b610462565b6040516101499190610c75565b60405180910390f35b61015a6104b8565b6040516101679190610ca9565b60405180910390f35b6101786104be565b6040516101859190610cd3565b60405180910390f35b6101a860048036038101906101a39190610d53565b6104e7565b005b6101c460048036038101906101bf9190610da0565b61074b565b6040516101d19190610c75565b60405180910390f35b6101f460048036038101906101ef9190610da0565b6107cf565b6040516102019190610c75565b60405180910390f35b610224600480360381019061021f9190610e2c565b61083b565b005b610240600480360381019061023b9190610c2d565b610890565b005b61024a610916565b6040516102579190610eb8565b60405180910390f35b60025481565b61026e61093c565b6000600160009054906101000a900473ffffffffffffffffffffffffffffffffffffffff1673ffffffffffffffffffffffffffffffffffffffff166370a08231306040518263ffffffff1660e01b81526004016102cb9190610cd3565b602060405180830381865afa1580156102e8573d6000803e3d6000fd5b505050506040513d601f19601f8201168201806040525081019061030c9190610ee8565b9050600160009054906101000a900473ffffffffffffffffffffffffffffffffffffffff1673ffffffffffffffffffffffffffffffffffffffff1663a9059cbb6103546104be565b836040518363ffffffff1660e01b8152600401610372929190610f15565b6020604051808303816000875af1158015610391573d6000803e3d6000fd5b505050506040513d601f19601f820116820180604052508101906103b59190610f6a565b6103f4576040517f08c379a00000000000000000000000000000000000000000000000000000000081526004016103eb90610ff4565b60405180910390fd5b50565b6103ff61093c565b6000801b8103610444576040517f08c379a000000000000000000000000000000000000000000000000000000000815260040161043b90611060565b60405180910390fd5b8060028190555050565b61045661093c565b61046060006109c3565b565b6000600460008373ffffffffffffffffffffffffffffffffffffffff1673ffffffffffffffffffffffffffffffffffffffff16815260200190815260200160002060009054906101000a900460ff169050919050565b60035481565b60008060009054906101000a900473ffffffffffffffffffffffffffffffffffffffff16905090565b600460003373ffffffffffffffffffffffffffffffffffffffff1673ffffffffffffffffffffffffffffffffffffffff16815260200190815260200160002060009054906101000a900460ff1615610574576040517f08c379a000000000000000000000000000000000000000000000000000000000815260040161056b906110cc565b60405180910390fd5b61057f33838361074b565b6105be576040517f08c379a00000000000000000000000000000000000000000000000000000000081526004016105b590611138565b60405180910390fd5b6001600460003373ffffffffffffffffffffffffffffffffffffffff1673ffffffffffffffffffffffffffffffffffffffff16815260200190815260200160002060006101000a81548160ff021916908315150217905550600160009054906101000a900473ffffffffffffffffffffffffffffffffffffffff1673ffffffffffffffffffffffffffffffffffffffff1663a9059cbb336003546040518363ffffffff1660e01b8152600401610675929190610f15565b6020604051808303816000875af1158015610694573d6000803e3d6000fd5b505050506040513d601f19601f820116820180604052508101906106b89190610f6a565b6106f7576040517f08c379a00000000000000000000000000000000000000000000000000000000081526004016106ee906111a4565b60405180910390fd5b3373ffffffffffffffffffffffffffffffffffffffff167fd8138f8a3f377c5259ca548e70e4c2de94f129f5a11036a15b69513cba2b426a60035460405161073f9190610ca9565b60405180910390a25050565b6000808460405160200161075f919061120c565b6040516020818303038152906040528051906020012090506107c5848480806020026020016040519081016040528093929190818152602001838360200280828437600081840152601f19601f8201169050808301925050505050505060025483610a87565b9150509392505050565b6000600460008573ffffffffffffffffffffffffffffffffffffffff1673ffffffffffffffffffffffffffffffffffffffff16815260200190815260200160002060009054906101000a900460ff16158015610832575061083184848461074b565b5b90509392505050565b61084361093c565b60008111610886576040517f08c379a000000000000000000000000000000000000000000000000000000000815260040161087d90611299565b60405180910390fd5b8060038190555050565b61089861093c565b600073ffffffffffffffffffffffffffffffffffffffff168173ffffffffffffffffffffffffffffffffffffffff160361090a5760006040517f1e4fbdf70000000000000000000000000000000000000000000000000000000081526004016109019190610cd3565b60405180910390fd5b610913816109c3565b50565b600160009054906101000a900473ffffffffffffffffffffffffffffffffffffffff1681565b610944610a9e565b73ffffffffffffffffffffffffffffffffffffffff166109626104be565b73ffffffffffffffffffffffffffffffffffffffff16146109c157610985610a9e565b6040517f118cdaa70000000000000000000000000000000000000000000000000000000081526004016109b89190610cd3565b60405180910390fd5b565b60008060009054906101000a900473ffffffffffffffffffffffffffffffffffffffff169050816000806101000a81548173ffffffffffffffffffffffffffffffffffffffff021916908373ffffffffffffffffffffffffffffffffffffffff1602179055508173ffffffffffffffffffffffffffffffffffffffff168173ffffffffffffffffffffffffffffffffffffffff167f8be0079c531659141344cd1fd0a4f28419497f9722a3daafe3b4186f6b6457e060405160405180910390a35050565b600082610a948584610aa6565b1490509392505050565b600033905090565b60008082905060005b8451811015610aeb57610adc82868381518110610acf57610ace6112b9565b5b6020026020010151610af6565b91508080600101915050610aaf565b508091505092915050565b6000818310610b0e57610b098284610b21565b610b19565b610b188383610b21565b5b905092915050565b600082600052816020526040600020905092915050565b6000819050919050565b610b4b81610b38565b82525050565b6000602082019050610b666000830184610b42565b92915050565b600080fd5b600080fd5b610b7f81610b38565b8114610b8a57600080fd5b50565b600081359050610b9c81610b76565b92915050565b600060208284031215610bb857610bb7610b6c565b5b6000610bc684828501610b8d565b91505092915050565b600073ffffffffffffffffffffffffffffffffffffffff82169050919050565b6000610bfa82610bcf565b9050919050565b610c0a81610bef565b8114610c1557600080fd5b50565b600081359050610c2781610c01565b92915050565b600060208284031215610c4357610c42610b6c565b5b6000610c5184828501610c18565b91505092915050565b60008115159050919050565b610c6f81610c5a565b82525050565b6000602082019050610c8a6000830184610c66565b92915050565b6000819050919050565b610ca381610c90565b82525050565b6000602082019050610cbe6000830184610c9a565b92915050565b610ccd81610bef565b82525050565b6000602082019050610ce86000830184610cc4565b92915050565b600080fd5b600080fd5b600080fd5b60008083601f840112610d1357610d12610cee565b5b8235905067ffffffffffffffff811115610d3057610d2f610cf3565b5b602083019150836020820283011115610d4c57610d4b610cf8565b5b9250929050565b60008060208385031215610d6a57610d69610b6c565b5b600083013567ffffffffffffffff811115610d8857610d87610b71565b5b610d9485828601610cfd565b92509250509250929050565b600080600060408486031215610db957610db8610b6c565b5b6000610dc786828701610c18565b935050602084013567ffffffffffffffff811115610de857610de7610b71565b5b610df486828701610cfd565b92509250509250925092565b610e0981610c90565b8114610e1457600080fd5b50565b600081359050610e2681610e00565b92915050565b600060208284031215610e4257610e41610b6c565b5b6000610e5084828501610e17565b91505092915050565b6000819050919050565b6000610e7e610e79610e7484610bcf565b610e59565b610bcf565b9050919050565b6000610e9082610e63565b9050919050565b6000610ea282610e85565b9050919050565b610eb281610e97565b82525050565b6000602082019050610ecd6000830184610ea9565b92915050565b600081519050610ee281610e00565b92915050565b600060208284031215610efe57610efd610b6c565b5b6000610f0c84828501610ed3565b91505092915050565b6000604082019050610f2a6000830185610cc4565b610f376020830184610c9a565b9392505050565b610f4781610c5a565b8114610f5257600080fd5b50565b600081519050610f6481610f3e565b92915050565b600060208284031215610f8057610f7f610b6c565b5b6000610f8e84828501610f55565b91505092915050565b600082825260208201905092915050565b7f41697264726f70207769746864726177616c206661696c656400000000000000600082015250565b6000610fde601983610f97565b9150610fe982610fa8565b602082019050919050565b6000602082019050818103600083015261100d81610fd1565b9050919050565b7f4d65726b6c6520726f6f742063616e6e6f74206265207a65726f000000000000600082015250565b600061104a601a83610f97565b915061105582611014565b602082019050919050565b600060208201905081810360008301526110798161103d565b9050919050565b7f41697264726f7020616c726561647920636c61696d6564000000000000000000600082015250565b60006110b6601783610f97565b91506110c182611080565b602082019050919050565b600060208201905081810360008301526110e5816110a9565b9050919050565b7f496e76616c69642070726f6f6600000000000000000000000000000000000000600082015250565b6000611122600d83610f97565b915061112d826110ec565b602082019050919050565b6000602082019050818103600083015261115181611115565b9050919050565b7f5472616e73666572206661696c65640000000000000000000000000000000000600082015250565b600061118e600f83610f97565b915061119982611158565b602082019050919050565b600060208201905081810360008301526111bd81611181565b9050919050565b60008160601b9050919050565b60006111dc826111c4565b9050919050565b60006111ee826111d1565b9050919050565b61120661120182610bef565b6111e3565b82525050565b600061121882846111f5565b60148201915081905092915050565b7f436c61696d20616d6f756e74206d75737420626520677265617465722074686160008201527f6e207a65726f0000000000000000000000000000000000000000000000000000602082015250565b6000611283602683610f97565b915061128e82611227565b604082019050919050565b600060208201905081810360008301526112b281611276565b9050919050565b7f4e487b7100000000000000000000000000000000000000000000000000000000600052603260045260246000fdfea26469706673582212204585280edb5ce6c433316ce3ccdc3228e970299865e0040268a5eb2f380811f764736f6c634300081c0033",
  "linkReferences": {},
  "deployedLinkReferences": {}
}