{
  "_format": "hh-sol-artifact-1",
  "contractName": "AreaCalculator",
  "sourceName": "contracts/AreaCalculator.sol",
  "abi": [
    {
      "inputs": [
        {
          "internalType": "uint256",
          "name": "length",
          "type": "uint256"
        },
        {
          "internalType": "uint256",
          "name": "breadth",
          "type": "uint256"
        }
      ],
      "name": "areaOfARectangle",
      "outputs": [
        {
          "internalType": "uint256",
          "name": "_areaOfRectangle",
          "type": "uint256"
        }
      ],
      "stateMutability": "pure",
      "type": "function"
    },
    {
      "inputs": [
        {
          "internalType": "uint256",
          "name": "length",
          "type": "uint256"
        }
      ],
      "name": "areaOfASquare",
      "outputs": [
        {
          "internalType": "uint256",
          "name": "_areaOfSquare",
          "type": "uint256"
        }
      ],
      "stateMutability": "pure",
      "type": "function"
    },
    {
      "inputs": [
        {
          "internalType": "uint256",
          "name": "base",
          "type": "uint256"
        },
        {
          "internalType": "uint256",
          "name": "height",
          "type": "uint256"
        }
      ],
      "name": "areaOfATriangle",
      "outputs": [
        {
          "internalType": "uint256",
          "name": "_areaOfTriangle",
          "type": "uint256"
        }
      ],
      "stateMutability": "pure",
      "type": "function"
    }
  ],
  "bytecode": "0x6080604052348015600f57600080fd5b506104888061001f6000396000f3fe608060405234801561001057600080fd5b50600436106100415760003560e01c80630693a02b146100465780637fab3fc814610076578063d885ba45146100a6575b600080fd5b610060600480360381019061005b919061015f565b6100d6565b60405161006d91906101ae565b60405180910390f35b610090600480360381019061008b91906101c9565b6100ec565b60405161009d91906101ae565b60405180910390f35b6100c060048036038101906100bb919061015f565b610102565b6040516100cd91906101ae565b60405180910390f35b600081836100e49190610225565b905092915050565b60006002826100fb91906103a7565b9050919050565b6000600282846101129190610225565b61011c9190610421565b905092915050565b600080fd5b6000819050919050565b61013c81610129565b811461014757600080fd5b50565b60008135905061015981610133565b92915050565b6000806040838503121561017657610175610124565b5b60006101848582860161014a565b92505060206101958582860161014a565b9150509250929050565b6101a881610129565b82525050565b60006020820190506101c3600083018461019f565b92915050565b6000602082840312156101df576101de610124565b5b60006101ed8482850161014a565b91505092915050565b7f4e487b7100000000000000000000000000000000000000000000000000000000600052601160045260246000fd5b600061023082610129565b915061023b83610129565b925082820261024981610129565b915082820484148315176102605761025f6101f6565b5b5092915050565b60008160011c9050919050565b6000808291508390505b60018511156102be5780860481111561029a576102996101f6565b5b60018516156102a95780820291505b80810290506102b785610267565b945061027e565b94509492505050565b6000826102d75760019050610393565b816102e55760009050610393565b81600181146102fb576002811461030557610334565b6001915050610393565b60ff841115610317576103166101f6565b5b8360020a91508482111561032e5761032d6101f6565b5b50610393565b5060208310610133831016604e8410600b84101617156103695782820a905083811115610364576103636101f6565b5b610393565b6103768484846001610274565b9250905081840481111561038d5761038c6101f6565b5b81810290505b9392505050565b600060ff82169050919050565b60006103b282610129565b91506103bd8361039a565b92506103ea7fffffffffffffffffffffffffffffffffffffffffffffffffffffffffffffffff84846102c7565b905092915050565b7f4e487b7100000000000000000000000000000000000000000000000000000000600052601260045260246000fd5b600061042c82610129565b915061043783610129565b925082610447576104466103f2565b5b82820490509291505056fea26469706673582212209c221dde33b6b843c9841c535e95e5a0b6ecf523fb8d33606f1e4e278f3c5cac64736f6c634300081c0033",
  "linkReferences": {},
  "deployedLinkReferences": {}
}