{
  "_format": "hh-sol-artifact-1",
  "contractName": "VotingContract",
  "sourceName": "contracts/VotingContract.sol",
  "abi": [
    {
      "inputs": [
        {
          "internalType": "address[]",
          "name": "_admins",
          "type": "address[]"
        },
        {
          "internalType": "uint256",
          "name": "_electionDuration",
          "type": "uint256"
        }
      ],
      "stateMutability": "nonpayable",
      "type": "constructor"
    },
    {
      "inputs": [
        {
          "internalType": "address",
          "name": "_newAdmin",
          "type": "address"
        }
      ],
      "name": "addAdmin",
      "outputs": [],
      "stateMutability": "nonpayable",
      "type": "function"
    },
    {
      "inputs": [
        {
          "internalType": "uint256",
          "name": "",
          "type": "uint256"
        }
      ],
      "name": "admins",
      "outputs": [
        {
          "internalType": "address",
          "name": "",
          "type": "address"
        }
      ],
      "stateMutability": "view",
      "type": "function"
    },
    {
      "inputs": [
        {
          "internalType": "uint256",
          "name": "",
          "type": "uint256"
        }
      ],
      "name": "contestantList",
      "outputs": [
        {
          "internalType": "address",
          "name": "",
          "type": "address"
        }
      ],
      "stateMutability": "view",
      "type": "function"
    },
    {
      "inputs": [
        {
          "internalType": "address",
          "name": "",
          "type": "address"
        }
      ],
      "name": "contestants",
      "outputs": [
        {
          "internalType": "string",
          "name": "name",
          "type": "string"
        },
        {
          "internalType": "uint256",
          "name": "age",
          "type": "uint256"
        },
        {
          "internalType": "string",
          "name": "party",
          "type": "string"
        },
        {
          "internalType": "string",
          "name": "manifesto",
          "type": "string"
        },
        {
          "internalType": "uint256",
          "name": "voteCount",
          "type": "uint256"
        },
        {
          "internalType": "bool",
          "name": "isRegistered",
          "type": "bool"
        }
      ],
      "stateMutability": "view",
      "type": "function"
    },
    {
      "inputs": [],
      "name": "electionActive",
      "outputs": [
        {
          "internalType": "bool",
          "name": "",
          "type": "bool"
        }
      ],
      "stateMutability": "view",
      "type": "function"
    },
    {
      "inputs": [],
      "name": "electionEndTime",
      "outputs": [
        {
          "internalType": "uint256",
          "name": "",
          "type": "uint256"
        }
      ],
      "stateMutability": "view",
      "type": "function"
    },
    {
      "inputs": [],
      "name": "endElection",
      "outputs": [],
      "stateMutability": "nonpayable",
      "type": "function"
    },
    {
      "inputs": [],
      "name": "getTotalVotes",
      "outputs": [
        {
          "internalType": "uint256",
          "name": "",
          "type": "uint256"
        }
      ],
      "stateMutability": "view",
      "type": "function"
    },
    {
      "inputs": [
        {
          "internalType": "address",
          "name": "_contestant",
          "type": "address"
        }
      ],
      "name": "getVoteCount",
      "outputs": [
        {
          "internalType": "uint256",
          "name": "",
          "type": "uint256"
        }
      ],
      "stateMutability": "view",
      "type": "function"
    },
    {
      "inputs": [],
      "name": "presidentElect",
      "outputs": [
        {
          "internalType": "address",
          "name": "",
          "type": "address"
        }
      ],
      "stateMutability": "view",
      "type": "function"
    },
    {
      "inputs": [
        {
          "internalType": "address",
          "name": "_contestant",
          "type": "address"
        },
        {
          "internalType": "string",
          "name": "_name",
          "type": "string"
        },
        {
          "internalType": "uint256",
          "name": "_age",
          "type": "uint256"
        },
        {
          "internalType": "string",
          "name": "_party",
          "type": "string"
        },
        {
          "internalType": "string",
          "name": "_manifesto",
          "type": "string"
        }
      ],
      "name": "registerContestant",
      "outputs": [],
      "stateMutability": "nonpayable",
      "type": "function"
    },
    {
      "inputs": [
        {
          "internalType": "address",
          "name": "_voter",
          "type": "address"
        },
        {
          "internalType": "string",
          "name": "_name",
          "type": "string"
        },
        {
          "internalType": "uint256",
          "name": "_age",
          "type": "uint256"
        },
        {
          "internalType": "string",
          "name": "_NIN",
          "type": "string"
        },
        {
          "internalType": "string",
          "name": "_nationality",
          "type": "string"
        }
      ],
      "name": "registerVoter",
      "outputs": [],
      "stateMutability": "nonpayable",
      "type": "function"
    },
    {
      "inputs": [],
      "name": "startElection",
      "outputs": [],
      "stateMutability": "nonpayable",
      "type": "function"
    },
    {
      "inputs": [],
      "name": "totalVotes",
      "outputs": [
        {
          "internalType": "uint256",
          "name": "",
          "type": "uint256"
        }
      ],
      "stateMutability": "view",
      "type": "function"
    },
    {
      "inputs": [
        {
          "internalType": "address",
          "name": "_contestant",
          "type": "address"
        }
      ],
      "name": "vote",
      "outputs": [],
      "stateMutability": "nonpayable",
      "type": "function"
    },
    {
      "inputs": [
        {
          "internalType": "address",
          "name": "",
          "type": "address"
        }
      ],
      "name": "voters",
      "outputs": [
        {
          "internalType": "string",
          "name": "name",
          "type": "string"
        },
        {
          "internalType": "uint256",
          "name": "age",
          "type": "uint256"
        },
        {
          "internalType": "string",
          "name": "NIN",
          "type": "string"
        },
        {
          "internalType": "string",
          "name": "nationality",
          "type": "string"
        },
        {
          "internalType": "bool",
          "name": "hasVoted",
          "type": "bool"
        },
        {
          "internalType": "bool",
          "name": "isRegistered",
          "type": "bool"
        }
      ],
      "stateMutability": "view",
      "type": "function"
    }
  ],
  "bytecode": "0x608060405234801561001057600080fd5b50604051612c72380380612c7283398181016040528101906100329190610469565b6000825111801561004557506005825111155b610084576040517f08c379a000000000000000000000000000000000000000000000000000000000815260040161007b90610522565b60405180910390fd5b60005b8251811015610183576100b98382815181106100a6576100a5610542565b5b60200260200101516101c060201b60201c565b156100f9576040517f08c379a00000000000000000000000000000000000000000000000000000000081526004016100f0906105bd565b60405180910390fd5b600083828151811061010e5761010d610542565b5b60200260200101519080600181540180825580915050600190039060005260206000200160009091909190916101000a81548173ffffffffffffffffffffffffffffffffffffffff021916908373ffffffffffffffffffffffffffffffffffffffff1602179055508080600101915050610087565b508042610190919061060c565b6005819055506000600460006101000a81548160ff02191690831515021790555060006007819055505050610640565b600080600090505b60008054905081101561025d578273ffffffffffffffffffffffffffffffffffffffff1660008281548110610200576101ff610542565b5b9060005260206000200160009054906101000a900473ffffffffffffffffffffffffffffffffffffffff1673ffffffffffffffffffffffffffffffffffffffff1603610250576001915050610263565b80806001019150506101c8565b50600090505b919050565b6000604051905090565b600080fd5b600080fd5b600080fd5b6000601f19601f8301169050919050565b7f4e487b7100000000000000000000000000000000000000000000000000000000600052604160045260246000fd5b6102ca82610281565b810181811067ffffffffffffffff821117156102e9576102e8610292565b5b80604052505050565b60006102fc610268565b905061030882826102c1565b919050565b600067ffffffffffffffff82111561032857610327610292565b5b602082029050602081019050919050565b600080fd5b600073ffffffffffffffffffffffffffffffffffffffff82169050919050565b60006103698261033e565b9050919050565b6103798161035e565b811461038457600080fd5b50565b60008151905061039681610370565b92915050565b60006103af6103aa8461030d565b6102f2565b905080838252602082019050602084028301858111156103d2576103d1610339565b5b835b818110156103fb57806103e78882610387565b8452602084019350506020810190506103d4565b5050509392505050565b600082601f83011261041a5761041961027c565b5b815161042a84826020860161039c565b91505092915050565b6000819050919050565b61044681610433565b811461045157600080fd5b50565b6000815190506104638161043d565b92915050565b600080604083850312156104805761047f610272565b5b600083015167ffffffffffffffff81111561049e5761049d610277565b5b6104aa85828601610405565b92505060206104bb85828601610454565b9150509250929050565b600082825260208201905092915050565b7f41646d696e73206d757374206265206265747765656e203120616e6420350000600082015250565b600061050c601e836104c5565b9150610517826104d6565b602082019050919050565b6000602082019050818103600083015261053b816104ff565b9050919050565b7f4e487b7100000000000000000000000000000000000000000000000000000000600052603260045260246000fd5b7f4475706c69636174652061646d696e206e6f7420616c6c6f7765640000000000600082015250565b60006105a7601b836104c5565b91506105b282610571565b602082019050919050565b600060208201905081810360008301526105d68161059a565b9050919050565b7f4e487b7100000000000000000000000000000000000000000000000000000000600052601160045260246000fd5b600061061782610433565b915061062283610433565b925082820190508082111561063a576106396105dd565b5b92915050565b6126238061064f6000396000f3fe608060405234801561001057600080fd5b50600436106101005760003560e01c80637ed628bb11610097578063ad7a13e711610066578063ad7a13e714610281578063e31b7fbd146102b1578063e652f4cc146102cd578063e9494ce2146102fd57610100565b80637ed628bb146101f25780639a0e7d66146102105780639e136e641461022e578063a3ec138d1461024c57610100565b80636470a639116100d35780636470a639146101675780636dd7d8ea1461019c57806370480275146101b8578063715c879f146101d457610100565b80630d15fd771461010557806314bfd6d01461012357806359f784681461015357806362d73eb81461015d575b600080fd5b61010d610319565b60405161011a9190611590565b60405180910390f35b61013d600480360381019061013891906115eb565b61031f565b60405161014a9190611659565b60405180910390f35b61015b61035e565b005b6101656105c4565b005b610181600480360381019061017c91906116a0565b610679565b60405161019396959493929190611778565b60405180910390f35b6101b660048036038101906101b191906116a0565b61085a565b005b6101d260048036038101906101cd91906116a0565b610b68565b005b6101dc610ca7565b6040516101e99190611659565b60405180910390f35b6101fa610ccd565b60405161020791906117ee565b60405180910390f35b610218610ce0565b6040516102259190611590565b60405180910390f35b610236610cea565b6040516102439190611590565b60405180910390f35b610266600480360381019061026191906116a0565b610cf0565b60405161027896959493929190611809565b60405180910390f35b61029b600480360381019061029691906115eb565b610ede565b6040516102a89190611659565b60405180910390f35b6102cb60048036038101906102c691906119b4565b610f1d565b005b6102e760048036038101906102e291906116a0565b611144565b6040516102f49190611590565b60405180910390f35b610317600480360381019061031291906119b4565b61121f565b005b60075481565b6000818154811061032f57600080fd5b906000526020600020016000915054906101000a900473ffffffffffffffffffffffffffffffffffffffff1681565b6005544210156103a3576040517f08c379a000000000000000000000000000000000000000000000000000000000815260040161039a90611acf565b60405180910390fd5b600460009054906101000a900460ff166103f2576040517f08c379a00000000000000000000000000000000000000000000000000000000081526004016103e990611b3b565b60405180910390fd5b6000600460006101000a81548160ff0219169083151502179055506000806000905060005b60038054905081101561057e5781600260006003848154811061043d5761043c611b5b565b5b9060005260206000200160009054906101000a900473ffffffffffffffffffffffffffffffffffffffff1673ffffffffffffffffffffffffffffffffffffffff1673ffffffffffffffffffffffffffffffffffffffff1681526020019081526020016000206004015411156105715760026000600383815481106104c4576104c3611b5b565b5b9060005260206000200160009054906101000a900473ffffffffffffffffffffffffffffffffffffffff1673ffffffffffffffffffffffffffffffffffffffff1673ffffffffffffffffffffffffffffffffffffffff1681526020019081526020016000206004015491506003818154811061054357610542611b5b565b5b9060005260206000200160009054906101000a900473ffffffffffffffffffffffffffffffffffffffff1692505b8080600101915050610417565b5081600660006101000a81548173ffffffffffffffffffffffffffffffffffffffff021916908373ffffffffffffffffffffffffffffffffffffffff1602179055505050565b6105cd336114cf565b61060c576040517f08c379a000000000000000000000000000000000000000000000000000000000815260040161060390611bfc565b60405180910390fd5b600460009054906101000a900460ff161561065c576040517f08c379a000000000000000000000000000000000000000000000000000000000815260040161065390611c68565b60405180910390fd5b6001600460006101000a81548160ff021916908315150217905550565b600260205280600052604060002060009150905080600001805461069c90611cb7565b80601f01602080910402602001604051908101604052809291908181526020018280546106c890611cb7565b80156107155780601f106106ea57610100808354040283529160200191610715565b820191906000526020600020905b8154815290600101906020018083116106f857829003601f168201915b50505050509080600101549080600201805461073090611cb7565b80601f016020809104026020016040519081016040528092919081815260200182805461075c90611cb7565b80156107a95780601f1061077e576101008083540402835291602001916107a9565b820191906000526020600020905b81548152906001019060200180831161078c57829003601f168201915b5050505050908060030180546107be90611cb7565b80601f01602080910402602001604051908101604052809291908181526020018280546107ea90611cb7565b80156108375780601f1061080c57610100808354040283529160200191610837565b820191906000526020600020905b81548152906001019060200180831161081a57829003601f168201915b5050505050908060040154908060050160009054906101000a900460ff16905086565b600460009054906101000a900460ff166108a9576040517f08c379a00000000000000000000000000000000000000000000000000000000081526004016108a090611d34565b60405180910390fd5b60055442106108ed576040517f08c379a00000000000000000000000000000000000000000000000000000000081526004016108e490611da0565b60405180910390fd5b600160003373ffffffffffffffffffffffffffffffffffffffff1673ffffffffffffffffffffffffffffffffffffffff16815260200190815260200160002060040160019054906101000a900460ff1661097c576040517f08c379a000000000000000000000000000000000000000000000000000000000815260040161097390611e0c565b60405180910390fd5b600160003373ffffffffffffffffffffffffffffffffffffffff1673ffffffffffffffffffffffffffffffffffffffff16815260200190815260200160002060040160009054906101000a900460ff1615610a0c576040517f08c379a0000000000000000000000000000000000000000000000000000000008152600401610a0390611e78565b60405180910390fd5b600260008273ffffffffffffffffffffffffffffffffffffffff1673ffffffffffffffffffffffffffffffffffffffff16815260200190815260200160002060050160009054906101000a900460ff16610a9b576040517f08c379a0000000000000000000000000000000000000000000000000000000008152600401610a9290611ee4565b60405180910390fd5b60018060003373ffffffffffffffffffffffffffffffffffffffff1673ffffffffffffffffffffffffffffffffffffffff16815260200190815260200160002060040160006101000a81548160ff021916908315150217905550600260008273ffffffffffffffffffffffffffffffffffffffff1673ffffffffffffffffffffffffffffffffffffffff1681526020019081526020016000206004016000815480929190610b4890611f33565b919050555060076000815480929190610b6090611f33565b919050555050565b610b71336114cf565b610bb0576040517f08c379a0000000000000000000000000000000000000000000000000000000008152600401610ba790611bfc565b60405180910390fd5b600560008054905010610bf8576040517f08c379a0000000000000000000000000000000000000000000000000000000008152600401610bef90611fc7565b60405180910390fd5b610c01816114cf565b15610c41576040517f08c379a0000000000000000000000000000000000000000000000000000000008152600401610c3890612033565b60405180910390fd5b6000819080600181540180825580915050600190039060005260206000200160009091909190916101000a81548173ffffffffffffffffffffffffffffffffffffffff021916908373ffffffffffffffffffffffffffffffffffffffff16021790555050565b600660009054906101000a900473ffffffffffffffffffffffffffffffffffffffff1681565b600460009054906101000a900460ff1681565b6000600754905090565b60055481565b6001602052806000526040600020600091509050806000018054610d1390611cb7565b80601f0160208091040260200160405190810160405280929190818152602001828054610d3f90611cb7565b8015610d8c5780601f10610d6157610100808354040283529160200191610d8c565b820191906000526020600020905b815481529060010190602001808311610d6f57829003601f168201915b505050505090806001015490806002018054610da790611cb7565b80601f0160208091040260200160405190810160405280929190818152602001828054610dd390611cb7565b8015610e205780601f10610df557610100808354040283529160200191610e20565b820191906000526020600020905b815481529060010190602001808311610e0357829003601f168201915b505050505090806003018054610e3590611cb7565b80601f0160208091040260200160405190810160405280929190818152602001828054610e6190611cb7565b8015610eae5780601f10610e8357610100808354040283529160200191610eae565b820191906000526020600020905b815481529060010190602001808311610e9157829003601f168201915b5050505050908060040160009054906101000a900460ff16908060040160019054906101000a900460ff16905086565b60038181548110610eee57600080fd5b906000526020600020016000915054906101000a900473ffffffffffffffffffffffffffffffffffffffff1681565b600260008673ffffffffffffffffffffffffffffffffffffffff1673ffffffffffffffffffffffffffffffffffffffff16815260200190815260200160002060050160009054906101000a900460ff1615610fad576040517f08c379a0000000000000000000000000000000000000000000000000000000008152600401610fa49061209f565b60405180910390fd5b6023831015610ff1576040517f08c379a0000000000000000000000000000000000000000000000000000000008152600401610fe890612131565b60405180910390fd5b6040518060c001604052808581526020018481526020018381526020018281526020016000815260200160011515815250600260008773ffffffffffffffffffffffffffffffffffffffff1673ffffffffffffffffffffffffffffffffffffffff168152602001908152602001600020600082015181600001908161107691906122fd565b5060208201518160010155604082015181600201908161109691906122fd565b5060608201518160030190816110ac91906122fd565b506080820151816004015560a08201518160050160006101000a81548160ff0219169083151502179055509050506003859080600181540180825580915050600190039060005260206000200160009091909190916101000a81548173ffffffffffffffffffffffffffffffffffffffff021916908373ffffffffffffffffffffffffffffffffffffffff1602179055505050505050565b6000600260008373ffffffffffffffffffffffffffffffffffffffff1673ffffffffffffffffffffffffffffffffffffffff16815260200190815260200160002060050160009054906101000a900460ff166111d5576040517f08c379a00000000000000000000000000000000000000000000000000000000081526004016111cc90611ee4565b60405180910390fd5b600260008373ffffffffffffffffffffffffffffffffffffffff1673ffffffffffffffffffffffffffffffffffffffff168152602001908152602001600020600401549050919050565b611228336114cf565b611267576040517f08c379a000000000000000000000000000000000000000000000000000000000815260040161125e90611bfc565b60405180910390fd5b600160008673ffffffffffffffffffffffffffffffffffffffff1673ffffffffffffffffffffffffffffffffffffffff16815260200190815260200160002060040160019054906101000a900460ff16156112f7576040517f08c379a00000000000000000000000000000000000000000000000000000000081526004016112ee9061241b565b60405180910390fd5b601283101561133b576040517f08c379a0000000000000000000000000000000000000000000000000000000008152600401611332906124ad565b60405180910390fd5b60405160200161134a90612524565b6040516020818303038152906040528051906020012081604051602001611371919061256a565b60405160208183030381529060405280519060200120146113c7576040517f08c379a00000000000000000000000000000000000000000000000000000000081526004016113be906125cd565b60405180910390fd5b6040518060c0016040528085815260200184815260200183815260200182815260200160001515815260200160011515815250600160008773ffffffffffffffffffffffffffffffffffffffff1673ffffffffffffffffffffffffffffffffffffffff168152602001908152602001600020600082015181600001908161144e91906122fd565b5060208201518160010155604082015181600201908161146e91906122fd565b50606082015181600301908161148491906122fd565b5060808201518160040160006101000a81548160ff02191690831515021790555060a08201518160040160016101000a81548160ff0219169083151502179055509050505050505050565b600080600090505b60008054905081101561156c578273ffffffffffffffffffffffffffffffffffffffff166000828154811061150f5761150e611b5b565b5b9060005260206000200160009054906101000a900473ffffffffffffffffffffffffffffffffffffffff1673ffffffffffffffffffffffffffffffffffffffff160361155f576001915050611572565b80806001019150506114d7565b50600090505b919050565b6000819050919050565b61158a81611577565b82525050565b60006020820190506115a56000830184611581565b92915050565b6000604051905090565b600080fd5b600080fd5b6115c881611577565b81146115d357600080fd5b50565b6000813590506115e5816115bf565b92915050565b600060208284031215611601576116006115b5565b5b600061160f848285016115d6565b91505092915050565b600073ffffffffffffffffffffffffffffffffffffffff82169050919050565b600061164382611618565b9050919050565b61165381611638565b82525050565b600060208201905061166e600083018461164a565b92915050565b61167d81611638565b811461168857600080fd5b50565b60008135905061169a81611674565b92915050565b6000602082840312156116b6576116b56115b5565b5b60006116c48482850161168b565b91505092915050565b600081519050919050565b600082825260208201905092915050565b60005b838110156117075780820151818401526020810190506116ec565b60008484015250505050565b6000601f19601f8301169050919050565b600061172f826116cd565b61173981856116d8565b93506117498185602086016116e9565b61175281611713565b840191505092915050565b60008115159050919050565b6117728161175d565b82525050565b600060c08201905081810360008301526117928189611724565b90506117a16020830188611581565b81810360408301526117b38187611724565b905081810360608301526117c78186611724565b90506117d66080830185611581565b6117e360a0830184611769565b979650505050505050565b60006020820190506118036000830184611769565b92915050565b600060c08201905081810360008301526118238189611724565b90506118326020830188611581565b81810360408301526118448187611724565b905081810360608301526118588186611724565b90506118676080830185611769565b61187460a0830184611769565b979650505050505050565b600080fd5b600080fd5b7f4e487b7100000000000000000000000000000000000000000000000000000000600052604160045260246000fd5b6118c182611713565b810181811067ffffffffffffffff821117156118e0576118df611889565b5b80604052505050565b60006118f36115ab565b90506118ff82826118b8565b919050565b600067ffffffffffffffff82111561191f5761191e611889565b5b61192882611713565b9050602081019050919050565b82818337600083830152505050565b600061195761195284611904565b6118e9565b90508281526020810184848401111561197357611972611884565b5b61197e848285611935565b509392505050565b600082601f83011261199b5761199a61187f565b5b81356119ab848260208601611944565b91505092915050565b600080600080600060a086880312156119d0576119cf6115b5565b5b60006119de8882890161168b565b955050602086013567ffffffffffffffff8111156119ff576119fe6115ba565b5b611a0b88828901611986565b9450506040611a1c888289016115d6565b935050606086013567ffffffffffffffff811115611a3d57611a3c6115ba565b5b611a4988828901611986565b925050608086013567ffffffffffffffff811115611a6a57611a696115ba565b5b611a7688828901611986565b9150509295509295909350565b7f456c656374696f6e206973207374696c6c206f6e676f696e6700000000000000600082015250565b6000611ab96019836116d8565b9150611ac482611a83565b602082019050919050565b60006020820190508181036000830152611ae881611aac565b9050919050565b7f456c656374696f6e20616c726561647920656e64656400000000000000000000600082015250565b6000611b256016836116d8565b9150611b3082611aef565b602082019050919050565b60006020820190508181036000830152611b5481611b18565b9050919050565b7f4e487b7100000000000000000000000000000000000000000000000000000000600052603260045260246000fd5b7f4f6e6c7920616e2061646d696e2063616e20706572666f726d2074686973206160008201527f6374696f6e000000000000000000000000000000000000000000000000000000602082015250565b6000611be66025836116d8565b9150611bf182611b8a565b604082019050919050565b60006020820190508181036000830152611c1581611bd9565b9050919050565b7f456c656374696f6e20616c726561647920737461727465640000000000000000600082015250565b6000611c526018836116d8565b9150611c5d82611c1c565b602082019050919050565b60006020820190508181036000830152611c8181611c45565b9050919050565b7f4e487b7100000000000000000000000000000000000000000000000000000000600052602260045260246000fd5b60006002820490506001821680611ccf57607f821691505b602082108103611ce257611ce1611c88565b5b50919050565b7f456c656374696f6e206973206e6f742061637469766500000000000000000000600082015250565b6000611d1e6016836116d8565b9150611d2982611ce8565b602082019050919050565b60006020820190508181036000830152611d4d81611d11565b9050919050565b7f456c656374696f6e2068617320656e6465640000000000000000000000000000600082015250565b6000611d8a6012836116d8565b9150611d9582611d54565b602082019050919050565b60006020820190508181036000830152611db981611d7d565b9050919050565b7f596f7520617265206e6f742061207265676973746572656420766f7465720000600082015250565b6000611df6601e836116d8565b9150611e0182611dc0565b602082019050919050565b60006020820190508181036000830152611e2581611de9565b9050919050565b7f596f75206861766520616c726561647920766f74656400000000000000000000600082015250565b6000611e626016836116d8565b9150611e6d82611e2c565b602082019050919050565b60006020820190508181036000830152611e9181611e55565b9050919050565b7f496e76616c696420636f6e74657374616e740000000000000000000000000000600082015250565b6000611ece6012836116d8565b9150611ed982611e98565b602082019050919050565b60006020820190508181036000830152611efd81611ec1565b9050919050565b7f4e487b7100000000000000000000000000000000000000000000000000000000600052601160045260246000fd5b6000611f3e82611577565b91507fffffffffffffffffffffffffffffffffffffffffffffffffffffffffffffffff8203611f7057611f6f611f04565b5b600182019050919050565b7f43616e6e6f742068617665206d6f7265207468616e20352061646d696e730000600082015250565b6000611fb1601e836116d8565b9150611fbc82611f7b565b602082019050919050565b60006020820190508181036000830152611fe081611fa4565b9050919050565b7f41646d696e20616c726561647920657869737473000000000000000000000000600082015250565b600061201d6014836116d8565b915061202882611fe7565b602082019050919050565b6000602082019050818103600083015261204c81612010565b9050919050565b7f436f6e74657374616e7420616c72656164792072656769737465726564000000600082015250565b6000612089601d836116d8565b915061209482612053565b602082019050919050565b600060208201905081810360008301526120b88161207c565b9050919050565b7f436f6e74657374616e74206d757374206265206174206c65617374203335207960008201527f65617273206f6c64000000000000000000000000000000000000000000000000602082015250565b600061211b6028836116d8565b9150612126826120bf565b604082019050919050565b6000602082019050818103600083015261214a8161210e565b9050919050565b60008190508160005260206000209050919050565b60006020601f8301049050919050565b600082821b905092915050565b6000600883026121b37fffffffffffffffffffffffffffffffffffffffffffffffffffffffffffffffff82612176565b6121bd8683612176565b95508019841693508086168417925050509392505050565b6000819050919050565b60006121fa6121f56121f084611577565b6121d5565b611577565b9050919050565b6000819050919050565b612214836121df565b61222861222082612201565b848454612183565b825550505050565b600090565b61223d612230565b61224881848461220b565b505050565b5b8181101561226c57612261600082612235565b60018101905061224e565b5050565b601f8211156122b15761228281612151565b61228b84612166565b8101602085101561229a578190505b6122ae6122a685612166565b83018261224d565b50505b505050565b600082821c905092915050565b60006122d4600019846008026122b6565b1980831691505092915050565b60006122ed83836122c3565b9150826002028217905092915050565b612306826116cd565b67ffffffffffffffff81111561231f5761231e611889565b5b6123298254611cb7565b612334828285612270565b600060209050601f8311600181146123675760008415612355578287015190505b61235f85826122e1565b8655506123c7565b601f19841661237586612151565b60005b8281101561239d57848901518255600182019150602085019450602081019050612378565b868310156123ba57848901516123b6601f8916826122c3565b8355505b6001600288020188555050505b505050505050565b7f566f74657220697320616c726561647920726567697374657265640000000000600082015250565b6000612405601b836116d8565b9150612410826123cf565b602082019050919050565b60006020820190508181036000830152612434816123f8565b9050919050565b7f566f746572206d757374206265206174206c656173742031382079656172732060008201527f6f6c640000000000000000000000000000000000000000000000000000000000602082015250565b60006124976023836116d8565b91506124a28261243b565b604082019050919050565b600060208201905081810360008301526124c68161248a565b9050919050565b600081905092915050565b7f4e6967657269616e000000000000000000000000000000000000000000000000600082015250565b600061250e6008836124cd565b9150612519826124d8565b600882019050919050565b600061252f82612501565b9150819050919050565b6000612544826116cd565b61254e81856124cd565b935061255e8185602086016116e9565b80840191505092915050565b60006125768284612539565b915081905092915050565b7f4f6e6c79204e6967657269616e732063616e20766f7465000000000000000000600082015250565b60006125b76017836116d8565b91506125c282612581565b602082019050919050565b600060208201905081810360008301526125e6816125aa565b905091905056fea2646970667358221220dcc34b1a0da67de6b251d4b8761909e56f53cbecea81983cb5ab53943b247bfc64736f6c634300081c0033",
  "linkReferences": {},
  "deployedLinkReferences": {}
}