{
  "contracts/SolomonAreaCalculator.sol": {
    "SolomonAreaCalculator": {
      "abi": [
        {
          "inputs": [
            {
              "internalType": "int16",
              "name": "length",
              "type": "int16"
            },
            {
              "internalType": "int16",
              "name": "breadth",
              "type": "int16"
            }
          ],
          "name": "rectangle",
          "outputs": [
            {
              "internalType": "int16",
              "name": "",
              "type": "int16"
            }
          ],
          "stateMutability": "pure",
          "type": "function"
        },
        {
          "inputs": [
            {
              "internalType": "int16",
              "name": "side",
              "type": "int16"
            }
          ],
          "name": "square",
          "outputs": [
            {
              "internalType": "int16",
              "name": "",
              "type": "int16"
            }
          ],
          "stateMutability": "pure",
          "type": "function"
        },
        {
          "inputs": [
            {
              "internalType": "int16",
              "name": "base",
              "type": "int16"
            },
            {
              "internalType": "int16",
              "name": "height",
              "type": "int16"
            }
          ],
          "name": "triangle",
          "outputs": [
            {
              "internalType": "int16",
              "name": "",
              "type": "int16"
            }
          ],
          "stateMutability": "pure",
          "type": "function"
        }
      ],
      "evm": {
        "bytecode": {
          "linkReferences": {},
          "object": "6080604052348015600f57600080fd5b506103338061001f6000396000f3fe608060405234801561001057600080fd5b50600436106100415760003560e01c806306689f1c14610046578063364281a314610076578063ed92eb5d146100a6575b600080fd5b610060600480360381019061005b9190610161565b6100d6565b60405161006d91906101b0565b60405180910390f35b610090600480360381019061008b9190610161565b6100ec565b60405161009d91906101b0565b60405180910390f35b6100c060048036038101906100bb91906101cb565b61010e565b6040516100cd91906101b0565b60405180910390f35b600081836100e49190610227565b905092915050565b6000600282846100fc9190610227565b6101069190610293565b905092915050565b6000818261011c9190610227565b9050919050565b600080fd5b60008160010b9050919050565b61013e81610128565b811461014957600080fd5b50565b60008135905061015b81610135565b92915050565b6000806040838503121561017857610177610123565b5b60006101868582860161014c565b92505060206101978582860161014c565b9150509250929050565b6101aa81610128565b82525050565b60006020820190506101c560008301846101a1565b92915050565b6000602082840312156101e1576101e0610123565b5b60006101ef8482850161014c565b91505092915050565b7f4e487b7100000000000000000000000000000000000000000000000000000000600052601160045260246000fd5b600061023282610128565b915061023d83610128565b925082820261024b81610128565b915080821461025d5761025c6101f8565b5b5092915050565b7f4e487b7100000000000000000000000000000000000000000000000000000000600052601260045260246000fd5b600061029e82610128565b91506102a983610128565b9250826102b9576102b8610264565b5b600160000383147fffffffffffffffffffffffffffffffffffffffffffffffffffffffffffff8000831416156102f2576102f16101f8565b5b82820590509291505056fea2646970667358221220acb2453b4b478827d8eaabacbb58c9b4b7b780b1e9371afd4c57b6671fa51c3264736f6c634300081c0033",
          "opcodes": "PUSH1 0x80 PUSH1 0x40 MSTORE CALLVALUE DUP1 ISZERO PUSH1 0xF JUMPI PUSH1 0x0 DUP1 REVERT JUMPDEST POP PUSH2 0x333 DUP1 PUSH2 0x1F PUSH1 0x0 CODECOPY PUSH1 0x0 RETURN INVALID PUSH1 0x80 PUSH1 0x40 MSTORE CALLVALUE DUP1 ISZERO PUSH2 0x10 JUMPI PUSH1 0x0 DUP1 REVERT JUMPDEST POP PUSH1 0x4 CALLDATASIZE LT PUSH2 0x41 JUMPI PUSH1 0x0 CALLDATALOAD PUSH1 0xE0 SHR DUP1 PUSH4 0x6689F1C EQ PUSH2 0x46 JUMPI DUP1 PUSH4 0x364281A3 EQ PUSH2 0x76 JUMPI DUP1 PUSH4 0xED92EB5D EQ PUSH2 0xA6 JUMPI JUMPDEST PUSH1 0x0 DUP1 REVERT JUMPDEST PUSH2 0x60 PUSH1 0x4 DUP1 CALLDATASIZE SUB DUP2 ADD SWAP1 PUSH2 0x5B SWAP2 SWAP1 PUSH2 0x161 JUMP JUMPDEST PUSH2 0xD6 JUMP JUMPDEST PUSH1 0x40 MLOAD PUSH2 0x6D SWAP2 SWAP1 PUSH2 0x1B0 JUMP JUMPDEST PUSH1 0x40 MLOAD DUP1 SWAP2 SUB SWAP1 RETURN JUMPDEST PUSH2 0x90 PUSH1 0x4 DUP1 CALLDATASIZE SUB DUP2 ADD SWAP1 PUSH2 0x8B SWAP2 SWAP1 PUSH2 0x161 JUMP JUMPDEST PUSH2 0xEC JUMP JUMPDEST PUSH1 0x40 MLOAD PUSH2 0x9D SWAP2 SWAP1 PUSH2 0x1B0 JUMP JUMPDEST PUSH1 0x40 MLOAD DUP1 SWAP2 SUB SWAP1 RETURN JUMPDEST PUSH2 0xC0 PUSH1 0x4 DUP1 CALLDATASIZE SUB DUP2 ADD SWAP1 PUSH2 0xBB SWAP2 SWAP1 PUSH2 0x1CB JUMP JUMPDEST PUSH2 0x10E JUMP JUMPDEST PUSH1 0x40 MLOAD PUSH2 0xCD SWAP2 SWAP1 PUSH2 0x1B0 JUMP JUMPDEST PUSH1 0x40 MLOAD DUP1 SWAP2 SUB SWAP1 RETURN JUMPDEST PUSH1 0x0 DUP2 DUP4 PUSH2 0xE4 SWAP2 SWAP1 PUSH2 0x227 JUMP JUMPDEST SWAP1 POP SWAP3 SWAP2 POP POP JUMP JUMPDEST PUSH1 0x0 PUSH1 0x2 DUP3 DUP5 PUSH2 0xFC SWAP2 SWAP1 PUSH2 0x227 JUMP JUMPDEST PUSH2 0x106 SWAP2 SWAP1 PUSH2 0x293 JUMP JUMPDEST SWAP1 POP SWAP3 SWAP2 POP POP JUMP JUMPDEST PUSH1 0x0 DUP2 DUP3 PUSH2 0x11C SWAP2 SWAP1 PUSH2 0x227 JUMP JUMPDEST SWAP1 POP SWAP2 SWAP1 POP JUMP JUMPDEST PUSH1 0x0 DUP1 REVERT JUMPDEST PUSH1 0x0 DUP2 PUSH1 0x1 SIGNEXTEND SWAP1 POP SWAP2 SWAP1 POP JUMP JUMPDEST PUSH2 0x13E DUP2 PUSH2 0x128 JUMP JUMPDEST DUP2 EQ PUSH2 0x149 JUMPI PUSH1 0x0 DUP1 REVERT JUMPDEST POP JUMP JUMPDEST PUSH1 0x0 DUP2 CALLDATALOAD SWAP1 POP PUSH2 0x15B DUP2 PUSH2 0x135 JUMP JUMPDEST SWAP3 SWAP2 POP POP JUMP JUMPDEST PUSH1 0x0 DUP1 PUSH1 0x40 DUP4 DUP6 SUB SLT ISZERO PUSH2 0x178 JUMPI PUSH2 0x177 PUSH2 0x123 JUMP JUMPDEST JUMPDEST PUSH1 0x0 PUSH2 0x186 DUP6 DUP3 DUP7 ADD PUSH2 0x14C JUMP JUMPDEST SWAP3 POP POP PUSH1 0x20 PUSH2 0x197 DUP6 DUP3 DUP7 ADD PUSH2 0x14C JUMP JUMPDEST SWAP2 POP POP SWAP3 POP SWAP3 SWAP1 POP JUMP JUMPDEST PUSH2 0x1AA DUP2 PUSH2 0x128 JUMP JUMPDEST DUP3 MSTORE POP POP JUMP JUMPDEST PUSH1 0x0 PUSH1 0x20 DUP3 ADD SWAP1 POP PUSH2 0x1C5 PUSH1 0x0 DUP4 ADD DUP5 PUSH2 0x1A1 JUMP JUMPDEST SWAP3 SWAP2 POP POP JUMP JUMPDEST PUSH1 0x0 PUSH1 0x20 DUP3 DUP5 SUB SLT ISZERO PUSH2 0x1E1 JUMPI PUSH2 0x1E0 PUSH2 0x123 JUMP JUMPDEST JUMPDEST PUSH1 0x0 PUSH2 0x1EF DUP5 DUP3 DUP6 ADD PUSH2 0x14C JUMP JUMPDEST SWAP2 POP POP SWAP3 SWAP2 POP POP JUMP JUMPDEST PUSH32 0x4E487B7100000000000000000000000000000000000000000000000000000000 PUSH1 0x0 MSTORE PUSH1 0x11 PUSH1 0x4 MSTORE PUSH1 0x24 PUSH1 0x0 REVERT JUMPDEST PUSH1 0x0 PUSH2 0x232 DUP3 PUSH2 0x128 JUMP JUMPDEST SWAP2 POP PUSH2 0x23D DUP4 PUSH2 0x128 JUMP JUMPDEST SWAP3 POP DUP3 DUP3 MUL PUSH2 0x24B DUP2 PUSH2 0x128 JUMP JUMPDEST SWAP2 POP DUP1 DUP3 EQ PUSH2 0x25D JUMPI PUSH2 0x25C PUSH2 0x1F8 JUMP JUMPDEST JUMPDEST POP SWAP3 SWAP2 POP POP JUMP JUMPDEST PUSH32 0x4E487B7100000000000000000000000000000000000000000000000000000000 PUSH1 0x0 MSTORE PUSH1 0x12 PUSH1 0x4 MSTORE PUSH1 0x24 PUSH1 0x0 REVERT JUMPDEST PUSH1 0x0 PUSH2 0x29E DUP3 PUSH2 0x128 JUMP JUMPDEST SWAP2 POP PUSH2 0x2A9 DUP4 PUSH2 0x128 JUMP JUMPDEST SWAP3 POP DUP3 PUSH2 0x2B9 JUMPI PUSH2 0x2B8 PUSH2 0x264 JUMP JUMPDEST JUMPDEST PUSH1 0x1 PUSH1 0x0 SUB DUP4 EQ PUSH32 0xFFFFFFFFFFFFFFFFFFFFFFFFFFFFFFFFFFFFFFFFFFFFFFFFFFFFFFFFFFFF8000 DUP4 EQ AND ISZERO PUSH2 0x2F2 JUMPI PUSH2 0x2F1 PUSH2 0x1F8 JUMP JUMPDEST JUMPDEST DUP3 DUP3 SDIV SWAP1 POP SWAP3 SWAP2 POP POP JUMP INVALID LOG2 PUSH5 0x6970667358 0x22 SLT KECCAK256 0xAC 0xB2 GASLIMIT EXTCODESIZE 0x4B SELFBALANCE DUP9 0x27 0xD8 0xEA 0xAB 0xAC 0xBB PC 0xC9 0xB4 0xB7 0xB7 DUP1 0xB1 0xE9 CALLDATACOPY BYTE REVERT 0x4C JUMPI 0xB6 PUSH8 0x1FA51C3264736F6C PUSH4 0x4300081C STOP CALLER "
        },
        "methodIdentifiers": {
          "rectangle(int16,int16)": "06689f1c",
          "square(int16)": "ed92eb5d",
          "triangle(int16,int16)": "364281a3"
        }
      }
    }
  }
}