{
      "_format": "hh-sol-artifact-1",
      "contractName": "Airdrop",
      "sourceName": "contracts/Airdrop.sol",
      "abi": [
            {
                  "inputs": [
                        {
                              "internalType": "address",
                              "name": "_token",
                              "type": "address"
                        },
                        {
                              "internalType": "bytes32",
                              "name": "_merkleRoot",
                              "type": "bytes32"
                        },
                        {
                              "internalType": "uint256",
                              "name": "_claimAmount",
                              "type": "uint256"
                        }
                  ],
                  "stateMutability": "nonpayable",
                  "type": "constructor"
            },
            {
                  "inputs": [
                        {
                              "internalType": "address",
                              "name": "owner",
                              "type": "address"
                        }
                  ],
                  "name": "OwnableInvalidOwner",
                  "type": "error"
            },
            {
                  "inputs": [
                        {
                              "internalType": "address",
                              "name": "account",
                              "type": "address"
                        }
                  ],
                  "name": "OwnableUnauthorizedAccount",
                  "type": "error"
            },
            {
                  "anonymous": false,
                  "inputs": [
                        {
                              "indexed": false,
                              "internalType": "uint256",
                              "name": "newClaimAmount",
                              "type": "uint256"
                        }
                  ],
                  "name": "ClaimAmountUpdated",
                  "type": "event"
            },
            {
                  "anonymous": false,
                  "inputs": [
                        {
                              "indexed": true,
                              "internalType": "address",
                              "name": "user",
                              "type": "address"
                        },
                        {
                              "indexed": false,
                              "internalType": "uint256",
                              "name": "amount",
                              "type": "uint256"
                        }
                  ],
                  "name": "Claimed",
                  "type": "event"
            },
            {
                  "anonymous": false,
                  "inputs": [
                        {
                              "indexed": false,
                              "internalType": "bytes32",
                              "name": "newMerkleRoot",
                              "type": "bytes32"
                        }
                  ],
                  "name": "MerkleRootUpdated",
                  "type": "event"
            },
            {
                  "anonymous": false,
                  "inputs": [
                        {
                              "indexed": true,
                              "internalType": "address",
                              "name": "previousOwner",
                              "type": "address"
                        },
                        {
                              "indexed": true,
                              "internalType": "address",
                              "name": "newOwner",
                              "type": "address"
                        }
                  ],
                  "name": "OwnershipTransferred",
                  "type": "event"
            },
            {
                  "anonymous": false,
                  "inputs": [
                        {
                              "indexed": false,
                              "internalType": "uint256",
                              "name": "amount",
                              "type": "uint256"
                        }
                  ],
                  "name": "Withdrawn",
                  "type": "event"
            },
            {
                  "inputs": [],
                  "name": "claimAmount",
                  "outputs": [
                        {
                              "internalType": "uint256",
                              "name": "",
                              "type": "uint256"
                        }
                  ],
                  "stateMutability": "view",
                  "type": "function"
            },
            {
                  "inputs": [
                        {
                              "internalType": "bytes32[]",
                              "name": "merkleProof",
                              "type": "bytes32[]"
                        }
                  ],
                  "name": "claimTokens",
                  "outputs": [],
                  "stateMutability": "nonpayable",
                  "type": "function"
            },
            {
                  "inputs": [
                        {
                              "internalType": "address",
                              "name": "",
                              "type": "address"
                        }
                  ],
                  "name": "hasClaimed",
                  "outputs": [
                        {
                              "internalType": "bool",
                              "name": "",
                              "type": "bool"
                        }
                  ],
                  "stateMutability": "view",
                  "type": "function"
            },
            {
                  "inputs": [],
                  "name": "merkleRoot",
                  "outputs": [
                        {
                              "internalType": "bytes32",
                              "name": "",
                              "type": "bytes32"
                        }
                  ],
                  "stateMutability": "view",
                  "type": "function"
            },
            {
                  "inputs": [],
                  "name": "owner",
                  "outputs": [
                        {
                              "internalType": "address",
                              "name": "",
                              "type": "address"
                        }
                  ],
                  "stateMutability": "view",
                  "type": "function"
            },
            {
                  "inputs": [],
                  "name": "renounceOwnership",
                  "outputs": [],
                  "stateMutability": "nonpayable",
                  "type": "function"
            },
            {
                  "inputs": [],
                  "name": "token",
                  "outputs": [
                        {
                              "internalType": "contract IERC20",
                              "name": "",
                              "type": "address"
                        }
                  ],
                  "stateMutability": "view",
                  "type": "function"
            },
            {
                  "inputs": [
                        {
                              "internalType": "address",
                              "name": "newOwner",
                              "type": "address"
                        }
                  ],
                  "name": "transferOwnership",
                  "outputs": [],
                  "stateMutability": "nonpayable",
                  "type": "function"
            },
            {
                  "inputs": [
                        {
                              "internalType": "uint256",
                              "name": "_newClaimAmount",
                              "type": "uint256"
                        }
                  ],
                  "name": "updateClaimAmount",
                  "outputs": [],
                  "stateMutability": "nonpayable",
                  "type": "function"
            },
            {
                  "inputs": [
                        {
                              "internalType": "bytes32",
                              "name": "_newMerkleRoot",
                              "type": "bytes32"
                        }
                  ],
                  "name": "updateMerkleRoot",
                  "outputs": [],
                  "stateMutability": "nonpayable",
                  "type": "function"
            },
            {
                  "inputs": [],
                  "name": "withdrawUnclaimedTokens",
                  "outputs": [],
                  "stateMutability": "nonpayable",
                  "type": "function"
            }
      ],
      "bytecode": "0x608060405234801561001057600080fd5b506040516113cb3803806113cb8339818101604052810190610032919061029f565b33600073ffffffffffffffffffffffffffffffffffffffff168173ffffffffffffffffffffffffffffffffffffffff16036100a55760006040517f1e4fbdf700000000000000000000000000000000000000000000000000000000815260040161009c9190610301565b60405180910390fd5b6100b48161010c60201b60201c565b5082600160006101000a81548173ffffffffffffffffffffffffffffffffffffffff021916908373ffffffffffffffffffffffffffffffffffffffff160217905550816002819055508060038190555050505061031c565b60008060009054906101000a900473ffffffffffffffffffffffffffffffffffffffff169050816000806101000a81548173ffffffffffffffffffffffffffffffffffffffff021916908373ffffffffffffffffffffffffffffffffffffffff1602179055508173ffffffffffffffffffffffffffffffffffffffff168173ffffffffffffffffffffffffffffffffffffffff167f8be0079c531659141344cd1fd0a4f28419497f9722a3daafe3b4186f6b6457e060405160405180910390a35050565b600080fd5b600073ffffffffffffffffffffffffffffffffffffffff82169050919050565b6000610200826101d5565b9050919050565b610210816101f5565b811461021b57600080fd5b50565b60008151905061022d81610207565b92915050565b6000819050919050565b61024681610233565b811461025157600080fd5b50565b6000815190506102638161023d565b92915050565b6000819050919050565b61027c81610269565b811461028757600080fd5b50565b60008151905061029981610273565b92915050565b6000806000606084860312156102b8576102b76101d0565b5b60006102c68682870161021e565b93505060206102d786828701610254565b92505060406102e88682870161028a565b9150509250925092565b6102fb816101f5565b82525050565b600060208201905061031660008301846102f2565b92915050565b6110a08061032b6000396000f3fe608060405234801561001057600080fd5b50600436106100a95760003560e01c8063830953ab11610071578063830953ab1461012c5780638da5cb5b1461014a578063dca8b08114610168578063deb97a6b14610184578063f2fde38b146101a0578063fc0c546a146101bc576100a9565b80632eb4a7ab146100ae5780634783f0ef146100cc5780634fad1883146100e8578063715018a6146100f257806373b2e80e146100fc575b600080fd5b6100b66101da565b6040516100c39190610a31565b60405180910390f35b6100e660048036038101906100e19190610a82565b6101e0565b005b6100f0610229565b005b6100fa6103f1565b005b61011660048036038101906101119190610b0d565b610405565b6040516101239190610b55565b60405180910390f35b610134610425565b6040516101419190610b89565b60405180910390f35b61015261042b565b60405161015f9190610bb3565b60405180910390f35b610182600480360381019061017d9190610bfa565b610454565b005b61019e60048036038101906101999190610c8c565b61049d565b005b6101ba60048036038101906101b59190610b0d565b610770565b005b6101c46107f6565b6040516101d19190610d38565b60405180910390f35b60025481565b6101e861081c565b806002819055507f90004c04698bc3322499a575ed3752dd4abf33e0a7294c06a787a0fe01bea9418160405161021e9190610a31565b60405180910390a150565b61023161081c565b6000600160009054906101000a900473ffffffffffffffffffffffffffffffffffffffff1673ffffffffffffffffffffffffffffffffffffffff166370a08231306040518263ffffffff1660e01b815260040161028e9190610bb3565b602060405180830381865afa1580156102ab573d6000803e3d6000fd5b505050506040513d601f19601f820116820180604052508101906102cf9190610d68565b9050600160009054906101000a900473ffffffffffffffffffffffffffffffffffffffff1673ffffffffffffffffffffffffffffffffffffffff1663a9059cbb61031761042b565b836040518363ffffffff1660e01b8152600401610335929190610d95565b6020604051808303816000875af1158015610354573d6000803e3d6000fd5b505050506040513d601f19601f820116820180604052508101906103789190610dea565b6103b7576040517f08c379a00000000000000000000000000000000000000000000000000000000081526004016103ae90610e74565b60405180910390fd5b7f430648de173157e069201c943adb2d4e340e7cf5b27b1b09c9cb852f03d63b56816040516103e69190610b89565b60405180910390a150565b6103f961081c565b61040360006108a3565b565b60046020528060005260406000206000915054906101000a900460ff1681565b60035481565b60008060009054906101000a900473ffffffffffffffffffffffffffffffffffffffff16905090565b61045c61081c565b806003819055507f6a856539d0c38e2d0062c02baf02b3d784e9de37335f10d75d5ed7e606c70456816040516104929190610b89565b60405180910390a150565b600460003373ffffffffffffffffffffffffffffffffffffffff1673ffffffffffffffffffffffffffffffffffffffff16815260200190815260200160002060009054906101000a900460ff161561052a576040517f08c379a000000000000000000000000000000000000000000000000000000000815260040161052190610ee0565b60405180910390fd5b60003360405160200161053d9190610f48565b6040516020818303038152906040528051906020012090506105a3838380806020026020016040519081016040528093929190818152602001838360200280828437600081840152601f19601f8201169050808301925050505050505060025483610967565b6105e2576040517f08c379a00000000000000000000000000000000000000000000000000000000081526004016105d990610faf565b60405180910390fd5b6001600460003373ffffffffffffffffffffffffffffffffffffffff1673ffffffffffffffffffffffffffffffffffffffff16815260200190815260200160002060006101000a81548160ff021916908315150217905550600160009054906101000a900473ffffffffffffffffffffffffffffffffffffffff1673ffffffffffffffffffffffffffffffffffffffff1663a9059cbb336003546040518363ffffffff1660e01b8152600401610699929190610d95565b6020604051808303816000875af11580156106b8573d6000803e3d6000fd5b505050506040513d601f19601f820116820180604052508101906106dc9190610dea565b61071b576040517f08c379a00000000000000000000000000000000000000000000000000000000081526004016107129061101b565b60405180910390fd5b3373ffffffffffffffffffffffffffffffffffffffff167fd8138f8a3f377c5259ca548e70e4c2de94f129f5a11036a15b69513cba2b426a6003546040516107639190610b89565b60405180910390a2505050565b61077861081c565b600073ffffffffffffffffffffffffffffffffffffffff168173ffffffffffffffffffffffffffffffffffffffff16036107ea5760006040517f1e4fbdf70000000000000000000000000000000000000000000000000000000081526004016107e19190610bb3565b60405180910390fd5b6107f3816108a3565b50565b600160009054906101000a900473ffffffffffffffffffffffffffffffffffffffff1681565b61082461097e565b73ffffffffffffffffffffffffffffffffffffffff1661084261042b565b73ffffffffffffffffffffffffffffffffffffffff16146108a15761086561097e565b6040517f118cdaa70000000000000000000000000000000000000000000000000000000081526004016108989190610bb3565b60405180910390fd5b565b60008060009054906101000a900473ffffffffffffffffffffffffffffffffffffffff169050816000806101000a81548173ffffffffffffffffffffffffffffffffffffffff021916908373ffffffffffffffffffffffffffffffffffffffff1602179055508173ffffffffffffffffffffffffffffffffffffffff168173ffffffffffffffffffffffffffffffffffffffff167f8be0079c531659141344cd1fd0a4f28419497f9722a3daafe3b4186f6b6457e060405160405180910390a35050565b6000826109748584610986565b1490509392505050565b600033905090565b60008082905060005b84518110156109cb576109bc828683815181106109af576109ae61103b565b5b60200260200101516109d6565b9150808060010191505061098f565b508091505092915050565b60008183106109ee576109e98284610a01565b6109f9565b6109f88383610a01565b5b905092915050565b600082600052816020526040600020905092915050565b6000819050919050565b610a2b81610a18565b82525050565b6000602082019050610a466000830184610a22565b92915050565b600080fd5b600080fd5b610a5f81610a18565b8114610a6a57600080fd5b50565b600081359050610a7c81610a56565b92915050565b600060208284031215610a9857610a97610a4c565b5b6000610aa684828501610a6d565b91505092915050565b600073ffffffffffffffffffffffffffffffffffffffff82169050919050565b6000610ada82610aaf565b9050919050565b610aea81610acf565b8114610af557600080fd5b50565b600081359050610b0781610ae1565b92915050565b600060208284031215610b2357610b22610a4c565b5b6000610b3184828501610af8565b91505092915050565b60008115159050919050565b610b4f81610b3a565b82525050565b6000602082019050610b6a6000830184610b46565b92915050565b6000819050919050565b610b8381610b70565b82525050565b6000602082019050610b9e6000830184610b7a565b92915050565b610bad81610acf565b82525050565b6000602082019050610bc86000830184610ba4565b92915050565b610bd781610b70565b8114610be257600080fd5b50565b600081359050610bf481610bce565b92915050565b600060208284031215610c1057610c0f610a4c565b5b6000610c1e84828501610be5565b91505092915050565b600080fd5b600080fd5b600080fd5b60008083601f840112610c4c57610c4b610c27565b5b8235905067ffffffffffffffff811115610c6957610c68610c2c565b5b602083019150836020820283011115610c8557610c84610c31565b5b9250929050565b60008060208385031215610ca357610ca2610a4c565b5b600083013567ffffffffffffffff811115610cc157610cc0610a51565b5b610ccd85828601610c36565b92509250509250929050565b6000819050919050565b6000610cfe610cf9610cf484610aaf565b610cd9565b610aaf565b9050919050565b6000610d1082610ce3565b9050919050565b6000610d2282610d05565b9050919050565b610d3281610d17565b82525050565b6000602082019050610d4d6000830184610d29565b92915050565b600081519050610d6281610bce565b92915050565b600060208284031215610d7e57610d7d610a4c565b5b6000610d8c84828501610d53565b91505092915050565b6000604082019050610daa6000830185610ba4565b610db76020830184610b7a565b9392505050565b610dc781610b3a565b8114610dd257600080fd5b50565b600081519050610de481610dbe565b92915050565b600060208284031215610e0057610dff610a4c565b5b6000610e0e84828501610dd5565b91505092915050565b600082825260208201905092915050565b7f5769746864726177206661696c65640000000000000000000000000000000000600082015250565b6000610e5e600f83610e17565b9150610e6982610e28565b602082019050919050565b60006020820190508181036000830152610e8d81610e51565b9050919050565b7f416c726561647920636c61696d65640000000000000000000000000000000000600082015250565b6000610eca600f83610e17565b9150610ed582610e94565b602082019050919050565b60006020820190508181036000830152610ef981610ebd565b9050919050565b60008160601b9050919050565b6000610f1882610f00565b9050919050565b6000610f2a82610f0d565b9050919050565b610f42610f3d82610acf565b610f1f565b82525050565b6000610f548284610f31565b60148201915081905092915050565b7f4e6f742077686974656c69737465640000000000000000000000000000000000600082015250565b6000610f99600f83610e17565b9150610fa482610f63565b602082019050919050565b60006020820190508181036000830152610fc881610f8c565b9050919050565b7f5472616e73666572206661696c65640000000000000000000000000000000000600082015250565b6000611005600f83610e17565b915061101082610fcf565b602082019050919050565b6000602082019050818103600083015261103481610ff8565b9050919050565b7f4e487b7100000000000000000000000000000000000000000000000000000000600052603260045260246000fdfea264697066735822122048e05e3b0474fd3fb9d27b4b3c45e81a2d32227b13539b068971b1a9cf78eed964736f6c634300081c0033",
      "linkReferences": {},
      "deployedLinkReferences": {}
}