{
  "_format": "hh-sol-artifact-1",
  "contractName": "AreaCalculator",
  "sourceName": "contracts/AreaCalculator.sol",
  "abi": [
    {
      "inputs": [
        {
          "internalType": "uint256",
          "name": "length",
          "type": "uint256"
        },
        {
          "internalType": "uint256",
          "name": "breadth",
          "type": "uint256"
        }
      ],
      "name": "AreaOfRectangle",
      "outputs": [
        {
          "internalType": "uint256",
          "name": "",
          "type": "uint256"
        }
      ],
      "stateMutability": "pure",
      "type": "function"
    },
    {
      "inputs": [
        {
          "internalType": "uint256",
          "name": "side1",
          "type": "uint256"
        }
      ],
      "name": "AreaOfSquare",
      "outputs": [
        {
          "internalType": "uint256",
          "name": "",
          "type": "uint256"
        }
      ],
      "stateMutability": "pure",
      "type": "function"
    },
    {
      "inputs": [
        {
          "internalType": "uint256",
          "name": "_base",
          "type": "uint256"
        },
        {
          "internalType": "uint256",
          "name": "_height",
          "type": "uint256"
        }
      ],
      "name": "AreaOfTriangle",
      "outputs": [
        {
          "internalType": "uint256",
          "name": "",
          "type": "uint256"
        }
      ],
      "stateMutability": "pure",
      "type": "function"
    }
  ],
  "bytecode": "0x6080604052348015600f57600080fd5b506104888061001f6000396000f3fe608060405234801561001057600080fd5b50600436106100415760003560e01c8063483c826f146100465780637cf91ebf14610076578063b07bf922146100a6575b600080fd5b610060600480360381019061005b919061015f565b6100d6565b60405161006d919061019b565b60405180910390f35b610090600480360381019061008b91906101b6565b6100ec565b60405161009d919061019b565b60405180910390f35b6100c060048036038101906100bb91906101b6565b610102565b6040516100cd919061019b565b60405180910390f35b60006002826100e59190610365565b9050919050565b600081836100fa91906103b0565b905092915050565b60006002828461011291906103b0565b61011c9190610421565b905092915050565b600080fd5b6000819050919050565b61013c81610129565b811461014757600080fd5b50565b60008135905061015981610133565b92915050565b60006020828403121561017557610174610124565b5b60006101838482850161014a565b91505092915050565b61019581610129565b82525050565b60006020820190506101b0600083018461018c565b92915050565b600080604083850312156101cd576101cc610124565b5b60006101db8582860161014a565b92505060206101ec8582860161014a565b9150509250929050565b7f4e487b7100000000000000000000000000000000000000000000000000000000600052601160045260246000fd5b60008160011c9050919050565b6000808291508390505b600185111561027c57808604811115610258576102576101f6565b5b60018516156102675780820291505b808102905061027585610225565b945061023c565b94509492505050565b6000826102955760019050610351565b816102a35760009050610351565b81600181146102b957600281146102c3576102f2565b6001915050610351565b60ff8411156102d5576102d46101f6565b5b8360020a9150848211156102ec576102eb6101f6565b5b50610351565b5060208310610133831016604e8410600b84101617156103275782820a905083811115610322576103216101f6565b5b610351565b6103348484846001610232565b9250905081840481111561034b5761034a6101f6565b5b81810290505b9392505050565b600060ff82169050919050565b600061037082610129565b915061037b83610358565b92506103a87fffffffffffffffffffffffffffffffffffffffffffffffffffffffffffffffff8484610285565b905092915050565b60006103bb82610129565b91506103c683610129565b92508282026103d481610129565b915082820484148315176103eb576103ea6101f6565b5b5092915050565b7f4e487b7100000000000000000000000000000000000000000000000000000000600052601260045260246000fd5b600061042c82610129565b915061043783610129565b925082610447576104466103f2565b5b82820490509291505056fea26469706673582212208ce89e6bc1bfc58b3e0910111052fe62674ceb79032ea8604ec211e2e2ac0e8964736f6c634300081c0033",
  "linkReferences": {},
  "deployedLinkReferences": {}
}