{
  "_format": "hh-sol-artifact-1",
  "contractName": "SolomonAreaCalculator",
  "sourceName": "contracts/SolomonAreaCalculator.sol",
  "abi": [
    {
      "inputs": [
        {
          "internalType": "int16",
          "name": "length",
          "type": "int16"
        },
        {
          "internalType": "int16",
          "name": "breadth",
          "type": "int16"
        }
      ],
      "name": "rectangle",
      "outputs": [
        {
          "internalType": "int16",
          "name": "",
          "type": "int16"
        }
      ],
      "stateMutability": "pure",
      "type": "function"
    },
    {
      "inputs": [
        {
          "internalType": "int16",
          "name": "side",
          "type": "int16"
        }
      ],
      "name": "square",
      "outputs": [
        {
          "internalType": "int16",
          "name": "",
          "type": "int16"
        }
      ],
      "stateMutability": "pure",
      "type": "function"
    },
    {
      "inputs": [
        {
          "internalType": "int16",
          "name": "base",
          "type": "int16"
        },
        {
          "internalType": "int16",
          "name": "height",
          "type": "int16"
        }
      ],
      "name": "triangle",
      "outputs": [
        {
          "internalType": "int16",
          "name": "",
          "type": "int16"
        }
      ],
      "stateMutability": "pure",
      "type": "function"
    }
  ],
  "bytecode": "0x6080604052348015600f57600080fd5b506103338061001f6000396000f3fe608060405234801561001057600080fd5b50600436106100415760003560e01c806306689f1c14610046578063364281a314610076578063ed92eb5d146100a6575b600080fd5b610060600480360381019061005b9190610161565b6100d6565b60405161006d91906101b0565b60405180910390f35b610090600480360381019061008b9190610161565b6100ec565b60405161009d91906101b0565b60405180910390f35b6100c060048036038101906100bb91906101cb565b61010e565b6040516100cd91906101b0565b60405180910390f35b600081836100e49190610227565b905092915050565b6000600282846100fc9190610227565b6101069190610293565b905092915050565b6000818261011c9190610227565b9050919050565b600080fd5b60008160010b9050919050565b61013e81610128565b811461014957600080fd5b50565b60008135905061015b81610135565b92915050565b6000806040838503121561017857610177610123565b5b60006101868582860161014c565b92505060206101978582860161014c565b9150509250929050565b6101aa81610128565b82525050565b60006020820190506101c560008301846101a1565b92915050565b6000602082840312156101e1576101e0610123565b5b60006101ef8482850161014c565b91505092915050565b7f4e487b7100000000000000000000000000000000000000000000000000000000600052601160045260246000fd5b600061023282610128565b915061023d83610128565b925082820261024b81610128565b915080821461025d5761025c6101f8565b5b5092915050565b7f4e487b7100000000000000000000000000000000000000000000000000000000600052601260045260246000fd5b600061029e82610128565b91506102a983610128565b9250826102b9576102b8610264565b5b600160000383147fffffffffffffffffffffffffffffffffffffffffffffffffffffffffffff8000831416156102f2576102f16101f8565b5b82820590509291505056fea2646970667358221220acb2453b4b478827d8eaabacbb58c9b4b7b780b1e9371afd4c57b6671fa51c3264736f6c634300081c0033",
  "linkReferences": {},
  "deployedLinkReferences": {}
}