{
  "_format": "hh-sol-artifact-1",
  "contractName": "AreaCalculator",
  "sourceName": "contracts/AreaCalculator.sol",
  "abi": [
    {
      "inputs": [
        {
          "internalType": "uint256",
          "name": "length",
          "type": "uint256"
        },
        {
          "internalType": "uint256",
          "name": "breadth",
          "type": "uint256"
        }
      ],
      "name": "areaOfRectangle",
      "outputs": [
        {
          "internalType": "uint256",
          "name": "_areaOfRectangle",
          "type": "uint256"
        }
      ],
      "stateMutability": "pure",
      "type": "function"
    },
    {
      "inputs": [
        {
          "internalType": "uint256",
          "name": "side",
          "type": "uint256"
        }
      ],
      "name": "areaOfSquare",
      "outputs": [
        {
          "internalType": "uint256",
          "name": "_areaOfSquare",
          "type": "uint256"
        }
      ],
      "stateMutability": "pure",
      "type": "function"
    },
    {
      "inputs": [
        {
          "internalType": "uint256",
          "name": "breadth",
          "type": "uint256"
        },
        {
          "internalType": "uint256",
          "name": "height",
          "type": "uint256"
        }
      ],
      "name": "areaOfTriangle",
      "outputs": [
        {
          "internalType": "uint256",
          "name": "_areaOfTriangle",
          "type": "uint256"
        }
      ],
      "stateMutability": "pure",
      "type": "function"
    }
  ],
  "bytecode": "0x6080604052348015600f57600080fd5b506102fc8061001f6000396000f3fe608060405234801561001057600080fd5b50600436106100415760003560e01c806360a89df414610046578063924efd4614610076578063f8f1aacd146100a6575b600080fd5b610060600480360381019061005b919061015e565b6100d6565b60405161006d919061019a565b60405180910390f35b610090600480360381019061008b91906101b5565b6100eb565b60405161009d919061019a565b60405180910390f35b6100c060048036038101906100bb91906101b5565b61010d565b6040516100cd919061019a565b60405180910390f35b600081826100e49190610224565b9050919050565b6000600282846100fb9190610224565b6101059190610295565b905092915050565b6000818361011b9190610224565b905092915050565b600080fd5b6000819050919050565b61013b81610128565b811461014657600080fd5b50565b60008135905061015881610132565b92915050565b60006020828403121561017457610173610123565b5b600061018284828501610149565b91505092915050565b61019481610128565b82525050565b60006020820190506101af600083018461018b565b92915050565b600080604083850312156101cc576101cb610123565b5b60006101da85828601610149565b92505060206101eb85828601610149565b9150509250929050565b7f4e487b7100000000000000000000000000000000000000000000000000000000600052601160045260246000fd5b600061022f82610128565b915061023a83610128565b925082820261024881610128565b9150828204841483151761025f5761025e6101f5565b5b5092915050565b7f4e487b7100000000000000000000000000000000000000000000000000000000600052601260045260246000fd5b60006102a082610128565b91506102ab83610128565b9250826102bb576102ba610266565b5b82820490509291505056fea2646970667358221220624b658034f7e83645e2f6e7fe0a0498bc8854e64e90fae6f8ef1f8f29d1412f64736f6c634300081c0033",
  "linkReferences": {},
  "deployedLinkReferences": {}
}