{
      "_format": "hh-sol-artifact-1",
      "contractName": "VotingContract",
      "sourceName": "contracts/VotingContract.sol",
      "abi": [
            {
                  "inputs": [
                        {
                              "internalType": "address[]",
                              "name": "_adminOfficials",
                              "type": "address[]"
                        },
                        {
                              "internalType": "uint256",
                              "name": "_electionStartTime",
                              "type": "uint256"
                        },
                        {
                              "internalType": "uint256",
                              "name": "_electionEndTime",
                              "type": "uint256"
                        }
                  ],
                  "stateMutability": "nonpayable",
                  "type": "constructor"
            },
            {
                  "anonymous": false,
                  "inputs": [
                        {
                              "indexed": false,
                              "internalType": "address",
                              "name": "contestant",
                              "type": "address"
                        },
                        {
                              "indexed": false,
                              "internalType": "string",
                              "name": "candidateName",
                              "type": "string"
                        }
                  ],
                  "name": "ContestantRegistered",
                  "type": "event"
            },
            {
                  "anonymous": false,
                  "inputs": [
                        {
                              "indexed": false,
                              "internalType": "address",
                              "name": "winner",
                              "type": "address"
                        },
                        {
                              "indexed": false,
                              "internalType": "uint256",
                              "name": "voteCount",
                              "type": "uint256"
                        }
                  ],
                  "name": "ElectionResult",
                  "type": "event"
            },
            {
                  "anonymous": false,
                  "inputs": [
                        {
                              "indexed": false,
                              "internalType": "address",
                              "name": "voter",
                              "type": "address"
                        },
                        {
                              "indexed": false,
                              "internalType": "address",
                              "name": "contestant",
                              "type": "address"
                        }
                  ],
                  "name": "VoteCast",
                  "type": "event"
            },
            {
                  "anonymous": false,
                  "inputs": [
                        {
                              "indexed": false,
                              "internalType": "address",
                              "name": "voter",
                              "type": "address"
                        },
                        {
                              "indexed": false,
                              "internalType": "string",
                              "name": "fullName",
                              "type": "string"
                        }
                  ],
                  "name": "VoterRegistered",
                  "type": "event"
            },
            {
                  "inputs": [
                        {
                              "internalType": "uint256",
                              "name": "",
                              "type": "uint256"
                        }
                  ],
                  "name": "adminOfficials",
                  "outputs": [
                        {
                              "internalType": "address",
                              "name": "",
                              "type": "address"
                        }
                  ],
                  "stateMutability": "view",
                  "type": "function"
            },
            {
                  "inputs": [
                        {
                              "internalType": "uint256",
                              "name": "",
                              "type": "uint256"
                        }
                  ],
                  "name": "contestantList",
                  "outputs": [
                        {
                              "internalType": "address",
                              "name": "",
                              "type": "address"
                        }
                  ],
                  "stateMutability": "view",
                  "type": "function"
            },
            {
                  "inputs": [
                        {
                              "internalType": "address",
                              "name": "",
                              "type": "address"
                        }
                  ],
                  "name": "contestants",
                  "outputs": [
                        {
                              "internalType": "string",
                              "name": "candidateName",
                              "type": "string"
                        },
                        {
                              "internalType": "uint256",
                              "name": "candidateAge",
                              "type": "uint256"
                        },
                        {
                              "internalType": "string",
                              "name": "politicalParty",
                              "type": "string"
                        },
                        {
                              "internalType": "string",
                              "name": "manifesto",
                              "type": "string"
                        },
                        {
                              "internalType": "uint256",
                              "name": "voteCount",
                              "type": "uint256"
                        },
                        {
                              "internalType": "bool",
                              "name": "isRegistered",
                              "type": "bool"
                        }
                  ],
                  "stateMutability": "view",
                  "type": "function"
            },
            {
                  "inputs": [],
                  "name": "declareWinner",
                  "outputs": [],
                  "stateMutability": "nonpayable",
                  "type": "function"
            },
            {
                  "inputs": [],
                  "name": "electionEndTime",
                  "outputs": [
                        {
                              "internalType": "uint256",
                              "name": "",
                              "type": "uint256"
                        }
                  ],
                  "stateMutability": "view",
                  "type": "function"
            },
            {
                  "inputs": [],
                  "name": "electionStartTime",
                  "outputs": [
                        {
                              "internalType": "uint256",
                              "name": "",
                              "type": "uint256"
                        }
                  ],
                  "stateMutability": "view",
                  "type": "function"
            },
            {
                  "inputs": [],
                  "name": "getTotalVotes",
                  "outputs": [
                        {
                              "internalType": "uint256",
                              "name": "totalVotes",
                              "type": "uint256"
                        }
                  ],
                  "stateMutability": "view",
                  "type": "function"
            },
            {
                  "inputs": [
                        {
                              "internalType": "address",
                              "name": "_contestantAddress",
                              "type": "address"
                        }
                  ],
                  "name": "getVoteCount",
                  "outputs": [
                        {
                              "internalType": "uint256",
                              "name": "",
                              "type": "uint256"
                        }
                  ],
                  "stateMutability": "view",
                  "type": "function"
            },
            {
                  "inputs": [],
                  "name": "presidentElect",
                  "outputs": [
                        {
                              "internalType": "address",
                              "name": "",
                              "type": "address"
                        }
                  ],
                  "stateMutability": "view",
                  "type": "function"
            },
            {
                  "inputs": [
                        {
                              "internalType": "address",
                              "name": "_contestantAddress",
                              "type": "address"
                        },
                        {
                              "internalType": "string",
                              "name": "_candidateName",
                              "type": "string"
                        },
                        {
                              "internalType": "uint256",
                              "name": "_candidateAge",
                              "type": "uint256"
                        },
                        {
                              "internalType": "string",
                              "name": "_politicalParty",
                              "type": "string"
                        },
                        {
                              "internalType": "string",
                              "name": "_manifesto",
                              "type": "string"
                        }
                  ],
                  "name": "registerContestant",
                  "outputs": [],
                  "stateMutability": "nonpayable",
                  "type": "function"
            },
            {
                  "inputs": [
                        {
                              "internalType": "address",
                              "name": "_voterAddress",
                              "type": "address"
                        },
                        {
                              "internalType": "string",
                              "name": "_fullName",
                              "type": "string"
                        },
                        {
                              "internalType": "uint256",
                              "name": "_age",
                              "type": "uint256"
                        },
                        {
                              "internalType": "string",
                              "name": "_nin",
                              "type": "string"
                        },
                        {
                              "internalType": "string",
                              "name": "_nationality",
                              "type": "string"
                        }
                  ],
                  "name": "registerVoter",
                  "outputs": [],
                  "stateMutability": "nonpayable",
                  "type": "function"
            },
            {
                  "inputs": [
                        {
                              "internalType": "address",
                              "name": "_contestantAddress",
                              "type": "address"
                        }
                  ],
                  "name": "vote",
                  "outputs": [],
                  "stateMutability": "nonpayable",
                  "type": "function"
            },
            {
                  "inputs": [
                        {
                              "internalType": "uint256",
                              "name": "",
                              "type": "uint256"
                        }
                  ],
                  "name": "voterList",
                  "outputs": [
                        {
                              "internalType": "address",
                              "name": "",
                              "type": "address"
                        }
                  ],
                  "stateMutability": "view",
                  "type": "function"
            },
            {
                  "inputs": [
                        {
                              "internalType": "address",
                              "name": "",
                              "type": "address"
                        }
                  ],
                  "name": "voters",
                  "outputs": [
                        {
                              "internalType": "string",
                              "name": "fullName",
                              "type": "string"
                        },
                        {
                              "internalType": "uint256",
                              "name": "age",
                              "type": "uint256"
                        },
                        {
                              "internalType": "string",
                              "name": "nin",
                              "type": "string"
                        },
                        {
                              "internalType": "string",
                              "name": "nationality",
                              "type": "string"
                        },
                        {
                              "internalType": "bool",
                              "name": "hasVoted",
                              "type": "bool"
                        },
                        {
                              "internalType": "bool",
                              "name": "isRegistered",
                              "type": "bool"
                        }
                  ],
                  "stateMutability": "view",
                  "type": "function"
            }
      ],
      "bytecode": "0x608060405234801561001057600080fd5b506040516128c23803806128c28339818101604052810190610032919061038d565b6005835114610076576040517f08c379a000000000000000000000000000000000000000000000000000000000815260040161006d9061047f565b60405180910390fd5b8082106100b8576040517f08c379a00000000000000000000000000000000000000000000000000000000081526004016100af906104eb565b60405180910390fd5b82600090805190602001906100ce9291906100e5565b50816001819055508060028190555050505061050b565b82805482825590600052602060002090810192821561015e579160200282015b8281111561015d5782518260006101000a81548173ffffffffffffffffffffffffffffffffffffffff021916908373ffffffffffffffffffffffffffffffffffffffff16021790555091602001919060010190610105565b5b50905061016b919061016f565b5090565b5b80821115610188576000816000905550600101610170565b5090565b6000604051905090565b600080fd5b600080fd5b600080fd5b6000601f19601f8301169050919050565b7f4e487b7100000000000000000000000000000000000000000000000000000000600052604160045260246000fd5b6101ee826101a5565b810181811067ffffffffffffffff8211171561020d5761020c6101b6565b5b80604052505050565b600061022061018c565b905061022c82826101e5565b919050565b600067ffffffffffffffff82111561024c5761024b6101b6565b5b602082029050602081019050919050565b600080fd5b600073ffffffffffffffffffffffffffffffffffffffff82169050919050565b600061028d82610262565b9050919050565b61029d81610282565b81146102a857600080fd5b50565b6000815190506102ba81610294565b92915050565b60006102d36102ce84610231565b610216565b905080838252602082019050602084028301858111156102f6576102f561025d565b5b835b8181101561031f578061030b88826102ab565b8452602084019350506020810190506102f8565b5050509392505050565b600082601f83011261033e5761033d6101a0565b5b815161034e8482602086016102c0565b91505092915050565b6000819050919050565b61036a81610357565b811461037557600080fd5b50565b60008151905061038781610361565b92915050565b6000806000606084860312156103a6576103a5610196565b5b600084015167ffffffffffffffff8111156103c4576103c361019b565b5b6103d086828701610329565b93505060206103e186828701610378565b92505060406103f286828701610378565b9150509250925092565b600082825260208201905092915050565b7f5468657265206d7573742062652065786163746c7920352061646d696e206f6660008201527f66696369616c732e000000000000000000000000000000000000000000000000602082015250565b60006104696028836103fc565b91506104748261040d565b604082019050919050565b600060208201905081810360008301526104988161045c565b9050919050565b7f496e76616c696420656c656374696f6e20706572696f642e0000000000000000600082015250565b60006104d56018836103fc565b91506104e08261049f565b602082019050919050565b60006020820190508181036000830152610504816104c8565b9050919050565b6123a88061051a6000396000f3fe608060405234801561001057600080fd5b50600436106100ea5760003560e01c80639e136e641161008c578063c5980c9411610066578063c5980c9414610269578063e31b7fbd14610287578063e652f4cc146102a3578063e9494ce2146102d3576100ea565b80639e136e64146101e6578063a3ec138d14610204578063ad7a13e714610239576100ea565b80636dd7d8ea116100c85780636dd7d8ea1461015e578063715c879f1461017a57806399c1f62e146101985780639a0e7d66146101c8576100ea565b806314034bd2146100ef57806350e2e8af146100f95780636470a63914610129575b600080fd5b6100f76102ef565b005b610113600480360381019061010e9190611471565b610522565b60405161012091906114df565b60405180910390f35b610143600480360381019061013e9190611526565b610561565b6040516101559695949392919061160d565b60405180910390f35b61017860048036038101906101739190611526565b610742565b005b610182610a32565b60405161018f91906114df565b60405180910390f35b6101b260048036038101906101ad9190611471565b610a58565b6040516101bf91906114df565b60405180910390f35b6101d0610a97565b6040516101dd9190611683565b60405180910390f35b6101ee610b4b565b6040516101fb9190611683565b60405180910390f35b61021e60048036038101906102199190611526565b610b51565b6040516102309695949392919061169e565b60405180910390f35b610253600480360381019061024e9190611471565b610d3f565b60405161026091906114df565b60405180910390f35b610271610d7e565b60405161027e9190611683565b60405180910390f35b6102a1600480360381019061029c9190611849565b610d84565b005b6102bd60048036038101906102b89190611526565b610fe4565b6040516102ca9190611683565b60405180910390f35b6102ed60048036038101906102e89190611849565b6110bf565b005b6002544211610333576040517f08c379a000000000000000000000000000000000000000000000000000000000815260040161032a9061198a565b60405180910390fd5b60008080600090505b6006805490508110156104a357826005600060068481548110610362576103616119aa565b5b9060005260206000200160009054906101000a900473ffffffffffffffffffffffffffffffffffffffff1673ffffffffffffffffffffffffffffffffffffffff1673ffffffffffffffffffffffffffffffffffffffff1681526020019081526020016000206004015411156104965760056000600683815481106103e9576103e86119aa565b5b9060005260206000200160009054906101000a900473ffffffffffffffffffffffffffffffffffffffff1673ffffffffffffffffffffffffffffffffffffffff1673ffffffffffffffffffffffffffffffffffffffff16815260200190815260200160002060040154925060068181548110610468576104676119aa565b5b9060005260206000200160009054906101000a900473ffffffffffffffffffffffffffffffffffffffff1691505b808060010191505061033c565b5080600360006101000a81548173ffffffffffffffffffffffffffffffffffffffff021916908373ffffffffffffffffffffffffffffffffffffffff1602179055507f6fbf35b0a286f88b60d150af05675832e41d935ec784551f72aa7967282df13781836040516105169291906119d9565b60405180910390a15050565b6007818154811061053257600080fd5b906000526020600020016000915054906101000a900473ffffffffffffffffffffffffffffffffffffffff1681565b600560205280600052604060002060009150905080600001805461058490611a31565b80601f01602080910402602001604051908101604052809291908181526020018280546105b090611a31565b80156105fd5780601f106105d2576101008083540402835291602001916105fd565b820191906000526020600020905b8154815290600101906020018083116105e057829003601f168201915b50505050509080600101549080600201805461061890611a31565b80601f016020809104026020016040519081016040528092919081815260200182805461064490611a31565b80156106915780601f1061066657610100808354040283529160200191610691565b820191906000526020600020905b81548152906001019060200180831161067457829003601f168201915b5050505050908060030180546106a690611a31565b80601f01602080910402602001604051908101604052809291908181526020018280546106d290611a31565b801561071f5780601f106106f45761010080835404028352916020019161071f565b820191906000526020600020905b81548152906001019060200180831161070257829003601f168201915b5050505050908060040154908060050160009054906101000a900460ff16905086565b600154421015801561075657506002544211155b610795576040517f08c379a000000000000000000000000000000000000000000000000000000000815260040161078c90611ad4565b60405180910390fd5b600460003373ffffffffffffffffffffffffffffffffffffffff1673ffffffffffffffffffffffffffffffffffffffff16815260200190815260200160002060040160019054906101000a900460ff16610824576040517f08c379a000000000000000000000000000000000000000000000000000000000815260040161081b90611b40565b60405180910390fd5b600460003373ffffffffffffffffffffffffffffffffffffffff1673ffffffffffffffffffffffffffffffffffffffff16815260200190815260200160002060040160009054906101000a900460ff16156108b4576040517f08c379a00000000000000000000000000000000000000000000000000000000081526004016108ab90611bd2565b60405180910390fd5b600560008273ffffffffffffffffffffffffffffffffffffffff1673ffffffffffffffffffffffffffffffffffffffff16815260200190815260200160002060050160009054906101000a900460ff16610943576040517f08c379a000000000000000000000000000000000000000000000000000000000815260040161093a90611c64565b60405180910390fd5b6001600460003373ffffffffffffffffffffffffffffffffffffffff1673ffffffffffffffffffffffffffffffffffffffff16815260200190815260200160002060040160006101000a81548160ff021916908315150217905550600560008273ffffffffffffffffffffffffffffffffffffffff1673ffffffffffffffffffffffffffffffffffffffff16815260200190815260200160002060040160008154809291906109f190611cb3565b91905055507f113ed09b18bb8fe2635af16f21d67464502d920ff1015abfe08dbe9a2971a7e23382604051610a27929190611cfb565b60405180910390a150565b600360009054906101000a900473ffffffffffffffffffffffffffffffffffffffff1681565b60008181548110610a6857600080fd5b906000526020600020016000915054906101000a900473ffffffffffffffffffffffffffffffffffffffff1681565b600080600090505b600680549050811015610b47576005600060068381548110610ac457610ac36119aa565b5b9060005260206000200160009054906101000a900473ffffffffffffffffffffffffffffffffffffffff1673ffffffffffffffffffffffffffffffffffffffff1673ffffffffffffffffffffffffffffffffffffffff1681526020019081526020016000206004015482610b389190611d24565b91508080600101915050610a9f565b5090565b60025481565b6004602052806000526040600020600091509050806000018054610b7490611a31565b80601f0160208091040260200160405190810160405280929190818152602001828054610ba090611a31565b8015610bed5780601f10610bc257610100808354040283529160200191610bed565b820191906000526020600020905b815481529060010190602001808311610bd057829003601f168201915b505050505090806001015490806002018054610c0890611a31565b80601f0160208091040260200160405190810160405280929190818152602001828054610c3490611a31565b8015610c815780601f10610c5657610100808354040283529160200191610c81565b820191906000526020600020905b815481529060010190602001808311610c6457829003601f168201915b505050505090806003018054610c9690611a31565b80601f0160208091040260200160405190810160405280929190818152602001828054610cc290611a31565b8015610d0f5780601f10610ce457610100808354040283529160200191610d0f565b820191906000526020600020905b815481529060010190602001808311610cf257829003601f168201915b5050505050908060040160009054906101000a900460ff16908060040160019054906101000a900460ff16905086565b60068181548110610d4f57600080fd5b906000526020600020016000915054906101000a900473ffffffffffffffffffffffffffffffffffffffff1681565b60015481565b600560008673ffffffffffffffffffffffffffffffffffffffff1673ffffffffffffffffffffffffffffffffffffffff16815260200190815260200160002060050160009054906101000a900460ff1615610e14576040517f08c379a0000000000000000000000000000000000000000000000000000000008152600401610e0b90611dca565b60405180910390fd5b6023831015610e58576040517f08c379a0000000000000000000000000000000000000000000000000000000008152600401610e4f90611e5c565b60405180910390fd5b6040518060c001604052808581526020018481526020018381526020018281526020016000815260200160011515815250600560008773ffffffffffffffffffffffffffffffffffffffff1673ffffffffffffffffffffffffffffffffffffffff1681526020019081526020016000206000820151816000019081610edd9190612028565b50602082015181600101556040820151816002019081610efd9190612028565b506060820151816003019081610f139190612028565b506080820151816004015560a08201518160050160006101000a81548160ff0219169083151502179055509050506006859080600181540180825580915050600190039060005260206000200160009091909190916101000a81548173ffffffffffffffffffffffffffffffffffffffff021916908373ffffffffffffffffffffffffffffffffffffffff1602179055507f01cb7ebbb831dbf4ce74cddc0eb55589a38d5337f47f4f21508254e916dc1e788585604051610fd59291906120fa565b60405180910390a15050505050565b6000600560008373ffffffffffffffffffffffffffffffffffffffff1673ffffffffffffffffffffffffffffffffffffffff16815260200190815260200160002060050160009054906101000a900460ff16611075576040517f08c379a000000000000000000000000000000000000000000000000000000000815260040161106c9061219c565b60405180910390fd5b600560008373ffffffffffffffffffffffffffffffffffffffff1673ffffffffffffffffffffffffffffffffffffffff168152602001908152602001600020600401549050919050565b6110c83361137f565b611107576040517f08c379a00000000000000000000000000000000000000000000000000000000081526004016110fe90612254565b60405180910390fd5b600460008673ffffffffffffffffffffffffffffffffffffffff1673ffffffffffffffffffffffffffffffffffffffff16815260200190815260200160002060040160019054906101000a900460ff1615611197576040517f08c379a000000000000000000000000000000000000000000000000000000000815260040161118e906122c0565b60405180910390fd5b60128310156111db576040517f08c379a00000000000000000000000000000000000000000000000000000000081526004016111d290612352565b60405180910390fd5b6040518060c0016040528085815260200184815260200183815260200182815260200160001515815260200160011515815250600460008773ffffffffffffffffffffffffffffffffffffffff1673ffffffffffffffffffffffffffffffffffffffff16815260200190815260200160002060008201518160000190816112629190612028565b506020820151816001015560408201518160020190816112829190612028565b5060608201518160030190816112989190612028565b5060808201518160040160006101000a81548160ff02191690831515021790555060a08201518160040160016101000a81548160ff0219169083151502179055509050506007859080600181540180825580915050600190039060005260206000200160009091909190916101000a81548173ffffffffffffffffffffffffffffffffffffffff021916908373ffffffffffffffffffffffffffffffffffffffff1602179055507fffeb7702be7dcd8fee170d954b70afb9a7c78f7f5cff232d037e7b9d8243356a85856040516113709291906120fa565b60405180910390a15050505050565b600080600090505b60008054905081101561141c578273ffffffffffffffffffffffffffffffffffffffff16600082815481106113bf576113be6119aa565b5b9060005260206000200160009054906101000a900473ffffffffffffffffffffffffffffffffffffffff1673ffffffffffffffffffffffffffffffffffffffff160361140f576001915050611422565b8080600101915050611387565b50600090505b919050565b6000604051905090565b600080fd5b600080fd5b6000819050919050565b61144e8161143b565b811461145957600080fd5b50565b60008135905061146b81611445565b92915050565b60006020828403121561148757611486611431565b5b60006114958482850161145c565b91505092915050565b600073ffffffffffffffffffffffffffffffffffffffff82169050919050565b60006114c98261149e565b9050919050565b6114d9816114be565b82525050565b60006020820190506114f460008301846114d0565b92915050565b611503816114be565b811461150e57600080fd5b50565b600081359050611520816114fa565b92915050565b60006020828403121561153c5761153b611431565b5b600061154a84828501611511565b91505092915050565b600081519050919050565b600082825260208201905092915050565b60005b8381101561158d578082015181840152602081019050611572565b60008484015250505050565b6000601f19601f8301169050919050565b60006115b582611553565b6115bf818561155e565b93506115cf81856020860161156f565b6115d881611599565b840191505092915050565b6115ec8161143b565b82525050565b60008115159050919050565b611607816115f2565b82525050565b600060c082019050818103600083015261162781896115aa565b905061163660208301886115e3565b818103604083015261164881876115aa565b9050818103606083015261165c81866115aa565b905061166b60808301856115e3565b61167860a08301846115fe565b979650505050505050565b600060208201905061169860008301846115e3565b92915050565b600060c08201905081810360008301526116b881896115aa565b90506116c760208301886115e3565b81810360408301526116d981876115aa565b905081810360608301526116ed81866115aa565b90506116fc60808301856115fe565b61170960a08301846115fe565b979650505050505050565b600080fd5b600080fd5b7f4e487b7100000000000000000000000000000000000000000000000000000000600052604160045260246000fd5b61175682611599565b810181811067ffffffffffffffff821117156117755761177461171e565b5b80604052505050565b6000611788611427565b9050611794828261174d565b919050565b600067ffffffffffffffff8211156117b4576117b361171e565b5b6117bd82611599565b9050602081019050919050565b82818337600083830152505050565b60006117ec6117e784611799565b61177e565b90508281526020810184848401111561180857611807611719565b5b6118138482856117ca565b509392505050565b600082601f8301126118305761182f611714565b5b81356118408482602086016117d9565b91505092915050565b600080600080600060a0868803121561186557611864611431565b5b600061187388828901611511565b955050602086013567ffffffffffffffff81111561189457611893611436565b5b6118a08882890161181b565b94505060406118b18882890161145c565b935050606086013567ffffffffffffffff8111156118d2576118d1611436565b5b6118de8882890161181b565b925050608086013567ffffffffffffffff8111156118ff576118fe611436565b5b61190b8882890161181b565b9150509295509295909350565b7f506c65617365207761697420617320456c656374696f6e206973207374696c6c60008201527f206f6e676f696e672e0000000000000000000000000000000000000000000000602082015250565b600061197460298361155e565b915061197f82611918565b604082019050919050565b600060208201905081810360008301526119a381611967565b9050919050565b7f4e487b7100000000000000000000000000000000000000000000000000000000600052603260045260246000fd5b60006040820190506119ee60008301856114d0565b6119fb60208301846115e3565b9392505050565b7f4e487b7100000000000000000000000000000000000000000000000000000000600052602260045260246000fd5b60006002820490506001821680611a4957607f821691505b602082108103611a5c57611a5b611a02565b5b50919050565b7f566f74696e67206973206e6f74206163746976652c20796f752068617665207460008201527f6f2062652070617469656e742e00000000000000000000000000000000000000602082015250565b6000611abe602d8361155e565b9150611ac982611a62565b604082019050919050565b60006020820190508181036000830152611aed81611ab1565b9050919050565b7f596f75206d7573742062652061207265676973746572656420766f7465722e00600082015250565b6000611b2a601f8361155e565b9150611b3582611af4565b602082019050919050565b60006020820190508181036000830152611b5981611b1d565b9050919050565b7f48656c6c6f2074686572652c20796f75206861766520616c726561647920766f60008201527f7465642e00000000000000000000000000000000000000000000000000000000602082015250565b6000611bbc60248361155e565b9150611bc782611b60565b604082019050919050565b60006020820190508181036000830152611beb81611baf565b9050919050565b7f496e76616c696420636f6e74657374616e742c2064696420796f75207265676960008201527f737465723f000000000000000000000000000000000000000000000000000000602082015250565b6000611c4e60258361155e565b9150611c5982611bf2565b604082019050919050565b60006020820190508181036000830152611c7d81611c41565b9050919050565b7f4e487b7100000000000000000000000000000000000000000000000000000000600052601160045260246000fd5b6000611cbe8261143b565b91507fffffffffffffffffffffffffffffffffffffffffffffffffffffffffffffffff8203611cf057611cef611c84565b5b600182019050919050565b6000604082019050611d1060008301856114d0565b611d1d60208301846114d0565b9392505050565b6000611d2f8261143b565b9150611d3a8361143b565b9250828201905080821115611d5257611d51611c84565b5b92915050565b7f5468697320436f6e74657374616e742068617320616c7265616479207265676960008201527f7374657265642e00000000000000000000000000000000000000000000000000602082015250565b6000611db460278361155e565b9150611dbf82611d58565b604082019050919050565b60006020820190508181036000830152611de381611da7565b9050919050565b7f49742069732061206d75737420666f722043616e64696461746520746f20626560008201527f206174206c65617374203335207965617273206f6c642e000000000000000000602082015250565b6000611e4660378361155e565b9150611e5182611dea565b604082019050919050565b60006020820190508181036000830152611e7581611e39565b9050919050565b60008190508160005260206000209050919050565b60006020601f8301049050919050565b600082821b905092915050565b600060088302611ede7fffffffffffffffffffffffffffffffffffffffffffffffffffffffffffffffff82611ea1565b611ee88683611ea1565b95508019841693508086168417925050509392505050565b6000819050919050565b6000611f25611f20611f1b8461143b565b611f00565b61143b565b9050919050565b6000819050919050565b611f3f83611f0a565b611f53611f4b82611f2c565b848454611eae565b825550505050565b600090565b611f68611f5b565b611f73818484611f36565b505050565b5b81811015611f9757611f8c600082611f60565b600181019050611f79565b5050565b601f821115611fdc57611fad81611e7c565b611fb684611e91565b81016020851015611fc5578190505b611fd9611fd185611e91565b830182611f78565b50505b505050565b600082821c905092915050565b6000611fff60001984600802611fe1565b1980831691505092915050565b60006120188383611fee565b9150826002028217905092915050565b61203182611553565b67ffffffffffffffff81111561204a5761204961171e565b5b6120548254611a31565b61205f828285611f9b565b600060209050601f8311600181146120925760008415612080578287015190505b61208a858261200c565b8655506120f2565b601f1984166120a086611e7c565b60005b828110156120c8578489015182556001820191506020850194506020810190506120a3565b868310156120e557848901516120e1601f891682611fee565b8355505b6001600288020188555050505b505050505050565b600060408201905061210f60008301856114d0565b818103602083015261212181846115aa565b90509392505050565b7f496e76616c696420636f6e74657374616e742c2061726520796f75207375726560008201527f20796f7520726567697374657265643f2e000000000000000000000000000000602082015250565b600061218660318361155e565b91506121918261212a565b604082019050919050565b600060208201905081810360008301526121b581612179565b9050919050565b7f4f6f70732c206f6e6c7920616e2061646d696e2063616e20706572666f726d2060008201527f7468697320616374696f6e2e20596f752077616e7420746f206265636f6d652060208201527f616e2061646d696e3f0000000000000000000000000000000000000000000000604082015250565b600061223e60498361155e565b9150612249826121bc565b606082019050919050565b6000602082019050818103600083015261226d81612231565b9050919050565b7f566f74657220697320616c726561647920726567697374657265642e00000000600082015250565b60006122aa601c8361155e565b91506122b582612274565b602082019050919050565b600060208201905081810360008301526122d98161229d565b9050919050565b7f566f746572206d757374206265206174206c656173742031382079656172732060008201527f6f6c642e00000000000000000000000000000000000000000000000000000000602082015250565b600061233c60248361155e565b9150612347826122e0565b604082019050919050565b6000602082019050818103600083015261236b8161232f565b905091905056fea2646970667358221220fb88e5ba3b53dc39b606b90b8737f7b6880c035bd0ec6aab03361e05a823243464736f6c634300081c0033",
      "linkReferences": {},
      "deployedLinkReferences": {}
}