{
  "_format": "hh-sol-artifact-1",
  "contractName": "AreaCalculator",
  "sourceName": "contracts/AreaCalculator.sol",
  "abi": [
    {
      "inputs": [
        {
          "internalType": "uint256",
          "name": "length",
          "type": "uint256"
        },
        {
          "internalType": "uint256",
          "name": "breadth",
          "type": "uint256"
        }
      ],
      "name": "rectangleArea",
      "outputs": [
        {
          "internalType": "uint256",
          "name": "",
          "type": "uint256"
        }
      ],
      "stateMutability": "pure",
      "type": "function"
    },
    {
      "inputs": [
        {
          "internalType": "uint256",
          "name": "side",
          "type": "uint256"
        }
      ],
      "name": "squareArea",
      "outputs": [
        {
          "internalType": "uint256",
          "name": "",
          "type": "uint256"
        }
      ],
      "stateMutability": "pure",
      "type": "function"
    },
    {
      "inputs": [
        {
          "internalType": "uint256",
          "name": "base",
          "type": "uint256"
        },
        {
          "internalType": "uint256",
          "name": "height",
          "type": "uint256"
        }
      ],
      "name": "triangleArea",
      "outputs": [
        {
          "internalType": "uint256",
          "name": "",
          "type": "uint256"
        }
      ],
      "stateMutability": "pure",
      "type": "function"
    }
  ],
  "bytecode": "0x6080604052348015600f57600080fd5b5061057b8061001f6000396000f3fe608060405234801561001057600080fd5b50600436106100415760003560e01c80630fbc671e146100465780637f6f92ed14610076578063f0d584f4146100a6575b600080fd5b610060600480360381019061005b919061023c565b6100d6565b60405161006d9190610278565b60405180910390f35b610090600480360381019061008b9190610293565b61012d565b60405161009d9190610278565b60405180910390f35b6100c060048036038101906100bb9190610293565b610191565b6040516100cd9190610278565b60405180910390f35b600080821161011a576040517f08c379a000000000000000000000000000000000000000000000000000000000815260040161011190610330565b60405180910390fd5b8182610126919061037f565b9050919050565b6000808311801561013e5750600082115b61017d576040517f08c379a000000000000000000000000000000000000000000000000000000000815260040161017490610433565b60405180910390fd5b8183610189919061037f565b905092915050565b600080831180156101a25750600082115b6101e1576040517f08c379a00000000000000000000000000000000000000000000000000000000081526004016101d8906104c5565b60405180910390fd5b600282846101ef919061037f565b6101f99190610514565b905092915050565b600080fd5b6000819050919050565b61021981610206565b811461022457600080fd5b50565b60008135905061023681610210565b92915050565b60006020828403121561025257610251610201565b5b600061026084828501610227565b91505092915050565b61027281610206565b82525050565b600060208201905061028d6000830184610269565b92915050565b600080604083850312156102aa576102a9610201565b5b60006102b885828601610227565b92505060206102c985828601610227565b9150509250929050565b600082825260208201905092915050565b7f53696465206d7573742062652067726561746572207468616e207a65726f0000600082015250565b600061031a601e836102d3565b9150610325826102e4565b602082019050919050565b600060208201905081810360008301526103498161030d565b9050919050565b7f4e487b7100000000000000000000000000000000000000000000000000000000600052601160045260246000fd5b600061038a82610206565b915061039583610206565b92508282026103a381610206565b915082820484148315176103ba576103b9610350565b5b5092915050565b7f4c656e67746820616e642062726561647468206d75737420626520677265617460008201527f6572207468616e207a65726f0000000000000000000000000000000000000000602082015250565b600061041d602c836102d3565b9150610428826103c1565b604082019050919050565b6000602082019050818103600083015261044c81610410565b9050919050565b7f4261736520616e6420686569676874206d75737420626520677265617465722060008201527f7468616e207a65726f0000000000000000000000000000000000000000000000602082015250565b60006104af6029836102d3565b91506104ba82610453565b604082019050919050565b600060208201905081810360008301526104de816104a2565b9050919050565b7f4e487b7100000000000000000000000000000000000000000000000000000000600052601260045260246000fd5b600061051f82610206565b915061052a83610206565b92508261053a576105396104e5565b5b82820490509291505056fea2646970667358221220282403515f28ed0a07e6c98c180f0e223ccc4207ec10e35acbe7454d922f8ee764736f6c634300081c0033",
  "linkReferences": {},
  "deployedLinkReferences": {}
}