{
  "_format": "hh-sol-artifact-1",
  "contractName": "Airdrop",
  "sourceName": "contracts/Airdrop.sol",
  "abi": [
    {
      "inputs": [
        {
          "internalType": "address",
          "name": "_token",
          "type": "address"
        },
        {
          "internalType": "bytes32",
          "name": "_merkleRoot",
          "type": "bytes32"
        },
        {
          "internalType": "uint256",
          "name": "_claimAmount",
          "type": "uint256"
        }
      ],
      "stateMutability": "nonpayable",
      "type": "constructor"
    },
    {
      "inputs": [
        {
          "internalType": "address",
          "name": "owner",
          "type": "address"
        }
      ],
      "name": "OwnableInvalidOwner",
      "type": "error"
    },
    {
      "inputs": [
        {
          "internalType": "address",
          "name": "account",
          "type": "address"
        }
      ],
      "name": "OwnableUnauthorizedAccount",
      "type": "error"
    },
    {
      "anonymous": false,
      "inputs": [
        {
          "indexed": true,
          "internalType": "address",
          "name": "account",
          "type": "address"
        },
        {
          "indexed": false,
          "internalType": "uint256",
          "name": "amount",
          "type": "uint256"
        }
      ],
      "name": "AirdropClaimed",
      "type": "event"
    },
    {
      "anonymous": false,
      "inputs": [
        {
          "indexed": true,
          "internalType": "address",
          "name": "previousOwner",
          "type": "address"
        },
        {
          "indexed": true,
          "internalType": "address",
          "name": "newOwner",
          "type": "address"
        }
      ],
      "name": "OwnershipTransferred",
      "type": "event"
    },
    {
      "inputs": [
        {
          "internalType": "bytes32[]",
          "name": "merkleProof",
          "type": "bytes32[]"
        }
      ],
      "name": "claim",
      "outputs": [],
      "stateMutability": "nonpayable",
      "type": "function"
    },
    {
      "inputs": [],
      "name": "claimAmount",
      "outputs": [
        {
          "internalType": "uint256",
          "name": "",
          "type": "uint256"
        }
      ],
      "stateMutability": "view",
      "type": "function"
    },
    {
      "inputs": [
        {
          "internalType": "address",
          "name": "",
          "type": "address"
        }
      ],
      "name": "hasClaimed",
      "outputs": [
        {
          "internalType": "bool",
          "name": "",
          "type": "bool"
        }
      ],
      "stateMutability": "view",
      "type": "function"
    },
    {
      "inputs": [],
      "name": "merkleRoot",
      "outputs": [
        {
          "internalType": "bytes32",
          "name": "",
          "type": "bytes32"
        }
      ],
      "stateMutability": "view",
      "type": "function"
    },
    {
      "inputs": [],
      "name": "owner",
      "outputs": [
        {
          "internalType": "address",
          "name": "",
          "type": "address"
        }
      ],
      "stateMutability": "view",
      "type": "function"
    },
    {
      "inputs": [],
      "name": "renounceOwnership",
      "outputs": [],
      "stateMutability": "nonpayable",
      "type": "function"
    },
    {
      "inputs": [],
      "name": "token",
      "outputs": [
        {
          "internalType": "contract IERC20",
          "name": "",
          "type": "address"
        }
      ],
      "stateMutability": "view",
      "type": "function"
    },
    {
      "inputs": [
        {
          "internalType": "address",
          "name": "newOwner",
          "type": "address"
        }
      ],
      "name": "transferOwnership",
      "outputs": [],
      "stateMutability": "nonpayable",
      "type": "function"
    },
    {
      "inputs": [
        {
          "internalType": "uint256",
          "name": "_claimAmount",
          "type": "uint256"
        }
      ],
      "name": "updateClaimedAmount",
      "outputs": [],
      "stateMutability": "nonpayable",
      "type": "function"
    },
    {
      "inputs": [
        {
          "internalType": "bytes32",
          "name": "_merkleRoot",
          "type": "bytes32"
        }
      ],
      "name": "updateMerkleRoot",
      "outputs": [],
      "stateMutability": "nonpayable",
      "type": "function"
    },
    {
      "inputs": [],
      "name": "withdrawUnclaimedTokens",
      "outputs": [],
      "stateMutability": "nonpayable",
      "type": "function"
    }
  ],
  "bytecode": "0x608060405234801561001057600080fd5b506040516113503803806113508339818101604052810190610032919061029f565b33600073ffffffffffffffffffffffffffffffffffffffff168173ffffffffffffffffffffffffffffffffffffffff16036100a55760006040517f1e4fbdf700000000000000000000000000000000000000000000000000000000815260040161009c9190610301565b60405180910390fd5b6100b48161010c60201b60201c565b5082600160006101000a81548173ffffffffffffffffffffffffffffffffffffffff021916908373ffffffffffffffffffffffffffffffffffffffff160217905550816002819055508060038190555050505061031c565b60008060009054906101000a900473ffffffffffffffffffffffffffffffffffffffff169050816000806101000a81548173ffffffffffffffffffffffffffffffffffffffff021916908373ffffffffffffffffffffffffffffffffffffffff1602179055508173ffffffffffffffffffffffffffffffffffffffff168173ffffffffffffffffffffffffffffffffffffffff167f8be0079c531659141344cd1fd0a4f28419497f9722a3daafe3b4186f6b6457e060405160405180910390a35050565b600080fd5b600073ffffffffffffffffffffffffffffffffffffffff82169050919050565b6000610200826101d5565b9050919050565b610210816101f5565b811461021b57600080fd5b50565b60008151905061022d81610207565b92915050565b6000819050919050565b61024681610233565b811461025157600080fd5b50565b6000815190506102638161023d565b92915050565b6000819050919050565b61027c81610269565b811461028757600080fd5b50565b60008151905061029981610273565b92915050565b6000806000606084860312156102b8576102b76101d0565b5b60006102c68682870161021e565b93505060206102d786828701610254565b92505060406102e88682870161028a565b9150509250925092565b6102fb816101f5565b82525050565b600060208201905061031660008301846102f2565b92915050565b6110258061032b6000396000f3fe608060405234801561001057600080fd5b50600436106100a95760003560e01c806373b2e80e1161007157806373b2e80e14610118578063830953ab146101485780638da5cb5b14610166578063b391c50814610184578063f2fde38b146101a0578063fc0c546a146101bc576100a9565b80632eb4a7ab146100ae5780634783f0ef146100cc5780634fad1883146100e857806355162a23146100f2578063715018a61461010e575b600080fd5b6100b66101da565b6040516100c39190610990565b60405180910390f35b6100e660048036038101906100e191906109e1565b6101e0565b005b6100f06101f2565b005b61010c60048036038101906101079190610a44565b610383565b005b610116610395565b005b610132600480360381019061012d9190610acf565b6103a9565b60405161013f9190610b17565b60405180910390f35b6101506103c9565b60405161015d9190610b41565b60405180910390f35b61016e6103cf565b60405161017b9190610b6b565b60405180910390f35b61019e60048036038101906101999190610beb565b6103f8565b005b6101ba60048036038101906101b59190610acf565b6106cf565b005b6101c4610755565b6040516101d19190610c97565b60405180910390f35b60025481565b6101e861077b565b8060028190555050565b6101fa61077b565b6000600160009054906101000a900473ffffffffffffffffffffffffffffffffffffffff1673ffffffffffffffffffffffffffffffffffffffff166370a08231306040518263ffffffff1660e01b81526004016102579190610b6b565b602060405180830381865afa158015610274573d6000803e3d6000fd5b505050506040513d601f19601f820116820180604052508101906102989190610cc7565b9050600160009054906101000a900473ffffffffffffffffffffffffffffffffffffffff1673ffffffffffffffffffffffffffffffffffffffff1663a9059cbb6102e06103cf565b836040518363ffffffff1660e01b81526004016102fe929190610cf4565b6020604051808303816000875af115801561031d573d6000803e3d6000fd5b505050506040513d601f19601f820116820180604052508101906103419190610d49565b610380576040517f08c379a000000000000000000000000000000000000000000000000000000000815260040161037790610dd3565b60405180910390fd5b50565b61038b61077b565b8060038190555050565b61039d61077b565b6103a76000610802565b565b60046020528060005260406000206000915054906101000a900460ff1681565b60035481565b60008060009054906101000a900473ffffffffffffffffffffffffffffffffffffffff16905090565b600460003373ffffffffffffffffffffffffffffffffffffffff1673ffffffffffffffffffffffffffffffffffffffff16815260200190815260200160002060009054906101000a900460ff1615610485576040517f08c379a000000000000000000000000000000000000000000000000000000000815260040161047c90610e65565b60405180910390fd5b6000600354905060003360405160200161049f9190610ecd565b604051602081830303815290604052805190602001209050610505848480806020026020016040519081016040528093929190818152602001838360200280828437600081840152601f19601f82011690508083019250505050505050600254836108c6565b610544576040517f08c379a000000000000000000000000000000000000000000000000000000000815260040161053b90610f34565b60405180910390fd5b6001600460003373ffffffffffffffffffffffffffffffffffffffff1673ffffffffffffffffffffffffffffffffffffffff16815260200190815260200160002060006101000a81548160ff021916908315150217905550600160009054906101000a900473ffffffffffffffffffffffffffffffffffffffff1673ffffffffffffffffffffffffffffffffffffffff1663a9059cbb33846040518363ffffffff1660e01b81526004016105f9929190610cf4565b6020604051808303816000875af1158015610618573d6000803e3d6000fd5b505050506040513d601f19601f8201168201806040525081019061063c9190610d49565b61067b576040517f08c379a000000000000000000000000000000000000000000000000000000000815260040161067290610fa0565b60405180910390fd5b3373ffffffffffffffffffffffffffffffffffffffff167f650e45f04ef8a0c267b2f78d983913f69ae3a353b2b32de5429307522be0ab55836040516106c19190610b41565b60405180910390a250505050565b6106d761077b565b600073ffffffffffffffffffffffffffffffffffffffff168173ffffffffffffffffffffffffffffffffffffffff16036107495760006040517f1e4fbdf70000000000000000000000000000000000000000000000000000000081526004016107409190610b6b565b60405180910390fd5b61075281610802565b50565b600160009054906101000a900473ffffffffffffffffffffffffffffffffffffffff1681565b6107836108dd565b73ffffffffffffffffffffffffffffffffffffffff166107a16103cf565b73ffffffffffffffffffffffffffffffffffffffff1614610800576107c46108dd565b6040517f118cdaa70000000000000000000000000000000000000000000000000000000081526004016107f79190610b6b565b60405180910390fd5b565b60008060009054906101000a900473ffffffffffffffffffffffffffffffffffffffff169050816000806101000a81548173ffffffffffffffffffffffffffffffffffffffff021916908373ffffffffffffffffffffffffffffffffffffffff1602179055508173ffffffffffffffffffffffffffffffffffffffff168173ffffffffffffffffffffffffffffffffffffffff167f8be0079c531659141344cd1fd0a4f28419497f9722a3daafe3b4186f6b6457e060405160405180910390a35050565b6000826108d385846108e5565b1490509392505050565b600033905090565b60008082905060005b845181101561092a5761091b8286838151811061090e5761090d610fc0565b5b6020026020010151610935565b915080806001019150506108ee565b508091505092915050565b600081831061094d576109488284610960565b610958565b6109578383610960565b5b905092915050565b600082600052816020526040600020905092915050565b6000819050919050565b61098a81610977565b82525050565b60006020820190506109a56000830184610981565b92915050565b600080fd5b600080fd5b6109be81610977565b81146109c957600080fd5b50565b6000813590506109db816109b5565b92915050565b6000602082840312156109f7576109f66109ab565b5b6000610a05848285016109cc565b91505092915050565b6000819050919050565b610a2181610a0e565b8114610a2c57600080fd5b50565b600081359050610a3e81610a18565b92915050565b600060208284031215610a5a57610a596109ab565b5b6000610a6884828501610a2f565b91505092915050565b600073ffffffffffffffffffffffffffffffffffffffff82169050919050565b6000610a9c82610a71565b9050919050565b610aac81610a91565b8114610ab757600080fd5b50565b600081359050610ac981610aa3565b92915050565b600060208284031215610ae557610ae46109ab565b5b6000610af384828501610aba565b91505092915050565b60008115159050919050565b610b1181610afc565b82525050565b6000602082019050610b2c6000830184610b08565b92915050565b610b3b81610a0e565b82525050565b6000602082019050610b566000830184610b32565b92915050565b610b6581610a91565b82525050565b6000602082019050610b806000830184610b5c565b92915050565b600080fd5b600080fd5b600080fd5b60008083601f840112610bab57610baa610b86565b5b8235905067ffffffffffffffff811115610bc857610bc7610b8b565b5b602083019150836020820283011115610be457610be3610b90565b5b9250929050565b60008060208385031215610c0257610c016109ab565b5b600083013567ffffffffffffffff811115610c2057610c1f6109b0565b5b610c2c85828601610b95565b92509250509250929050565b6000819050919050565b6000610c5d610c58610c5384610a71565b610c38565b610a71565b9050919050565b6000610c6f82610c42565b9050919050565b6000610c8182610c64565b9050919050565b610c9181610c76565b82525050565b6000602082019050610cac6000830184610c88565b92915050565b600081519050610cc181610a18565b92915050565b600060208284031215610cdd57610cdc6109ab565b5b6000610ceb84828501610cb2565b91505092915050565b6000604082019050610d096000830185610b5c565b610d166020830184610b32565b9392505050565b610d2681610afc565b8114610d3157600080fd5b50565b600081519050610d4381610d1d565b92915050565b600060208284031215610d5f57610d5e6109ab565b5b6000610d6d84828501610d34565b91505092915050565b600082825260208201905092915050565b7f5769746864726177616c206661696c6564000000000000000000000000000000600082015250565b6000610dbd601183610d76565b9150610dc882610d87565b602082019050919050565b60006020820190508181036000830152610dec81610db0565b9050919050565b7f596f75206861766520616c726561647920636c61696d6564207468652061697260008201527f64726f7000000000000000000000000000000000000000000000000000000000602082015250565b6000610e4f602483610d76565b9150610e5a82610df3565b604082019050919050565b60006020820190508181036000830152610e7e81610e42565b9050919050565b60008160601b9050919050565b6000610e9d82610e85565b9050919050565b6000610eaf82610e92565b9050919050565b610ec7610ec282610a91565b610ea4565b82525050565b6000610ed98284610eb6565b60148201915081905092915050565b7f41697264726f703a20496e76616c69642070726f6f6600000000000000000000600082015250565b6000610f1e601683610d76565b9150610f2982610ee8565b602082019050919050565b60006020820190508181036000830152610f4d81610f11565b9050919050565b7f41697264726f703a205472616e73666572206661696c65640000000000000000600082015250565b6000610f8a601883610d76565b9150610f9582610f54565b602082019050919050565b60006020820190508181036000830152610fb981610f7d565b9050919050565b7f4e487b7100000000000000000000000000000000000000000000000000000000600052603260045260246000fdfea264697066735822122035773f15d336b8f19e27ed2e32085617b8e5f15b9e334c9602e5397ef8b8bc8664736f6c634300081c0033",
  "linkReferences": {},
  "deployedLinkReferences": {}
}