{
  "_format": "hh-sol-artifact-1",
  "contractName": "ChiefAirdrop",
  "sourceName": "contracts/ChiefAirdrop.sol",
  "abi": [
    {
      "inputs": [
        {
          "internalType": "address",
          "name": "_token",
          "type": "address"
        },
        {
          "internalType": "bytes32",
          "name": "_merkleRoot",
          "type": "bytes32"
        },
        {
          "internalType": "uint256",
          "name": "_claimAmount",
          "type": "uint256"
        }
      ],
      "stateMutability": "nonpayable",
      "type": "constructor"
    },
    {
      "inputs": [
        {
          "internalType": "address",
          "name": "owner",
          "type": "address"
        }
      ],
      "name": "OwnableInvalidOwner",
      "type": "error"
    },
    {
      "inputs": [
        {
          "internalType": "address",
          "name": "account",
          "type": "address"
        }
      ],
      "name": "OwnableUnauthorizedAccount",
      "type": "error"
    },
    {
      "anonymous": false,
      "inputs": [
        {
          "indexed": true,
          "internalType": "address",
          "name": "account",
          "type": "address"
        },
        {
          "indexed": false,
          "internalType": "uint256",
          "name": "amount",
          "type": "uint256"
        }
      ],
      "name": "AirdropClaimed",
      "type": "event"
    },
    {
      "anonymous": false,
      "inputs": [
        {
          "indexed": true,
          "internalType": "address",
          "name": "previousOwner",
          "type": "address"
        },
        {
          "indexed": true,
          "internalType": "address",
          "name": "newOwner",
          "type": "address"
        }
      ],
      "name": "OwnershipTransferred",
      "type": "event"
    },
    {
      "inputs": [
        {
          "internalType": "bytes32[]",
          "name": "merkleProof",
          "type": "bytes32[]"
        },
        {
          "internalType": "address",
          "name": "_addr",
          "type": "address"
        },
        {
          "internalType": "uint256",
          "name": "_amount",
          "type": "uint256"
        }
      ],
      "name": "claim",
      "outputs": [],
      "stateMutability": "nonpayable",
      "type": "function"
    },
    {
      "inputs": [],
      "name": "claimAmount",
      "outputs": [
        {
          "internalType": "uint256",
          "name": "",
          "type": "uint256"
        }
      ],
      "stateMutability": "view",
      "type": "function"
    },
    {
      "inputs": [
        {
          "internalType": "address",
          "name": "",
          "type": "address"
        }
      ],
      "name": "hasClaimed",
      "outputs": [
        {
          "internalType": "bool",
          "name": "",
          "type": "bool"
        }
      ],
      "stateMutability": "view",
      "type": "function"
    },
    {
      "inputs": [],
      "name": "owner",
      "outputs": [
        {
          "internalType": "address",
          "name": "",
          "type": "address"
        }
      ],
      "stateMutability": "view",
      "type": "function"
    },
    {
      "inputs": [],
      "name": "renounceOwnership",
      "outputs": [],
      "stateMutability": "nonpayable",
      "type": "function"
    },
    {
      "inputs": [],
      "name": "token",
      "outputs": [
        {
          "internalType": "contract IERC20",
          "name": "",
          "type": "address"
        }
      ],
      "stateMutability": "view",
      "type": "function"
    },
    {
      "inputs": [
        {
          "internalType": "address",
          "name": "newOwner",
          "type": "address"
        }
      ],
      "name": "transferOwnership",
      "outputs": [],
      "stateMutability": "nonpayable",
      "type": "function"
    },
    {
      "inputs": [
        {
          "internalType": "uint256",
          "name": "_claimAmount",
          "type": "uint256"
        }
      ],
      "name": "updateClaimedAmount",
      "outputs": [],
      "stateMutability": "nonpayable",
      "type": "function"
    },
    {
      "inputs": [
        {
          "internalType": "bytes32",
          "name": "_merkleRoot",
          "type": "bytes32"
        }
      ],
      "name": "updateMerkleRoot",
      "outputs": [],
      "stateMutability": "nonpayable",
      "type": "function"
    },
    {
      "inputs": [],
      "name": "withdrawUnclaimedTokens",
      "outputs": [],
      "stateMutability": "nonpayable",
      "type": "function"
    }
  ],
  "bytecode": "0x608060405234801561001057600080fd5b506040516113d03803806113d08339818101604052810190610032919061029f565b33600073ffffffffffffffffffffffffffffffffffffffff168173ffffffffffffffffffffffffffffffffffffffff16036100a55760006040517f1e4fbdf700000000000000000000000000000000000000000000000000000000815260040161009c9190610301565b60405180910390fd5b6100b48161010c60201b60201c565b5082600160006101000a81548173ffffffffffffffffffffffffffffffffffffffff021916908373ffffffffffffffffffffffffffffffffffffffff160217905550816002819055508060038190555050505061031c565b60008060009054906101000a900473ffffffffffffffffffffffffffffffffffffffff169050816000806101000a81548173ffffffffffffffffffffffffffffffffffffffff021916908373ffffffffffffffffffffffffffffffffffffffff1602179055508173ffffffffffffffffffffffffffffffffffffffff168173ffffffffffffffffffffffffffffffffffffffff167f8be0079c531659141344cd1fd0a4f28419497f9722a3daafe3b4186f6b6457e060405160405180910390a35050565b600080fd5b600073ffffffffffffffffffffffffffffffffffffffff82169050919050565b6000610200826101d5565b9050919050565b610210816101f5565b811461021b57600080fd5b50565b60008151905061022d81610207565b92915050565b6000819050919050565b61024681610233565b811461025157600080fd5b50565b6000815190506102638161023d565b92915050565b6000819050919050565b61027c81610269565b811461028757600080fd5b50565b60008151905061029981610273565b92915050565b6000806000606084860312156102b8576102b76101d0565b5b60006102c68682870161021e565b93505060206102d786828701610254565b92505060406102e88682870161028a565b9150509250925092565b6102fb816101f5565b82525050565b600060208201905061031660008301846102f2565b92915050565b6110a58061032b6000396000f3fe608060405234801561001057600080fd5b506004361061009e5760003560e01c8063830953ab11610066578063830953ab1461011f5780638da5cb5b1461013d578063ca21b1771461015b578063f2fde38b14610177578063fc0c546a146101935761009e565b80634783f0ef146100a35780634fad1883146100bf57806355162a23146100c9578063715018a6146100e557806373b2e80e146100ef575b600080fd5b6100bd60048036038101906100b89190610972565b6101b1565b005b6100c76101c3565b005b6100e360048036038101906100de91906109d5565b610354565b005b6100ed610366565b005b61010960048036038101906101049190610a60565b61037a565b6040516101169190610aa8565b60405180910390f35b61012761039a565b6040516101349190610ad2565b60405180910390f35b6101456103a0565b6040516101529190610afc565b60405180910390f35b61017560048036038101906101709190610c70565b6103c9565b005b610191600480360381019061018c9190610a60565b610680565b005b61019b610706565b6040516101a89190610d3e565b60405180910390f35b6101b961072c565b8060028190555050565b6101cb61072c565b6000600160009054906101000a900473ffffffffffffffffffffffffffffffffffffffff1673ffffffffffffffffffffffffffffffffffffffff166370a08231306040518263ffffffff1660e01b81526004016102289190610afc565b602060405180830381865afa158015610245573d6000803e3d6000fd5b505050506040513d601f19601f820116820180604052508101906102699190610d6e565b9050600160009054906101000a900473ffffffffffffffffffffffffffffffffffffffff1673ffffffffffffffffffffffffffffffffffffffff1663a9059cbb6102b16103a0565b836040518363ffffffff1660e01b81526004016102cf929190610d9b565b6020604051808303816000875af11580156102ee573d6000803e3d6000fd5b505050506040513d601f19601f820116820180604052508101906103129190610df0565b610351576040517f08c379a000000000000000000000000000000000000000000000000000000000815260040161034890610e7a565b60405180910390fd5b50565b61035c61072c565b8060038190555050565b61036e61072c565b61037860006107b3565b565b60046020528060005260406000206000915054906101000a900460ff1681565b60035481565b60008060009054906101000a900473ffffffffffffffffffffffffffffffffffffffff16905090565b600460003373ffffffffffffffffffffffffffffffffffffffff1673ffffffffffffffffffffffffffffffffffffffff16815260200190815260200160002060009054906101000a900460ff1615610456576040517f08c379a000000000000000000000000000000000000000000000000000000000815260040161044d90610f0c565b60405180910390fd5b6000828260405160200161046b929190610d9b565b604051602081830303815290604052805190602001206040516020016104919190610f4d565b6040516020818303038152906040528051906020012090506104b68460025483610877565b6104f5576040517f08c379a00000000000000000000000000000000000000000000000000000000081526004016104ec90610fb4565b60405180910390fd5b6001600460003373ffffffffffffffffffffffffffffffffffffffff1673ffffffffffffffffffffffffffffffffffffffff16815260200190815260200160002060006101000a81548160ff021916908315150217905550600160009054906101000a900473ffffffffffffffffffffffffffffffffffffffff1673ffffffffffffffffffffffffffffffffffffffff1663a9059cbb33846040518363ffffffff1660e01b81526004016105aa929190610d9b565b6020604051808303816000875af11580156105c9573d6000803e3d6000fd5b505050506040513d601f19601f820116820180604052508101906105ed9190610df0565b61062c576040517f08c379a000000000000000000000000000000000000000000000000000000000815260040161062390611020565b60405180910390fd5b3373ffffffffffffffffffffffffffffffffffffffff167f650e45f04ef8a0c267b2f78d983913f69ae3a353b2b32de5429307522be0ab55836040516106729190610ad2565b60405180910390a250505050565b61068861072c565b600073ffffffffffffffffffffffffffffffffffffffff168173ffffffffffffffffffffffffffffffffffffffff16036106fa5760006040517f1e4fbdf70000000000000000000000000000000000000000000000000000000081526004016106f19190610afc565b60405180910390fd5b610703816107b3565b50565b600160009054906101000a900473ffffffffffffffffffffffffffffffffffffffff1681565b61073461088e565b73ffffffffffffffffffffffffffffffffffffffff166107526103a0565b73ffffffffffffffffffffffffffffffffffffffff16146107b15761077561088e565b6040517f118cdaa70000000000000000000000000000000000000000000000000000000081526004016107a89190610afc565b60405180910390fd5b565b60008060009054906101000a900473ffffffffffffffffffffffffffffffffffffffff169050816000806101000a81548173ffffffffffffffffffffffffffffffffffffffff021916908373ffffffffffffffffffffffffffffffffffffffff1602179055508173ffffffffffffffffffffffffffffffffffffffff168173ffffffffffffffffffffffffffffffffffffffff167f8be0079c531659141344cd1fd0a4f28419497f9722a3daafe3b4186f6b6457e060405160405180910390a35050565b6000826108848584610896565b1490509392505050565b600033905090565b60008082905060005b84518110156108db576108cc828683815181106108bf576108be611040565b5b60200260200101516108e6565b9150808060010191505061089f565b508091505092915050565b60008183106108fe576108f98284610911565b610909565b6109088383610911565b5b905092915050565b600082600052816020526040600020905092915050565b6000604051905090565b600080fd5b600080fd5b6000819050919050565b61094f8161093c565b811461095a57600080fd5b50565b60008135905061096c81610946565b92915050565b60006020828403121561098857610987610932565b5b60006109968482850161095d565b91505092915050565b6000819050919050565b6109b28161099f565b81146109bd57600080fd5b50565b6000813590506109cf816109a9565b92915050565b6000602082840312156109eb576109ea610932565b5b60006109f9848285016109c0565b91505092915050565b600073ffffffffffffffffffffffffffffffffffffffff82169050919050565b6000610a2d82610a02565b9050919050565b610a3d81610a22565b8114610a4857600080fd5b50565b600081359050610a5a81610a34565b92915050565b600060208284031215610a7657610a75610932565b5b6000610a8484828501610a4b565b91505092915050565b60008115159050919050565b610aa281610a8d565b82525050565b6000602082019050610abd6000830184610a99565b92915050565b610acc8161099f565b82525050565b6000602082019050610ae76000830184610ac3565b92915050565b610af681610a22565b82525050565b6000602082019050610b116000830184610aed565b92915050565b600080fd5b6000601f19601f8301169050919050565b7f4e487b7100000000000000000000000000000000000000000000000000000000600052604160045260246000fd5b610b6582610b1c565b810181811067ffffffffffffffff82111715610b8457610b83610b2d565b5b80604052505050565b6000610b97610928565b9050610ba38282610b5c565b919050565b600067ffffffffffffffff821115610bc357610bc2610b2d565b5b602082029050602081019050919050565b600080fd5b6000610bec610be784610ba8565b610b8d565b90508083825260208201905060208402830185811115610c0f57610c0e610bd4565b5b835b81811015610c385780610c24888261095d565b845260208401935050602081019050610c11565b5050509392505050565b600082601f830112610c5757610c56610b17565b5b8135610c67848260208601610bd9565b91505092915050565b600080600060608486031215610c8957610c88610932565b5b600084013567ffffffffffffffff811115610ca757610ca6610937565b5b610cb386828701610c42565b9350506020610cc486828701610a4b565b9250506040610cd5868287016109c0565b9150509250925092565b6000819050919050565b6000610d04610cff610cfa84610a02565b610cdf565b610a02565b9050919050565b6000610d1682610ce9565b9050919050565b6000610d2882610d0b565b9050919050565b610d3881610d1d565b82525050565b6000602082019050610d536000830184610d2f565b92915050565b600081519050610d68816109a9565b92915050565b600060208284031215610d8457610d83610932565b5b6000610d9284828501610d59565b91505092915050565b6000604082019050610db06000830185610aed565b610dbd6020830184610ac3565b9392505050565b610dcd81610a8d565b8114610dd857600080fd5b50565b600081519050610dea81610dc4565b92915050565b600060208284031215610e0657610e05610932565b5b6000610e1484828501610ddb565b91505092915050565b600082825260208201905092915050565b7f5769746864726177616c206661696c6564000000000000000000000000000000600082015250565b6000610e64601183610e1d565b9150610e6f82610e2e565b602082019050919050565b60006020820190508181036000830152610e9381610e57565b9050919050565b7f596f75206861766520616c726561647920636c61696d6564207468652061697260008201527f64726f7000000000000000000000000000000000000000000000000000000000602082015250565b6000610ef6602483610e1d565b9150610f0182610e9a565b604082019050919050565b60006020820190508181036000830152610f2581610ee9565b9050919050565b6000819050919050565b610f47610f428261093c565b610f2c565b82525050565b6000610f598284610f36565b60208201915081905092915050565b7f496e76616c69642070726f6f6600000000000000000000000000000000000000600082015250565b6000610f9e600d83610e1d565b9150610fa982610f68565b602082019050919050565b60006020820190508181036000830152610fcd81610f91565b9050919050565b7f41697264726f703a205472616e73666572206661696c65640000000000000000600082015250565b600061100a601883610e1d565b915061101582610fd4565b602082019050919050565b6000602082019050818103600083015261103981610ffd565b9050919050565b7f4e487b7100000000000000000000000000000000000000000000000000000000600052603260045260246000fdfea2646970667358221220f05a2647771eff387e18b037a92aa64b17b88a87b8ee19055dffb122759b69c664736f6c634300081c0033",
  "linkReferences": {},
  "deployedLinkReferences": {}
}