{
  "_format": "hh-sol-artifact-1",
  "contractName": "Airdrop",
  "sourceName": "contracts/Airdrop.sol",
  "abi": [
    {
      "inputs": [
        {
          "internalType": "address",
          "name": "_token",
          "type": "address"
        },
        {
          "internalType": "bytes32",
          "name": "_merkleRoot",
          "type": "bytes32"
        },
        {
          "internalType": "uint256",
          "name": "_claimAmount",
          "type": "uint256"
        }
      ],
      "stateMutability": "nonpayable",
      "type": "constructor"
    },
    {
      "inputs": [
        {
          "internalType": "address",
          "name": "owner",
          "type": "address"
        }
      ],
      "name": "OwnableInvalidOwner",
      "type": "error"
    },
    {
      "inputs": [
        {
          "internalType": "address",
          "name": "account",
          "type": "address"
        }
      ],
      "name": "OwnableUnauthorizedAccount",
      "type": "error"
    },
    {
      "anonymous": false,
      "inputs": [
        {
          "indexed": false,
          "internalType": "uint256",
          "name": "newClaimAmount",
          "type": "uint256"
        }
      ],
      "name": "ClaimAmountUpdated",
      "type": "event"
    },
    {
      "anonymous": false,
      "inputs": [
        {
          "indexed": false,
          "internalType": "bytes32",
          "name": "newMerkleRoot",
          "type": "bytes32"
        }
      ],
      "name": "MerkleRootUpdated",
      "type": "event"
    },
    {
      "anonymous": false,
      "inputs": [
        {
          "indexed": true,
          "internalType": "address",
          "name": "previousOwner",
          "type": "address"
        },
        {
          "indexed": true,
          "internalType": "address",
          "name": "newOwner",
          "type": "address"
        }
      ],
      "name": "OwnershipTransferred",
      "type": "event"
    },
    {
      "anonymous": false,
      "inputs": [
        {
          "indexed": true,
          "internalType": "address",
          "name": "account",
          "type": "address"
        },
        {
          "indexed": false,
          "internalType": "uint256",
          "name": "amount",
          "type": "uint256"
        }
      ],
      "name": "TokensClaimed",
      "type": "event"
    },
    {
      "anonymous": false,
      "inputs": [
        {
          "indexed": true,
          "internalType": "address",
          "name": "to",
          "type": "address"
        },
        {
          "indexed": false,
          "internalType": "uint256",
          "name": "amount",
          "type": "uint256"
        }
      ],
      "name": "TokensWithdrawn",
      "type": "event"
    },
    {
      "inputs": [
        {
          "internalType": "bytes32[]",
          "name": "merkleProof",
          "type": "bytes32[]"
        }
      ],
      "name": "claim",
      "outputs": [],
      "stateMutability": "nonpayable",
      "type": "function"
    },
    {
      "inputs": [],
      "name": "claimAmount",
      "outputs": [
        {
          "internalType": "uint256",
          "name": "",
          "type": "uint256"
        }
      ],
      "stateMutability": "view",
      "type": "function"
    },
    {
      "inputs": [
        {
          "internalType": "address",
          "name": "",
          "type": "address"
        }
      ],
      "name": "hasClaimed",
      "outputs": [
        {
          "internalType": "bool",
          "name": "",
          "type": "bool"
        }
      ],
      "stateMutability": "view",
      "type": "function"
    },
    {
      "inputs": [
        {
          "internalType": "address",
          "name": "account",
          "type": "address"
        },
        {
          "internalType": "bytes32[]",
          "name": "merkleProof",
          "type": "bytes32[]"
        }
      ],
      "name": "isEligible",
      "outputs": [
        {
          "internalType": "bool",
          "name": "",
          "type": "bool"
        }
      ],
      "stateMutability": "view",
      "type": "function"
    },
    {
      "inputs": [],
      "name": "merkleRoot",
      "outputs": [
        {
          "internalType": "bytes32",
          "name": "",
          "type": "bytes32"
        }
      ],
      "stateMutability": "view",
      "type": "function"
    },
    {
      "inputs": [],
      "name": "owner",
      "outputs": [
        {
          "internalType": "address",
          "name": "",
          "type": "address"
        }
      ],
      "stateMutability": "view",
      "type": "function"
    },
    {
      "inputs": [],
      "name": "renounceOwnership",
      "outputs": [],
      "stateMutability": "nonpayable",
      "type": "function"
    },
    {
      "inputs": [],
      "name": "token",
      "outputs": [
        {
          "internalType": "contract IERC20",
          "name": "",
          "type": "address"
        }
      ],
      "stateMutability": "view",
      "type": "function"
    },
    {
      "inputs": [
        {
          "internalType": "address",
          "name": "newOwner",
          "type": "address"
        }
      ],
      "name": "transferOwnership",
      "outputs": [],
      "stateMutability": "nonpayable",
      "type": "function"
    },
    {
      "inputs": [
        {
          "internalType": "uint256",
          "name": "_claimAmount",
          "type": "uint256"
        }
      ],
      "name": "updateClaimAmount",
      "outputs": [],
      "stateMutability": "nonpayable",
      "type": "function"
    },
    {
      "inputs": [
        {
          "internalType": "bytes32",
          "name": "_merkleRoot",
          "type": "bytes32"
        }
      ],
      "name": "updateMerkleRoot",
      "outputs": [],
      "stateMutability": "nonpayable",
      "type": "function"
    },
    {
      "inputs": [
        {
          "internalType": "uint256",
          "name": "amount",
          "type": "uint256"
        }
      ],
      "name": "withdrawTokens",
      "outputs": [],
      "stateMutability": "nonpayable",
      "type": "function"
    }
  ],
  "bytecode": "0x608060405234801561001057600080fd5b506040516118d03803806118d083398181016040528101906100329190610396565b33600073ffffffffffffffffffffffffffffffffffffffff168173ffffffffffffffffffffffffffffffffffffffff16036100a55760006040517f1e4fbdf700000000000000000000000000000000000000000000000000000000815260040161009c91906103f8565b60405180910390fd5b6100b48161020360201b60201c565b50600073ffffffffffffffffffffffffffffffffffffffff168373ffffffffffffffffffffffffffffffffffffffff1603610124576040517f08c379a000000000000000000000000000000000000000000000000000000000815260040161011b90610470565b60405180910390fd5b6000801b8203610169576040517f08c379a0000000000000000000000000000000000000000000000000000000008152600401610160906104dc565b60405180910390fd5b600081116101ac576040517f08c379a00000000000000000000000000000000000000000000000000000000081526004016101a39061056e565b60405180910390fd5b82600160006101000a81548173ffffffffffffffffffffffffffffffffffffffff021916908373ffffffffffffffffffffffffffffffffffffffff160217905550816002819055508060038190555050505061058e565b60008060009054906101000a900473ffffffffffffffffffffffffffffffffffffffff169050816000806101000a81548173ffffffffffffffffffffffffffffffffffffffff021916908373ffffffffffffffffffffffffffffffffffffffff1602179055508173ffffffffffffffffffffffffffffffffffffffff168173ffffffffffffffffffffffffffffffffffffffff167f8be0079c531659141344cd1fd0a4f28419497f9722a3daafe3b4186f6b6457e060405160405180910390a35050565b600080fd5b600073ffffffffffffffffffffffffffffffffffffffff82169050919050565b60006102f7826102cc565b9050919050565b610307816102ec565b811461031257600080fd5b50565b600081519050610324816102fe565b92915050565b6000819050919050565b61033d8161032a565b811461034857600080fd5b50565b60008151905061035a81610334565b92915050565b6000819050919050565b61037381610360565b811461037e57600080fd5b50565b6000815190506103908161036a565b92915050565b6000806000606084860312156103af576103ae6102c7565b5b60006103bd86828701610315565b93505060206103ce8682870161034b565b92505060406103df86828701610381565b9150509250925092565b6103f2816102ec565b82525050565b600060208201905061040d60008301846103e9565b92915050565b600082825260208201905092915050565b7f546f6b656e20616464726573732063616e6e6f74206265207a65726f00000000600082015250565b600061045a601c83610413565b915061046582610424565b602082019050919050565b600060208201905081810360008301526104898161044d565b9050919050565b7f4d65726b6c6520726f6f742063616e6e6f74206265207a65726f000000000000600082015250565b60006104c6601a83610413565b91506104d182610490565b602082019050919050565b600060208201905081810360008301526104f5816104b9565b9050919050565b7f436c61696d20616d6f756e74206d75737420626520677265617465722074686160008201527f6e207a65726f0000000000000000000000000000000000000000000000000000602082015250565b6000610558602683610413565b9150610563826104fc565b604082019050919050565b600060208201905081810360008301526105878161054b565b9050919050565b6113338061059d6000396000f3fe608060405234801561001057600080fd5b50600436106100b45760003560e01c80638da5cb5b116100715780638da5cb5b14610167578063b391c50814610185578063c18b065e146101a1578063dca8b081146101d1578063f2fde38b146101ed578063fc0c546a14610209576100b4565b80632eb4a7ab146100b9578063315a095d146100d75780634783f0ef146100f3578063715018a61461010f57806373b2e80e14610119578063830953ab14610149575b600080fd5b6100c1610227565b6040516100ce9190610ba8565b60405180910390f35b6100f160048036038101906100ec9190610c03565b61022d565b005b61010d60048036038101906101089190610c5c565b6103b6565b005b610117610444565b005b610133600480360381019061012e9190610ce7565b610458565b6040516101409190610d2f565b60405180910390f35b610151610478565b60405161015e9190610d59565b60405180910390f35b61016f61047e565b60405161017c9190610d83565b60405180910390f35b61019f600480360381019061019a9190610e03565b6104a7565b005b6101bb60048036038101906101b69190610e50565b61077a565b6040516101c89190610d2f565b60405180910390f35b6101eb60048036038101906101e69190610c03565b61085b565b005b61020760048036038101906102029190610ce7565b6108e7565b005b61021161096d565b60405161021e9190610f0f565b60405180910390f35b60025481565b610235610993565b60008111610278576040517f08c379a000000000000000000000000000000000000000000000000000000000815260040161026f90610f87565b60405180910390fd5b600160009054906101000a900473ffffffffffffffffffffffffffffffffffffffff1673ffffffffffffffffffffffffffffffffffffffff1663a9059cbb6102be61047e565b836040518363ffffffff1660e01b81526004016102dc929190610fa7565b6020604051808303816000875af11580156102fb573d6000803e3d6000fd5b505050506040513d601f19601f8201168201806040525081019061031f9190610ffc565b61035e576040517f08c379a000000000000000000000000000000000000000000000000000000000815260040161035590611075565b60405180910390fd5b61036661047e565b73ffffffffffffffffffffffffffffffffffffffff167f6352c5382c4a4578e712449ca65e83cdb392d045dfcf1cad9615189db2da244b826040516103ab9190610d59565b60405180910390a250565b6103be610993565b6000801b8103610403576040517f08c379a00000000000000000000000000000000000000000000000000000000081526004016103fa906110e1565b60405180910390fd5b806002819055507f90004c04698bc3322499a575ed3752dd4abf33e0a7294c06a787a0fe01bea941816040516104399190610ba8565b60405180910390a150565b61044c610993565b6104566000610a1a565b565b60046020528060005260406000206000915054906101000a900460ff1681565b60035481565b60008060009054906101000a900473ffffffffffffffffffffffffffffffffffffffff16905090565b600460003373ffffffffffffffffffffffffffffffffffffffff1673ffffffffffffffffffffffffffffffffffffffff16815260200190815260200160002060009054906101000a900460ff1615610534576040517f08c379a000000000000000000000000000000000000000000000000000000000815260040161052b9061114d565b60405180910390fd5b60003360405160200161054791906111b5565b6040516020818303038152906040528051906020012090506105ad838380806020026020016040519081016040528093929190818152602001838360200280828437600081840152601f19601f8201169050808301925050505050505060025483610ade565b6105ec576040517f08c379a00000000000000000000000000000000000000000000000000000000081526004016105e39061121c565b60405180910390fd5b6001600460003373ffffffffffffffffffffffffffffffffffffffff1673ffffffffffffffffffffffffffffffffffffffff16815260200190815260200160002060006101000a81548160ff021916908315150217905550600160009054906101000a900473ffffffffffffffffffffffffffffffffffffffff1673ffffffffffffffffffffffffffffffffffffffff1663a9059cbb336003546040518363ffffffff1660e01b81526004016106a3929190610fa7565b6020604051808303816000875af11580156106c2573d6000803e3d6000fd5b505050506040513d601f19601f820116820180604052508101906106e69190610ffc565b610725576040517f08c379a000000000000000000000000000000000000000000000000000000000815260040161071c90611075565b60405180910390fd5b3373ffffffffffffffffffffffffffffffffffffffff167f896e034966eaaf1adc54acc0f257056febbd300c9e47182cf761982cf1f5e43060035460405161076d9190610d59565b60405180910390a2505050565b6000600460008573ffffffffffffffffffffffffffffffffffffffff1673ffffffffffffffffffffffffffffffffffffffff16815260200190815260200160002060009054906101000a900460ff16156107d75760009050610854565b6000846040516020016107ea91906111b5565b604051602081830303815290604052805190602001209050610850848480806020026020016040519081016040528093929190818152602001838360200280828437600081840152601f19601f8201169050808301925050505050505060025483610ade565b9150505b9392505050565b610863610993565b600081116108a6576040517f08c379a000000000000000000000000000000000000000000000000000000000815260040161089d906112ae565b60405180910390fd5b806003819055507f6a856539d0c38e2d0062c02baf02b3d784e9de37335f10d75d5ed7e606c70456816040516108dc9190610d59565b60405180910390a150565b6108ef610993565b600073ffffffffffffffffffffffffffffffffffffffff168173ffffffffffffffffffffffffffffffffffffffff16036109615760006040517f1e4fbdf70000000000000000000000000000000000000000000000000000000081526004016109589190610d83565b60405180910390fd5b61096a81610a1a565b50565b600160009054906101000a900473ffffffffffffffffffffffffffffffffffffffff1681565b61099b610af5565b73ffffffffffffffffffffffffffffffffffffffff166109b961047e565b73ffffffffffffffffffffffffffffffffffffffff1614610a18576109dc610af5565b6040517f118cdaa7000000000000000000000000000000000000000000000000000000008152600401610a0f9190610d83565b60405180910390fd5b565b60008060009054906101000a900473ffffffffffffffffffffffffffffffffffffffff169050816000806101000a81548173ffffffffffffffffffffffffffffffffffffffff021916908373ffffffffffffffffffffffffffffffffffffffff1602179055508173ffffffffffffffffffffffffffffffffffffffff168173ffffffffffffffffffffffffffffffffffffffff167f8be0079c531659141344cd1fd0a4f28419497f9722a3daafe3b4186f6b6457e060405160405180910390a35050565b600082610aeb8584610afd565b1490509392505050565b600033905090565b60008082905060005b8451811015610b4257610b3382868381518110610b2657610b256112ce565b5b6020026020010151610b4d565b91508080600101915050610b06565b508091505092915050565b6000818310610b6557610b608284610b78565b610b70565b610b6f8383610b78565b5b905092915050565b600082600052816020526040600020905092915050565b6000819050919050565b610ba281610b8f565b82525050565b6000602082019050610bbd6000830184610b99565b92915050565b600080fd5b600080fd5b6000819050919050565b610be081610bcd565b8114610beb57600080fd5b50565b600081359050610bfd81610bd7565b92915050565b600060208284031215610c1957610c18610bc3565b5b6000610c2784828501610bee565b91505092915050565b610c3981610b8f565b8114610c4457600080fd5b50565b600081359050610c5681610c30565b92915050565b600060208284031215610c7257610c71610bc3565b5b6000610c8084828501610c47565b91505092915050565b600073ffffffffffffffffffffffffffffffffffffffff82169050919050565b6000610cb482610c89565b9050919050565b610cc481610ca9565b8114610ccf57600080fd5b50565b600081359050610ce181610cbb565b92915050565b600060208284031215610cfd57610cfc610bc3565b5b6000610d0b84828501610cd2565b91505092915050565b60008115159050919050565b610d2981610d14565b82525050565b6000602082019050610d446000830184610d20565b92915050565b610d5381610bcd565b82525050565b6000602082019050610d6e6000830184610d4a565b92915050565b610d7d81610ca9565b82525050565b6000602082019050610d986000830184610d74565b92915050565b600080fd5b600080fd5b600080fd5b60008083601f840112610dc357610dc2610d9e565b5b8235905067ffffffffffffffff811115610de057610ddf610da3565b5b602083019150836020820283011115610dfc57610dfb610da8565b5b9250929050565b60008060208385031215610e1a57610e19610bc3565b5b600083013567ffffffffffffffff811115610e3857610e37610bc8565b5b610e4485828601610dad565b92509250509250929050565b600080600060408486031215610e6957610e68610bc3565b5b6000610e7786828701610cd2565b935050602084013567ffffffffffffffff811115610e9857610e97610bc8565b5b610ea486828701610dad565b92509250509250925092565b6000819050919050565b6000610ed5610ed0610ecb84610c89565b610eb0565b610c89565b9050919050565b6000610ee782610eba565b9050919050565b6000610ef982610edc565b9050919050565b610f0981610eee565b82525050565b6000602082019050610f246000830184610f00565b92915050565b600082825260208201905092915050565b7f416d6f756e74206d7573742062652067726561746572207468616e207a65726f600082015250565b6000610f71602083610f2a565b9150610f7c82610f3b565b602082019050919050565b60006020820190508181036000830152610fa081610f64565b9050919050565b6000604082019050610fbc6000830185610d74565b610fc96020830184610d4a565b9392505050565b610fd981610d14565b8114610fe457600080fd5b50565b600081519050610ff681610fd0565b92915050565b60006020828403121561101257611011610bc3565b5b600061102084828501610fe7565b91505092915050565b7f546f6b656e207472616e73666572206661696c65640000000000000000000000600082015250565b600061105f601583610f2a565b915061106a82611029565b602082019050919050565b6000602082019050818103600083015261108e81611052565b9050919050565b7f4d65726b6c6520726f6f742063616e6e6f74206265207a65726f000000000000600082015250565b60006110cb601a83610f2a565b91506110d682611095565b602082019050919050565b600060208201905081810360008301526110fa816110be565b9050919050565b7f546f6b656e7320616c726561647920636c61696d656400000000000000000000600082015250565b6000611137601683610f2a565b915061114282611101565b602082019050919050565b600060208201905081810360008301526111668161112a565b9050919050565b60008160601b9050919050565b60006111858261116d565b9050919050565b60006111978261117a565b9050919050565b6111af6111aa82610ca9565b61118c565b82525050565b60006111c1828461119e565b60148201915081905092915050565b7f496e76616c6964204d65726b6c652070726f6f66000000000000000000000000600082015250565b6000611206601483610f2a565b9150611211826111d0565b602082019050919050565b60006020820190508181036000830152611235816111f9565b9050919050565b7f436c61696d20616d6f756e74206d75737420626520677265617465722074686160008201527f6e207a65726f0000000000000000000000000000000000000000000000000000602082015250565b6000611298602683610f2a565b91506112a38261123c565b604082019050919050565b600060208201905081810360008301526112c78161128b565b9050919050565b7f4e487b7100000000000000000000000000000000000000000000000000000000600052603260045260246000fdfea2646970667358221220fddab3aed54499cd7e9e19698c4bc8aaa066accd7a785cf34ae09c31bff841fa64736f6c634300081c0033",
  "linkReferences": {},
  "deployedLinkReferences": {}
}