{
  "_format": "hh-sol-artifact-1",
  "contractName": "GrantContract",
  "sourceName": "contracts/GrantContract.sol",
  "abi": [
    {
      "anonymous": false,
      "inputs": [
        {
          "indexed": false,
          "internalType": "address",
          "name": "beneficiary",
          "type": "address"
        },
        {
          "indexed": false,
          "internalType": "uint256",
          "name": "amount",
          "type": "uint256"
        },
        {
          "indexed": false,
          "internalType": "uint256",
          "name": "releasePeriod",
          "type": "uint256"
        }
      ],
      "name": "GrantCreated",
      "type": "event"
    },
    {
      "anonymous": false,
      "inputs": [
        {
          "indexed": false,
          "internalType": "address",
          "name": "beneficiary",
          "type": "address"
        },
        {
          "indexed": false,
          "internalType": "uint256",
          "name": "amount",
          "type": "uint256"
        }
      ],
      "name": "GrantReverted",
      "type": "event"
    },
    {
      "anonymous": false,
      "inputs": [
        {
          "indexed": false,
          "internalType": "address",
          "name": "beneficiary",
          "type": "address"
        },
        {
          "indexed": false,
          "internalType": "uint256",
          "name": "amount",
          "type": "uint256"
        }
      ],
      "name": "GrantWithdrawn",
      "type": "event"
    },
    {
      "stateMutability": "payable",
      "type": "fallback"
    },
    {
      "inputs": [
        {
          "internalType": "address",
          "name": "_beneficiary",
          "type": "address"
        },
        {
          "internalType": "uint256",
          "name": "_releasePeriod",
          "type": "uint256"
        }
      ],
      "name": "createGrant",
      "outputs": [],
      "stateMutability": "payable",
      "type": "function"
    },
    {
      "inputs": [
        {
          "internalType": "address",
          "name": "_beneficiary",
          "type": "address"
        }
      ],
      "name": "grantReleaseTimeLeft",
      "outputs": [
        {
          "internalType": "uint256",
          "name": "",
          "type": "uint256"
        }
      ],
      "stateMutability": "view",
      "type": "function"
    },
    {
      "inputs": [
        {
          "internalType": "address",
          "name": "",
          "type": "address"
        }
      ],
      "name": "grants",
      "outputs": [
        {
          "internalType": "uint256",
          "name": "amount",
          "type": "uint256"
        },
        {
          "internalType": "uint256",
          "name": "releasePeriod",
          "type": "uint256"
        },
        {
          "internalType": "bool",
          "name": "isActive",
          "type": "bool"
        }
      ],
      "stateMutability": "view",
      "type": "function"
    },
    {
      "inputs": [],
      "name": "owner",
      "outputs": [
        {
          "internalType": "address",
          "name": "",
          "type": "address"
        }
      ],
      "stateMutability": "view",
      "type": "function"
    },
    {
      "inputs": [
        {
          "internalType": "address",
          "name": "_beneficiary",
          "type": "address"
        }
      ],
      "name": "retrieveBeneficiaryInfo",
      "outputs": [
        {
          "components": [
            {
              "internalType": "uint256",
              "name": "amount",
              "type": "uint256"
            },
            {
              "internalType": "uint256",
              "name": "releasePeriod",
              "type": "uint256"
            },
            {
              "internalType": "bool",
              "name": "isActive",
              "type": "bool"
            }
          ],
          "internalType": "struct GrantContract.Grant",
          "name": "",
          "type": "tuple"
        }
      ],
      "stateMutability": "view",
      "type": "function"
    },
    {
      "inputs": [
        {
          "internalType": "address",
          "name": "_beneficiary",
          "type": "address"
        }
      ],
      "name": "revertGrant",
      "outputs": [],
      "stateMutability": "nonpayable",
      "type": "function"
    },
    {
      "inputs": [],
      "name": "totalStoredEther",
      "outputs": [
        {
          "internalType": "uint256",
          "name": "",
          "type": "uint256"
        }
      ],
      "stateMutability": "view",
      "type": "function"
    },
    {
      "inputs": [],
      "name": "withdrawGrant",
      "outputs": [],
      "stateMutability": "nonpayable",
      "type": "function"
    },
    {
      "stateMutability": "payable",
      "type": "receive"
    }
  ],
  "bytecode": "0x6080604052348015600f57600080fd5b50336000806101000a81548173ffffffffffffffffffffffffffffffffffffffff021916908373ffffffffffffffffffffffffffffffffffffffff16021790555061144b8061005f6000396000f3fe60806040526004361061007f5760003560e01c8063a1544d571161004e578063a1544d5714610109578063b869cea314610146578063d13447ab14610185578063fac171de146101c257610080565b80633dce2b46146100825780636cb71df91461009e5780638da5cb5b146100c7578063992dbf75146100f257610080565b5b005b61009c60048036038101906100979190610d1b565b6101ed565b005b3480156100aa57600080fd5b506100c560048036038101906100c09190610d5b565b610432565b005b3480156100d357600080fd5b506100dc610724565b6040516100e99190610d97565b60405180910390f35b3480156100fe57600080fd5b50610107610748565b005b34801561011557600080fd5b50610130600480360381019061012b9190610d5b565b6109da565b60405161013d9190610dc1565b60405180910390f35b34801561015257600080fd5b5061016d60048036038101906101689190610d5b565b610b13565b60405161017c93929190610df7565b60405180910390f35b34801561019157600080fd5b506101ac60048036038101906101a79190610d5b565b610b4a565b6040516101b99190610e8e565b60405180910390f35b3480156101ce57600080fd5b506101d7610c57565b6040516101e49190610dc1565b60405180910390f35b60008054906101000a900473ffffffffffffffffffffffffffffffffffffffff1673ffffffffffffffffffffffffffffffffffffffff163373ffffffffffffffffffffffffffffffffffffffff161461027b576040517f08c379a000000000000000000000000000000000000000000000000000000000815260040161027290610f06565b60405180910390fd5b600034116102be576040517f08c379a00000000000000000000000000000000000000000000000000000000081526004016102b590610f98565b60405180910390fd5b600160008373ffffffffffffffffffffffffffffffffffffffff1673ffffffffffffffffffffffffffffffffffffffff16815260200190815260200160002060020160009054906101000a900460ff161561034e576040517f08c379a00000000000000000000000000000000000000000000000000000000081526004016103459061102a565b60405180910390fd5b6000814261035c9190611079565b9050604051806060016040528034815260200182815260200160011515815250600160008573ffffffffffffffffffffffffffffffffffffffff1673ffffffffffffffffffffffffffffffffffffffff168152602001908152602001600020600082015181600001556020820151816001015560408201518160020160006101000a81548160ff0219169083151502179055509050507fd15e75de59b97a644f8b5ec4577d26fe945f96b26b74d268e975badd4c9b6ca9833483604051610425939291906110ad565b60405180910390a1505050565b60008054906101000a900473ffffffffffffffffffffffffffffffffffffffff1673ffffffffffffffffffffffffffffffffffffffff163373ffffffffffffffffffffffffffffffffffffffff16146104c0576040517f08c379a00000000000000000000000000000000000000000000000000000000081526004016104b790610f06565b60405180910390fd5b600160008273ffffffffffffffffffffffffffffffffffffffff1673ffffffffffffffffffffffffffffffffffffffff16815260200190815260200160002060020160009054906101000a900460ff1661054f576040517f08c379a000000000000000000000000000000000000000000000000000000000815260040161054690611130565b60405180910390fd5b600160008273ffffffffffffffffffffffffffffffffffffffff1673ffffffffffffffffffffffffffffffffffffffff1681526020019081526020016000206001015442106105d3576040517f08c379a00000000000000000000000000000000000000000000000000000000081526004016105ca906111c2565b60405180910390fd5b6000600160008373ffffffffffffffffffffffffffffffffffffffff1673ffffffffffffffffffffffffffffffffffffffff168152602001908152602001600020600001549050600160008373ffffffffffffffffffffffffffffffffffffffff1673ffffffffffffffffffffffffffffffffffffffff16815260200190815260200160002060008082016000905560018201600090556002820160006101000a81549060ff0219169055505060008054906101000a900473ffffffffffffffffffffffffffffffffffffffff1673ffffffffffffffffffffffffffffffffffffffff166108fc829081150290604051600060405180830381858888f193505050501580156106e6573d6000803e3d6000fd5b507fd8026ee69c7e854f8623f3de92662e61fb3aa1969b9faade53685153ba2a52d382826040516107189291906111e2565b60405180910390a15050565b60008054906101000a900473ffffffffffffffffffffffffffffffffffffffff1681565b33600160008273ffffffffffffffffffffffffffffffffffffffff1673ffffffffffffffffffffffffffffffffffffffff168152602001908152602001600020600101544210156107ce576040517f08c379a00000000000000000000000000000000000000000000000000000000081526004016107c59061127d565b60405180910390fd5b600160008273ffffffffffffffffffffffffffffffffffffffff1673ffffffffffffffffffffffffffffffffffffffff16815260200190815260200160002060020160009054906101000a900460ff1661085d576040517f08c379a0000000000000000000000000000000000000000000000000000000008152600401610854906112e9565b60405180910390fd5b6000600160008373ffffffffffffffffffffffffffffffffffffffff1673ffffffffffffffffffffffffffffffffffffffff16815260200190815260200160002060000154116108e2576040517f08c379a00000000000000000000000000000000000000000000000000000000081526004016108d990611355565b60405180910390fd5b6000600160003373ffffffffffffffffffffffffffffffffffffffff1673ffffffffffffffffffffffffffffffffffffffff168152602001908152602001600020905060008160000154905060008260020160006101000a81548160ff021916908315150217905550600082600001819055503373ffffffffffffffffffffffffffffffffffffffff166108fc829081150290604051600060405180830381858888f1935050505015801561099b573d6000803e3d6000fd5b507fdce59fc7b8b185a882896cca7a033953e920a1712af333122d3b7ccd5f3c987733826040516109cd9291906111e2565b60405180910390a1505050565b6000600160008373ffffffffffffffffffffffffffffffffffffffff1673ffffffffffffffffffffffffffffffffffffffff16815260200190815260200160002060020160009054906101000a900460ff16610a6b576040517f08c379a0000000000000000000000000000000000000000000000000000000008152600401610a62906113c1565b60405180910390fd5b600160008373ffffffffffffffffffffffffffffffffffffffff1673ffffffffffffffffffffffffffffffffffffffff168152602001908152602001600020600101544210610abd5760009050610b0e565b42600160008473ffffffffffffffffffffffffffffffffffffffff1673ffffffffffffffffffffffffffffffffffffffff16815260200190815260200160002060010154610b0b91906113e1565b90505b919050565b60016020528060005260406000206000915090508060000154908060010154908060020160009054906101000a900460ff16905083565b610b52610c5f565b6000600160008473ffffffffffffffffffffffffffffffffffffffff1673ffffffffffffffffffffffffffffffffffffffff1681526020019081526020016000206000015411610bd7576040517f08c379a0000000000000000000000000000000000000000000000000000000008152600401610bce906113c1565b60405180910390fd5b600160008373ffffffffffffffffffffffffffffffffffffffff1673ffffffffffffffffffffffffffffffffffffffff16815260200190815260200160002060405180606001604052908160008201548152602001600182015481526020016002820160009054906101000a900460ff1615151515815250509050919050565b600047905090565b604051806060016040528060008152602001600081526020016000151581525090565b600080fd5b600073ffffffffffffffffffffffffffffffffffffffff82169050919050565b6000610cb282610c87565b9050919050565b610cc281610ca7565b8114610ccd57600080fd5b50565b600081359050610cdf81610cb9565b92915050565b6000819050919050565b610cf881610ce5565b8114610d0357600080fd5b50565b600081359050610d1581610cef565b92915050565b60008060408385031215610d3257610d31610c82565b5b6000610d4085828601610cd0565b9250506020610d5185828601610d06565b9150509250929050565b600060208284031215610d7157610d70610c82565b5b6000610d7f84828501610cd0565b91505092915050565b610d9181610ca7565b82525050565b6000602082019050610dac6000830184610d88565b92915050565b610dbb81610ce5565b82525050565b6000602082019050610dd66000830184610db2565b92915050565b60008115159050919050565b610df181610ddc565b82525050565b6000606082019050610e0c6000830186610db2565b610e196020830185610db2565b610e266040830184610de8565b949350505050565b610e3781610ce5565b82525050565b610e4681610ddc565b82525050565b606082016000820151610e626000850182610e2e565b506020820151610e756020850182610e2e565b506040820151610e886040850182610e3d565b50505050565b6000606082019050610ea36000830184610e4c565b92915050565b600082825260208201905092915050565b7f5065726d697373696f6e2064656e696564000000000000000000000000000000600082015250565b6000610ef0601183610ea9565b9150610efb82610eba565b602082019050919050565b60006020820190508181036000830152610f1f81610ee3565b9050919050565b7f4772616e7420616d6f756e74206d75737420626520677265617465722074686160008201527f6e207a65726f0000000000000000000000000000000000000000000000000000602082015250565b6000610f82602683610ea9565b9150610f8d82610f26565b604082019050919050565b60006020820190508181036000830152610fb181610f75565b9050919050565b7f42656e656669636961727920616c7265616479206861732061206772616e742060008201527f6163746976650000000000000000000000000000000000000000000000000000602082015250565b6000611014602683610ea9565b915061101f82610fb8565b604082019050919050565b6000602082019050818103600083015261104381611007565b9050919050565b7f4e487b7100000000000000000000000000000000000000000000000000000000600052601160045260246000fd5b600061108482610ce5565b915061108f83610ce5565b92508282019050808211156110a7576110a661104a565b5b92915050565b60006060820190506110c26000830186610d88565b6110cf6020830185610db2565b6110dc6040830184610db2565b949350505050565b7f4e6f20616374697665206772616e7420746f2072657665727400000000000000600082015250565b600061111a601983610ea9565b9150611125826110e4565b602082019050919050565b600060208201905081810360008301526111498161110d565b9050919050565b7f4772616e742063616e6e6f74206265207265766572746564206166746572207260008201527f656c656173652074696d65000000000000000000000000000000000000000000602082015250565b60006111ac602b83610ea9565b91506111b782611150565b604082019050919050565b600060208201905081810360008301526111db8161119f565b9050919050565b60006040820190506111f76000830185610d88565b6112046020830184610db2565b9392505050565b7f4772616e742063616e206f6e6c792062652077697468647261776e206166746560008201527f72207468652072656c6561736520706572696f64000000000000000000000000602082015250565b6000611267603483610ea9565b91506112728261120b565b604082019050919050565b600060208201905081810360008301526112968161125a565b9050919050565b7f4772616e742077697468647261776e0000000000000000000000000000000000600082015250565b60006112d3600f83610ea9565b91506112de8261129d565b602082019050919050565b60006020820190508181036000830152611302816112c6565b9050919050565b7f4e6f206772616e742066756e6473000000000000000000000000000000000000600082015250565b600061133f600e83610ea9565b915061134a82611309565b602082019050919050565b6000602082019050818103600083015261136e81611332565b9050919050565b7f42656e656669636961727920646f6573206e6f74206578697374000000000000600082015250565b60006113ab601a83610ea9565b91506113b682611375565b602082019050919050565b600060208201905081810360008301526113da8161139e565b9050919050565b60006113ec82610ce5565b91506113f783610ce5565b925082820390508181111561140f5761140e61104a565b5b9291505056fea26469706673582212209b5fe5815013253a462f2cf749a4aeb0711df03984e9839e867ff14a7f048a8c64736f6c634300081c0033",
  "linkReferences": {},
  "deployedLinkReferences": {}
}