{
  "_format": "hh-sol-artifact-1",
  "contractName": "Spxctr00m",
  "sourceName": "contracts/spxctr00m.sol",
  "abi": [
    {
      "inputs": [
        {
          "internalType": "address",
          "name": "initialOwner",
          "type": "address"
        }
      ],
      "stateMutability": "nonpayable",
      "type": "constructor"
    },
    {
      "inputs": [],
      "name": "ECDSAInvalidSignature",
      "type": "error"
    },
    {
      "inputs": [
        {
          "internalType": "uint256",
          "name": "length",
          "type": "uint256"
        }
      ],
      "name": "ECDSAInvalidSignatureLength",
      "type": "error"
    },
    {
      "inputs": [
        {
          "internalType": "bytes32",
          "name": "s",
          "type": "bytes32"
        }
      ],
      "name": "ECDSAInvalidSignatureS",
      "type": "error"
    },
    {
      "inputs": [
        {
          "internalType": "address",
          "name": "spender",
          "type": "address"
        },
        {
          "internalType": "uint256",
          "name": "allowance",
          "type": "uint256"
        },
        {
          "internalType": "uint256",
          "name": "needed",
          "type": "uint256"
        }
      ],
      "name": "ERC20InsufficientAllowance",
      "type": "error"
    },
    {
      "inputs": [
        {
          "internalType": "address",
          "name": "sender",
          "type": "address"
        },
        {
          "internalType": "uint256",
          "name": "balance",
          "type": "uint256"
        },
        {
          "internalType": "uint256",
          "name": "needed",
          "type": "uint256"
        }
      ],
      "name": "ERC20InsufficientBalance",
      "type": "error"
    },
    {
      "inputs": [
        {
          "internalType": "address",
          "name": "approver",
          "type": "address"
        }
      ],
      "name": "ERC20InvalidApprover",
      "type": "error"
    },
    {
      "inputs": [
        {
          "internalType": "address",
          "name": "receiver",
          "type": "address"
        }
      ],
      "name": "ERC20InvalidReceiver",
      "type": "error"
    },
    {
      "inputs": [
        {
          "internalType": "address",
          "name": "sender",
          "type": "address"
        }
      ],
      "name": "ERC20InvalidSender",
      "type": "error"
    },
    {
      "inputs": [
        {
          "internalType": "address",
          "name": "spender",
          "type": "address"
        }
      ],
      "name": "ERC20InvalidSpender",
      "type": "error"
    },
    {
      "inputs": [
        {
          "internalType": "uint256",
          "name": "deadline",
          "type": "uint256"
        }
      ],
      "name": "ERC2612ExpiredSignature",
      "type": "error"
    },
    {
      "inputs": [
        {
          "internalType": "address",
          "name": "signer",
          "type": "address"
        },
        {
          "internalType": "address",
          "name": "owner",
          "type": "address"
        }
      ],
      "name": "ERC2612InvalidSigner",
      "type": "error"
    },
    {
      "inputs": [
        {
          "internalType": "address",
          "name": "account",
          "type": "address"
        },
        {
          "internalType": "uint256",
          "name": "currentNonce",
          "type": "uint256"
        }
      ],
      "name": "InvalidAccountNonce",
      "type": "error"
    },
    {
      "inputs": [],
      "name": "InvalidShortString",
      "type": "error"
    },
    {
      "inputs": [
        {
          "internalType": "address",
          "name": "owner",
          "type": "address"
        }
      ],
      "name": "OwnableInvalidOwner",
      "type": "error"
    },
    {
      "inputs": [
        {
          "internalType": "address",
          "name": "account",
          "type": "address"
        }
      ],
      "name": "OwnableUnauthorizedAccount",
      "type": "error"
    },
    {
      "inputs": [
        {
          "internalType": "string",
          "name": "str",
          "type": "string"
        }
      ],
      "name": "StringTooLong",
      "type": "error"
    },
    {
      "anonymous": false,
      "inputs": [
        {
          "indexed": true,
          "internalType": "address",
          "name": "owner",
          "type": "address"
        },
        {
          "indexed": true,
          "internalType": "address",
          "name": "spender",
          "type": "address"
        },
        {
          "indexed": false,
          "internalType": "uint256",
          "name": "value",
          "type": "uint256"
        }
      ],
      "name": "Approval",
      "type": "event"
    },
    {
      "anonymous": false,
      "inputs": [],
      "name": "EIP712DomainChanged",
      "type": "event"
    },
    {
      "anonymous": false,
      "inputs": [
        {
          "indexed": true,
          "internalType": "address",
          "name": "previousOwner",
          "type": "address"
        },
        {
          "indexed": true,
          "internalType": "address",
          "name": "newOwner",
          "type": "address"
        }
      ],
      "name": "OwnershipTransferred",
      "type": "event"
    },
    {
      "anonymous": false,
      "inputs": [
        {
          "indexed": true,
          "internalType": "address",
          "name": "from",
          "type": "address"
        },
        {
          "indexed": true,
          "internalType": "address",
          "name": "to",
          "type": "address"
        },
        {
          "indexed": false,
          "internalType": "uint256",
          "name": "value",
          "type": "uint256"
        }
      ],
      "name": "Transfer",
      "type": "event"
    },
    {
      "inputs": [],
      "name": "DOMAIN_SEPARATOR",
      "outputs": [
        {
          "internalType": "bytes32",
          "name": "",
          "type": "bytes32"
        }
      ],
      "stateMutability": "view",
      "type": "function"
    },
    {
      "inputs": [
        {
          "internalType": "address",
          "name": "from",
          "type": "address"
        },
        {
          "internalType": "uint256",
          "name": "amount",
          "type": "uint256"
        }
      ],
      "name": "adminBurn",
      "outputs": [],
      "stateMutability": "nonpayable",
      "type": "function"
    },
    {
      "inputs": [
        {
          "internalType": "address",
          "name": "owner",
          "type": "address"
        },
        {
          "internalType": "address",
          "name": "spender",
          "type": "address"
        }
      ],
      "name": "allowance",
      "outputs": [
        {
          "internalType": "uint256",
          "name": "",
          "type": "uint256"
        }
      ],
      "stateMutability": "view",
      "type": "function"
    },
    {
      "inputs": [
        {
          "internalType": "address",
          "name": "spender",
          "type": "address"
        },
        {
          "internalType": "uint256",
          "name": "value",
          "type": "uint256"
        }
      ],
      "name": "approve",
      "outputs": [
        {
          "internalType": "bool",
          "name": "",
          "type": "bool"
        }
      ],
      "stateMutability": "nonpayable",
      "type": "function"
    },
    {
      "inputs": [
        {
          "internalType": "address",
          "name": "account",
          "type": "address"
        }
      ],
      "name": "balanceOf",
      "outputs": [
        {
          "internalType": "uint256",
          "name": "",
          "type": "uint256"
        }
      ],
      "stateMutability": "view",
      "type": "function"
    },
    {
      "inputs": [
        {
          "internalType": "uint256",
          "name": "value",
          "type": "uint256"
        }
      ],
      "name": "burn",
      "outputs": [],
      "stateMutability": "nonpayable",
      "type": "function"
    },
    {
      "inputs": [
        {
          "internalType": "address",
          "name": "account",
          "type": "address"
        },
        {
          "internalType": "uint256",
          "name": "value",
          "type": "uint256"
        }
      ],
      "name": "burnFrom",
      "outputs": [],
      "stateMutability": "nonpayable",
      "type": "function"
    },
    {
      "inputs": [],
      "name": "decimals",
      "outputs": [
        {
          "internalType": "uint8",
          "name": "",
          "type": "uint8"
        }
      ],
      "stateMutability": "view",
      "type": "function"
    },
    {
      "inputs": [],
      "name": "eip712Domain",
      "outputs": [
        {
          "internalType": "bytes1",
          "name": "fields",
          "type": "bytes1"
        },
        {
          "internalType": "string",
          "name": "name",
          "type": "string"
        },
        {
          "internalType": "string",
          "name": "version",
          "type": "string"
        },
        {
          "internalType": "uint256",
          "name": "chainId",
          "type": "uint256"
        },
        {
          "internalType": "address",
          "name": "verifyingContract",
          "type": "address"
        },
        {
          "internalType": "bytes32",
          "name": "salt",
          "type": "bytes32"
        },
        {
          "internalType": "uint256[]",
          "name": "extensions",
          "type": "uint256[]"
        }
      ],
      "stateMutability": "view",
      "type": "function"
    },
    {
      "inputs": [
        {
          "internalType": "address",
          "name": "to",
          "type": "address"
        },
        {
          "internalType": "uint256",
          "name": "amount",
          "type": "uint256"
        }
      ],
      "name": "mint",
      "outputs": [],
      "stateMutability": "nonpayable",
      "type": "function"
    },
    {
      "inputs": [],
      "name": "name",
      "outputs": [
        {
          "internalType": "string",
          "name": "",
          "type": "string"
        }
      ],
      "stateMutability": "view",
      "type": "function"
    },
    {
      "inputs": [
        {
          "internalType": "address",
          "name": "owner",
          "type": "address"
        }
      ],
      "name": "nonces",
      "outputs": [
        {
          "internalType": "uint256",
          "name": "",
          "type": "uint256"
        }
      ],
      "stateMutability": "view",
      "type": "function"
    },
    {
      "inputs": [],
      "name": "owner",
      "outputs": [
        {
          "internalType": "address",
          "name": "",
          "type": "address"
        }
      ],
      "stateMutability": "view",
      "type": "function"
    },
    {
      "inputs": [
        {
          "internalType": "address",
          "name": "owner",
          "type": "address"
        },
        {
          "internalType": "address",
          "name": "spender",
          "type": "address"
        },
        {
          "internalType": "uint256",
          "name": "value",
          "type": "uint256"
        },
        {
          "internalType": "uint256",
          "name": "deadline",
          "type": "uint256"
        },
        {
          "internalType": "uint8",
          "name": "v",
          "type": "uint8"
        },
        {
          "internalType": "bytes32",
          "name": "r",
          "type": "bytes32"
        },
        {
          "internalType": "bytes32",
          "name": "s",
          "type": "bytes32"
        }
      ],
      "name": "permit",
      "outputs": [],
      "stateMutability": "nonpayable",
      "type": "function"
    },
    {
      "inputs": [],
      "name": "renounceOwnership",
      "outputs": [],
      "stateMutability": "nonpayable",
      "type": "function"
    },
    {
      "inputs": [],
      "name": "symbol",
      "outputs": [
        {
          "internalType": "string",
          "name": "",
          "type": "string"
        }
      ],
      "stateMutability": "view",
      "type": "function"
    },
    {
      "inputs": [],
      "name": "totalSupply",
      "outputs": [
        {
          "internalType": "uint256",
          "name": "",
          "type": "uint256"
        }
      ],
      "stateMutability": "view",
      "type": "function"
    },
    {
      "inputs": [
        {
          "internalType": "address",
          "name": "to",
          "type": "address"
        },
        {
          "internalType": "uint256",
          "name": "value",
          "type": "uint256"
        }
      ],
      "name": "transfer",
      "outputs": [
        {
          "internalType": "bool",
          "name": "",
          "type": "bool"
        }
      ],
      "stateMutability": "nonpayable",
      "type": "function"
    },
    {
      "inputs": [
        {
          "internalType": "address",
          "name": "from",
          "type": "address"
        },
        {
          "internalType": "address",
          "name": "to",
          "type": "address"
        },
        {
          "internalType": "uint256",
          "name": "value",
          "type": "uint256"
        }
      ],
      "name": "transferFrom",
      "outputs": [
        {
          "internalType": "bool",
          "name": "",
          "type": "bool"
        }
      ],
      "stateMutability": "nonpayable",
      "type": "function"
    },
    {
      "inputs": [
        {
          "internalType": "address",
          "name": "newOwner",
          "type": "address"
        }
      ],
      "name": "transferOwnership",
      "outputs": [],
      "stateMutability": "nonpayable",
      "type": "function"
    }
  ],
  "bytecode": "0x61016060405234801561001157600080fd5b50604051612aff380380612aff833981810160405281019061003391906104a8565b6040518060400160405280600981526020017f73707863747230306d0000000000000000000000000000000000000000000000815250806040518060400160405280600181526020017f3100000000000000000000000000000000000000000000000000000000000000815250836040518060400160405280600981526020017f73707863747230306d00000000000000000000000000000000000000000000008152506040518060400160405280600381526020017f5350580000000000000000000000000000000000000000000000000000000000815250816003908161011c9190610725565b50806004908161012c9190610725565b505050600073ffffffffffffffffffffffffffffffffffffffff168173ffffffffffffffffffffffffffffffffffffffff16036101a15760006040517f1e4fbdf70000000000000000000000000000000000000000000000000000000081526004016101989190610806565b60405180910390fd5b6101b08161026260201b60201c565b506101c560068361032860201b90919060201c565b61012081815250506101e160078261032860201b90919060201c565b6101408181525050818051906020012060e08181525050808051906020012061010081815250504660a0818152505061021e61037860201b60201c565b608081815250503073ffffffffffffffffffffffffffffffffffffffff1660c08173ffffffffffffffffffffffffffffffffffffffff1681525050505050506109da565b6000600560009054906101000a900473ffffffffffffffffffffffffffffffffffffffff16905081600560006101000a81548173ffffffffffffffffffffffffffffffffffffffff021916908373ffffffffffffffffffffffffffffffffffffffff1602179055508173ffffffffffffffffffffffffffffffffffffffff168173ffffffffffffffffffffffffffffffffffffffff167f8be0079c531659141344cd1fd0a4f28419497f9722a3daafe3b4186f6b6457e060405160405180910390a35050565b600060208351101561034a57610343836103d360201b60201c565b9050610372565b8261035a8361043b60201b60201c565b60000190816103699190610725565b5060ff60001b90505b92915050565b60007f8b73c3c69bb8fe3d512ecc4cf759cc79239f7b179b0ffacaa9a75d522b39400f60e0516101005146306040516020016103b8959493929190610849565b60405160208183030381529060405280519060200120905090565b600080829050601f8151111561042057826040517f305a27a90000000000000000000000000000000000000000000000000000000081526004016104179190610921565b60405180910390fd5b80518161042c90610973565b60001c1760001b915050919050565b6000819050919050565b600080fd5b600073ffffffffffffffffffffffffffffffffffffffff82169050919050565b60006104758261044a565b9050919050565b6104858161046a565b811461049057600080fd5b50565b6000815190506104a28161047c565b92915050565b6000602082840312156104be576104bd610445565b5b60006104cc84828501610493565b91505092915050565b600081519050919050565b7f4e487b7100000000000000000000000000000000000000000000000000000000600052604160045260246000fd5b7f4e487b7100000000000000000000000000000000000000000000000000000000600052602260045260246000fd5b6000600282049050600182168061055657607f821691505b6020821081036105695761056861050f565b5b50919050565b60008190508160005260206000209050919050565b60006020601f8301049050919050565b600082821b905092915050565b6000600883026105d17fffffffffffffffffffffffffffffffffffffffffffffffffffffffffffffffff82610594565b6105db8683610594565b95508019841693508086168417925050509392505050565b6000819050919050565b6000819050919050565b600061062261061d610618846105f3565b6105fd565b6105f3565b9050919050565b6000819050919050565b61063c83610607565b61065061064882610629565b8484546105a1565b825550505050565b600090565b610665610658565b610670818484610633565b505050565b5b818110156106945761068960008261065d565b600181019050610676565b5050565b601f8211156106d9576106aa8161056f565b6106b384610584565b810160208510156106c2578190505b6106d66106ce85610584565b830182610675565b50505b505050565b600082821c905092915050565b60006106fc600019846008026106de565b1980831691505092915050565b600061071583836106eb565b9150826002028217905092915050565b61072e826104d5565b67ffffffffffffffff811115610747576107466104e0565b5b610751825461053e565b61075c828285610698565b600060209050601f83116001811461078f576000841561077d578287015190505b6107878582610709565b8655506107ef565b601f19841661079d8661056f565b60005b828110156107c5578489015182556001820191506020850194506020810190506107a0565b868310156107e257848901516107de601f8916826106eb565b8355505b6001600288020188555050505b505050505050565b6108008161046a565b82525050565b600060208201905061081b60008301846107f7565b92915050565b6000819050919050565b61083481610821565b82525050565b610843816105f3565b82525050565b600060a08201905061085e600083018861082b565b61086b602083018761082b565b610878604083018661082b565b610885606083018561083a565b61089260808301846107f7565b9695505050505050565b600082825260208201905092915050565b60005b838110156108cb5780820151818401526020810190506108b0565b60008484015250505050565b6000601f19601f8301169050919050565b60006108f3826104d5565b6108fd818561089c565b935061090d8185602086016108ad565b610916816108d7565b840191505092915050565b6000602082019050818103600083015261093b81846108e8565b905092915050565b600081519050919050565b6000819050602082019050919050565b600061096a8251610821565b80915050919050565b600061097e82610943565b826109888461094e565b90506109938161095e565b925060208210156109d3576109ce7fffffffffffffffffffffffffffffffffffffffffffffffffffffffffffffffff83602003600802610594565b831692505b5050919050565b60805160a05160c05160e0516101005161012051610140516120cb610a346000396000610ec501526000610e8a015260006113da015260006113b901526000610c3d01526000610c9301526000610cbc01526120cb6000f3fe608060405234801561001057600080fd5b506004361061012c5760003560e01c8063715018a6116100ad57806395d89b411161007157806395d89b4114610325578063a9059cbb14610343578063d505accf14610373578063dd62ed3e1461038f578063f2fde38b146103bf5761012c565b8063715018a61461028d57806379cc6790146102975780637ecebe00146102b357806384b0196e146102e35780638da5cb5b146103075761012c565b8063313ce567116100f4578063313ce567146101e95780633644e5151461020757806340c10f191461022557806342966c681461024157806370a082311461025d5761012c565b806306dd04191461013157806306fdde031461014d578063095ea7b31461016b57806318160ddd1461019b57806323b872dd146101b9575b600080fd5b61014b600480360381019061014691906118d0565b6103db565b005b6101556103f1565b60405161016291906119a0565b60405180910390f35b610185600480360381019061018091906118d0565b610483565b60405161019291906119dd565b60405180910390f35b6101a36104a6565b6040516101b09190611a07565b60405180910390f35b6101d360048036038101906101ce9190611a22565b6104b0565b6040516101e091906119dd565b60405180910390f35b6101f16104df565b6040516101fe9190611a91565b60405180910390f35b61020f6104e8565b60405161021c9190611ac5565b60405180910390f35b61023f600480360381019061023a91906118d0565b6104f7565b005b61025b60048036038101906102569190611ae0565b61050d565b005b61027760048036038101906102729190611b0d565b610521565b6040516102849190611a07565b60405180910390f35b610295610569565b005b6102b160048036038101906102ac91906118d0565b61057d565b005b6102cd60048036038101906102c89190611b0d565b61059d565b6040516102da9190611a07565b60405180910390f35b6102eb6105af565b6040516102fe9796959493929190611c42565b60405180910390f35b61030f610659565b60405161031c9190611cc6565b60405180910390f35b61032d610683565b60405161033a91906119a0565b60405180910390f35b61035d600480360381019061035891906118d0565b610715565b60405161036a91906119dd565b60405180910390f35b61038d60048036038101906103889190611d39565b610738565b005b6103a960048036038101906103a49190611ddb565b610880565b6040516103b69190611a07565b60405180910390f35b6103d960048036038101906103d49190611b0d565b610907565b005b6103e361098d565b6103ed8282610a14565b5050565b60606003805461040090611e4a565b80601f016020809104026020016040519081016040528092919081815260200182805461042c90611e4a565b80156104795780601f1061044e57610100808354040283529160200191610479565b820191906000526020600020905b81548152906001019060200180831161045c57829003601f168201915b5050505050905090565b60008061048e610a96565b905061049b818585610a9e565b600191505092915050565b6000600254905090565b6000806104bb610a96565b90506104c8858285610ab0565b6104d3858585610b45565b60019150509392505050565b60006012905090565b60006104f2610c39565b905090565b6104ff61098d565b6105098282610cf0565b5050565b61051e610518610a96565b82610a14565b50565b60008060008373ffffffffffffffffffffffffffffffffffffffff1673ffffffffffffffffffffffffffffffffffffffff168152602001908152602001600020549050919050565b61057161098d565b61057b6000610d72565b565b61058f82610589610a96565b83610ab0565b6105998282610a14565b5050565b60006105a882610e38565b9050919050565b6000606080600080600060606105c3610e81565b6105cb610ebc565b46306000801b600067ffffffffffffffff8111156105ec576105eb611e7b565b5b60405190808252806020026020018201604052801561061a5781602001602082028036833780820191505090505b507f0f00000000000000000000000000000000000000000000000000000000000000959493929190965096509650965096509650965090919293949596565b6000600560009054906101000a900473ffffffffffffffffffffffffffffffffffffffff16905090565b60606004805461069290611e4a565b80601f01602080910402602001604051908101604052809291908181526020018280546106be90611e4a565b801561070b5780601f106106e05761010080835404028352916020019161070b565b820191906000526020600020905b8154815290600101906020018083116106ee57829003601f168201915b5050505050905090565b600080610720610a96565b905061072d818585610b45565b600191505092915050565b8342111561077d57836040517f627913020000000000000000000000000000000000000000000000000000000081526004016107749190611a07565b60405180910390fd5b60007f6e71edae12b1b97f4d1f60370fef10105fa2faae0126114a169c64845d6126c98888886107ac8c610ef7565b896040516020016107c296959493929190611eaa565b60405160208183030381529060405280519060200120905060006107e582610f4e565b905060006107f582878787610f68565b90508973ffffffffffffffffffffffffffffffffffffffff168173ffffffffffffffffffffffffffffffffffffffff161461086957808a6040517f4b800e46000000000000000000000000000000000000000000000000000000008152600401610860929190611f0b565b60405180910390fd5b6108748a8a8a610a9e565b50505050505050505050565b6000600160008473ffffffffffffffffffffffffffffffffffffffff1673ffffffffffffffffffffffffffffffffffffffff16815260200190815260200160002060008373ffffffffffffffffffffffffffffffffffffffff1673ffffffffffffffffffffffffffffffffffffffff16815260200190815260200160002054905092915050565b61090f61098d565b600073ffffffffffffffffffffffffffffffffffffffff168173ffffffffffffffffffffffffffffffffffffffff16036109815760006040517f1e4fbdf70000000000000000000000000000000000000000000000000000000081526004016109789190611cc6565b60405180910390fd5b61098a81610d72565b50565b610995610a96565b73ffffffffffffffffffffffffffffffffffffffff166109b3610659565b73ffffffffffffffffffffffffffffffffffffffff1614610a12576109d6610a96565b6040517f118cdaa7000000000000000000000000000000000000000000000000000000008152600401610a099190611cc6565b60405180910390fd5b565b600073ffffffffffffffffffffffffffffffffffffffff168273ffffffffffffffffffffffffffffffffffffffff1603610a865760006040517f96c6fd1e000000000000000000000000000000000000000000000000000000008152600401610a7d9190611cc6565b60405180910390fd5b610a9282600083610f98565b5050565b600033905090565b610aab83838360016111bd565b505050565b6000610abc8484610880565b90507fffffffffffffffffffffffffffffffffffffffffffffffffffffffffffffffff811015610b3f5781811015610b2f578281836040517ffb8f41b2000000000000000000000000000000000000000000000000000000008152600401610b2693929190611f34565b60405180910390fd5b610b3e848484840360006111bd565b5b50505050565b600073ffffffffffffffffffffffffffffffffffffffff168373ffffffffffffffffffffffffffffffffffffffff1603610bb75760006040517f96c6fd1e000000000000000000000000000000000000000000000000000000008152600401610bae9190611cc6565b60405180910390fd5b600073ffffffffffffffffffffffffffffffffffffffff168273ffffffffffffffffffffffffffffffffffffffff1603610c295760006040517fec442f05000000000000000000000000000000000000000000000000000000008152600401610c209190611cc6565b60405180910390fd5b610c34838383610f98565b505050565b60007f000000000000000000000000000000000000000000000000000000000000000073ffffffffffffffffffffffffffffffffffffffff163073ffffffffffffffffffffffffffffffffffffffff16148015610cb557507f000000000000000000000000000000000000000000000000000000000000000046145b15610ce2577f00000000000000000000000000000000000000000000000000000000000000009050610ced565b610cea611394565b90505b90565b600073ffffffffffffffffffffffffffffffffffffffff168273ffffffffffffffffffffffffffffffffffffffff1603610d625760006040517fec442f05000000000000000000000000000000000000000000000000000000008152600401610d599190611cc6565b60405180910390fd5b610d6e60008383610f98565b5050565b6000600560009054906101000a900473ffffffffffffffffffffffffffffffffffffffff16905081600560006101000a81548173ffffffffffffffffffffffffffffffffffffffff021916908373ffffffffffffffffffffffffffffffffffffffff1602179055508173ffffffffffffffffffffffffffffffffffffffff168173ffffffffffffffffffffffffffffffffffffffff167f8be0079c531659141344cd1fd0a4f28419497f9722a3daafe3b4186f6b6457e060405160405180910390a35050565b6000600860008373ffffffffffffffffffffffffffffffffffffffff1673ffffffffffffffffffffffffffffffffffffffff168152602001908152602001600020549050919050565b6060610eb760067f000000000000000000000000000000000000000000000000000000000000000061142a90919063ffffffff16565b905090565b6060610ef260077f000000000000000000000000000000000000000000000000000000000000000061142a90919063ffffffff16565b905090565b6000600860008373ffffffffffffffffffffffffffffffffffffffff1673ffffffffffffffffffffffffffffffffffffffff1681526020019081526020016000206000815480929190600101919050559050919050565b6000610f61610f5b610c39565b836114da565b9050919050565b600080600080610f7a8888888861151b565b925092509250610f8a828261160f565b829350505050949350505050565b600073ffffffffffffffffffffffffffffffffffffffff168373ffffffffffffffffffffffffffffffffffffffff1603610fea578060026000828254610fde9190611f9a565b925050819055506110bd565b60008060008573ffffffffffffffffffffffffffffffffffffffff1673ffffffffffffffffffffffffffffffffffffffff16815260200190815260200160002054905081811015611076578381836040517fe450d38c00000000000000000000000000000000000000000000000000000000815260040161106d93929190611f34565b60405180910390fd5b8181036000808673ffffffffffffffffffffffffffffffffffffffff1673ffffffffffffffffffffffffffffffffffffffff16815260200190815260200160002081905550505b600073ffffffffffffffffffffffffffffffffffffffff168273ffffffffffffffffffffffffffffffffffffffff16036111065780600260008282540392505081905550611153565b806000808473ffffffffffffffffffffffffffffffffffffffff1673ffffffffffffffffffffffffffffffffffffffff168152602001908152602001600020600082825401925050819055505b8173ffffffffffffffffffffffffffffffffffffffff168373ffffffffffffffffffffffffffffffffffffffff167fddf252ad1be2c89b69c2b068fc378daa952ba7f163c4a11628f55a4df523b3ef836040516111b09190611a07565b60405180910390a3505050565b600073ffffffffffffffffffffffffffffffffffffffff168473ffffffffffffffffffffffffffffffffffffffff160361122f5760006040517fe602df050000000000000000000000000000000000000000000000000000000081526004016112269190611cc6565b60405180910390fd5b600073ffffffffffffffffffffffffffffffffffffffff168373ffffffffffffffffffffffffffffffffffffffff16036112a15760006040517f94280d620000000000000000000000000000000000000000000000000000000081526004016112989190611cc6565b60405180910390fd5b81600160008673ffffffffffffffffffffffffffffffffffffffff1673ffffffffffffffffffffffffffffffffffffffff16815260200190815260200160002060008573ffffffffffffffffffffffffffffffffffffffff1673ffffffffffffffffffffffffffffffffffffffff16815260200190815260200160002081905550801561138e578273ffffffffffffffffffffffffffffffffffffffff168473ffffffffffffffffffffffffffffffffffffffff167f8c5be1e5ebec7d5bd14f71427d1e84f3dd0314c0f7b2291e5b200ac8c7c3b925846040516113859190611a07565b60405180910390a35b50505050565b60007f8b73c3c69bb8fe3d512ecc4cf759cc79239f7b179b0ffacaa9a75d522b39400f7f00000000000000000000000000000000000000000000000000000000000000007f0000000000000000000000000000000000000000000000000000000000000000463060405160200161140f959493929190611fce565b60405160208183030381529060405280519060200120905090565b606060ff60001b83146114475761144083611773565b90506114d4565b81805461145390611e4a565b80601f016020809104026020016040519081016040528092919081815260200182805461147f90611e4a565b80156114cc5780601f106114a1576101008083540402835291602001916114cc565b820191906000526020600020905b8154815290600101906020018083116114af57829003601f168201915b505050505090505b92915050565b60006040517f190100000000000000000000000000000000000000000000000000000000000081528360028201528260228201526042812091505092915050565b60008060007f7fffffffffffffffffffffffffffffff5d576e7357a4501ddfe92f46681b20a08460001c111561155b576000600385925092509250611605565b6000600188888888604051600081526020016040526040516115809493929190612021565b6020604051602081039080840390855afa1580156115a2573d6000803e3d6000fd5b505050602060405103519050600073ffffffffffffffffffffffffffffffffffffffff168173ffffffffffffffffffffffffffffffffffffffff16036115f657600060016000801b93509350935050611605565b8060008060001b935093509350505b9450945094915050565b6000600381111561162357611622612066565b5b82600381111561163657611635612066565b5b031561176f57600160038111156116505761164f612066565b5b82600381111561166357611662612066565b5b0361169a576040517ff645eedf00000000000000000000000000000000000000000000000000000000815260040160405180910390fd5b600260038111156116ae576116ad612066565b5b8260038111156116c1576116c0612066565b5b03611706578060001c6040517ffce698f70000000000000000000000000000000000000000000000000000000081526004016116fd9190611a07565b60405180910390fd5b60038081111561171957611718612066565b5b82600381111561172c5761172b612066565b5b0361176e57806040517fd78bce0c0000000000000000000000000000000000000000000000000000000081526004016117659190611ac5565b60405180910390fd5b5b5050565b60606000611780836117e7565b90506000602067ffffffffffffffff81111561179f5761179e611e7b565b5b6040519080825280601f01601f1916602001820160405280156117d15781602001600182028036833780820191505090505b5090508181528360208201528092505050919050565b60008060ff8360001c169050601f81111561182e576040517fb3512b0c00000000000000000000000000000000000000000000000000000000815260040160405180910390fd5b80915050919050565b600080fd5b600073ffffffffffffffffffffffffffffffffffffffff82169050919050565b60006118678261183c565b9050919050565b6118778161185c565b811461188257600080fd5b50565b6000813590506118948161186e565b92915050565b6000819050919050565b6118ad8161189a565b81146118b857600080fd5b50565b6000813590506118ca816118a4565b92915050565b600080604083850312156118e7576118e6611837565b5b60006118f585828601611885565b9250506020611906858286016118bb565b9150509250929050565b600081519050919050565b600082825260208201905092915050565b60005b8381101561194a57808201518184015260208101905061192f565b60008484015250505050565b6000601f19601f8301169050919050565b600061197282611910565b61197c818561191b565b935061198c81856020860161192c565b61199581611956565b840191505092915050565b600060208201905081810360008301526119ba8184611967565b905092915050565b60008115159050919050565b6119d7816119c2565b82525050565b60006020820190506119f260008301846119ce565b92915050565b611a018161189a565b82525050565b6000602082019050611a1c60008301846119f8565b92915050565b600080600060608486031215611a3b57611a3a611837565b5b6000611a4986828701611885565b9350506020611a5a86828701611885565b9250506040611a6b868287016118bb565b9150509250925092565b600060ff82169050919050565b611a8b81611a75565b82525050565b6000602082019050611aa66000830184611a82565b92915050565b6000819050919050565b611abf81611aac565b82525050565b6000602082019050611ada6000830184611ab6565b92915050565b600060208284031215611af657611af5611837565b5b6000611b04848285016118bb565b91505092915050565b600060208284031215611b2357611b22611837565b5b6000611b3184828501611885565b91505092915050565b60007fff0000000000000000000000000000000000000000000000000000000000000082169050919050565b611b6f81611b3a565b82525050565b611b7e8161185c565b82525050565b600081519050919050565b600082825260208201905092915050565b6000819050602082019050919050565b611bb98161189a565b82525050565b6000611bcb8383611bb0565b60208301905092915050565b6000602082019050919050565b6000611bef82611b84565b611bf98185611b8f565b9350611c0483611ba0565b8060005b83811015611c35578151611c1c8882611bbf565b9750611c2783611bd7565b925050600181019050611c08565b5085935050505092915050565b600060e082019050611c57600083018a611b66565b8181036020830152611c698189611967565b90508181036040830152611c7d8188611967565b9050611c8c60608301876119f8565b611c996080830186611b75565b611ca660a0830185611ab6565b81810360c0830152611cb88184611be4565b905098975050505050505050565b6000602082019050611cdb6000830184611b75565b92915050565b611cea81611a75565b8114611cf557600080fd5b50565b600081359050611d0781611ce1565b92915050565b611d1681611aac565b8114611d2157600080fd5b50565b600081359050611d3381611d0d565b92915050565b600080600080600080600060e0888a031215611d5857611d57611837565b5b6000611d668a828b01611885565b9750506020611d778a828b01611885565b9650506040611d888a828b016118bb565b9550506060611d998a828b016118bb565b9450506080611daa8a828b01611cf8565b93505060a0611dbb8a828b01611d24565b92505060c0611dcc8a828b01611d24565b91505092959891949750929550565b60008060408385031215611df257611df1611837565b5b6000611e0085828601611885565b9250506020611e1185828601611885565b9150509250929050565b7f4e487b7100000000000000000000000000000000000000000000000000000000600052602260045260246000fd5b60006002820490506001821680611e6257607f821691505b602082108103611e7557611e74611e1b565b5b50919050565b7f4e487b7100000000000000000000000000000000000000000000000000000000600052604160045260246000fd5b600060c082019050611ebf6000830189611ab6565b611ecc6020830188611b75565b611ed96040830187611b75565b611ee660608301866119f8565b611ef360808301856119f8565b611f0060a08301846119f8565b979650505050505050565b6000604082019050611f206000830185611b75565b611f2d6020830184611b75565b9392505050565b6000606082019050611f496000830186611b75565b611f5660208301856119f8565b611f6360408301846119f8565b949350505050565b7f4e487b7100000000000000000000000000000000000000000000000000000000600052601160045260246000fd5b6000611fa58261189a565b9150611fb08361189a565b9250828201905080821115611fc857611fc7611f6b565b5b92915050565b600060a082019050611fe36000830188611ab6565b611ff06020830187611ab6565b611ffd6040830186611ab6565b61200a60608301856119f8565b6120176080830184611b75565b9695505050505050565b60006080820190506120366000830187611ab6565b6120436020830186611a82565b6120506040830185611ab6565b61205d6060830184611ab6565b95945050505050565b7f4e487b7100000000000000000000000000000000000000000000000000000000600052602160045260246000fdfea2646970667358221220e460a35b91637fc72de1e19d6129ad05398a457dd9e29631eb2bfb0bf23d93b364736f6c634300081c0033",
  "linkReferences": {},
  "deployedLinkReferences": {}
}