{
  "_format": "hh-sol-artifact-1",
  "contractName": "GrantContract",
  "sourceName": "contracts/GrantContract.sol",
  "abi": [
    {
      "inputs": [],
      "stateMutability": "nonpayable",
      "type": "constructor"
    },
    {
      "anonymous": false,
      "inputs": [
        {
          "indexed": false,
          "internalType": "address",
          "name": "beneficiary",
          "type": "address"
        },
        {
          "indexed": false,
          "internalType": "uint256",
          "name": "amount",
          "type": "uint256"
        },
        {
          "indexed": false,
          "internalType": "uint256",
          "name": "releaseTime",
          "type": "uint256"
        }
      ],
      "name": "GrantCreated",
      "type": "event"
    },
    {
      "anonymous": false,
      "inputs": [
        {
          "indexed": false,
          "internalType": "address",
          "name": "beneficiary",
          "type": "address"
        },
        {
          "indexed": false,
          "internalType": "uint256",
          "name": "amount",
          "type": "uint256"
        }
      ],
      "name": "GrantReverted",
      "type": "event"
    },
    {
      "anonymous": false,
      "inputs": [
        {
          "indexed": false,
          "internalType": "address",
          "name": "beneficiary",
          "type": "address"
        },
        {
          "indexed": false,
          "internalType": "uint256",
          "name": "amount",
          "type": "uint256"
        }
      ],
      "name": "GrantWithdrawn",
      "type": "event"
    },
    {
      "inputs": [
        {
          "internalType": "address",
          "name": "_beneficiary",
          "type": "address"
        },
        {
          "internalType": "uint256",
          "name": "_releaseTime",
          "type": "uint256"
        }
      ],
      "name": "createGrant",
      "outputs": [],
      "stateMutability": "payable",
      "type": "function"
    },
    {
      "inputs": [],
      "name": "getContractBalance",
      "outputs": [
        {
          "internalType": "uint256",
          "name": "",
          "type": "uint256"
        }
      ],
      "stateMutability": "view",
      "type": "function"
    },
    {
      "inputs": [
        {
          "internalType": "address",
          "name": "_beneficiary",
          "type": "address"
        }
      ],
      "name": "getGrantDetails",
      "outputs": [
        {
          "internalType": "uint256",
          "name": "",
          "type": "uint256"
        },
        {
          "internalType": "uint256",
          "name": "",
          "type": "uint256"
        },
        {
          "internalType": "bool",
          "name": "",
          "type": "bool"
        }
      ],
      "stateMutability": "view",
      "type": "function"
    },
    {
      "inputs": [
        {
          "internalType": "address",
          "name": "",
          "type": "address"
        }
      ],
      "name": "grants",
      "outputs": [
        {
          "internalType": "uint256",
          "name": "amount",
          "type": "uint256"
        },
        {
          "internalType": "uint256",
          "name": "releaseTime",
          "type": "uint256"
        },
        {
          "internalType": "bool",
          "name": "exists",
          "type": "bool"
        }
      ],
      "stateMutability": "view",
      "type": "function"
    },
    {
      "inputs": [],
      "name": "owner",
      "outputs": [
        {
          "internalType": "address",
          "name": "",
          "type": "address"
        }
      ],
      "stateMutability": "view",
      "type": "function"
    },
    {
      "inputs": [
        {
          "internalType": "address",
          "name": "_beneficiary",
          "type": "address"
        }
      ],
      "name": "revertGrant",
      "outputs": [],
      "stateMutability": "nonpayable",
      "type": "function"
    },
    {
      "inputs": [
        {
          "internalType": "address",
          "name": "_beneficiary",
          "type": "address"
        }
      ],
      "name": "timeLeft",
      "outputs": [
        {
          "internalType": "uint256",
          "name": "",
          "type": "uint256"
        }
      ],
      "stateMutability": "view",
      "type": "function"
    },
    {
      "inputs": [],
      "name": "totalFunds",
      "outputs": [
        {
          "internalType": "uint256",
          "name": "",
          "type": "uint256"
        }
      ],
      "stateMutability": "view",
      "type": "function"
    },
    {
      "inputs": [],
      "name": "withdrawGrant",
      "outputs": [],
      "stateMutability": "nonpayable",
      "type": "function"
    }
  ],
  "bytecode": "0x6080604052348015600f57600080fd5b50336000806101000a81548173ffffffffffffffffffffffffffffffffffffffff021916908373ffffffffffffffffffffffffffffffffffffffff1602179055506113188061005f6000396000f3fe6080604052600436106100865760003560e01c80636f9fb98a116100595780636f9fb98a1461014c5780638da5cb5b14610177578063968ed600146101a2578063992dbf75146101cd578063b869cea3146101e457610086565b80630b961c1f1461008b5780633dce2b46146100ca578063405c649c146100e65780636cb71df914610123575b600080fd5b34801561009757600080fd5b506100b260048036038101906100ad9190610cbf565b610223565b6040516100c193929190610d20565b60405180910390f35b6100e460048036038101906100df9190610d83565b6102c1565b005b3480156100f257600080fd5b5061010d60048036038101906101089190610cbf565b610550565b60405161011a9190610dc3565b60405180910390f35b34801561012f57600080fd5b5061014a60048036038101906101459190610cbf565b610689565b005b34801561015857600080fd5b50610161610994565b60405161016e9190610dc3565b60405180910390f35b34801561018357600080fd5b5061018c61099c565b6040516101999190610ded565b60405180910390f35b3480156101ae57600080fd5b506101b76109c0565b6040516101c49190610dc3565b60405180910390f35b3480156101d957600080fd5b506101e26109c6565b005b3480156101f057600080fd5b5061020b60048036038101906102069190610cbf565b610c25565b60405161021a93929190610d20565b60405180910390f35b600080600080600160008673ffffffffffffffffffffffffffffffffffffffff1673ffffffffffffffffffffffffffffffffffffffff16815260200190815260200160002060405180606001604052908160008201548152602001600182015481526020016002820160009054906101000a900460ff1615151515815250509050806000015181602001518260400151935093509350509193909250565b60008054906101000a900473ffffffffffffffffffffffffffffffffffffffff1673ffffffffffffffffffffffffffffffffffffffff163373ffffffffffffffffffffffffffffffffffffffff161461034f576040517f08c379a000000000000000000000000000000000000000000000000000000000815260040161034690610e8b565b60405180910390fd5b60003411610392576040517f08c379a000000000000000000000000000000000000000000000000000000000815260040161038990610f1d565b60405180910390fd5b600160008373ffffffffffffffffffffffffffffffffffffffff1673ffffffffffffffffffffffffffffffffffffffff16815260200190815260200160002060020160009054906101000a900460ff1615610422576040517f08c379a000000000000000000000000000000000000000000000000000000000815260040161041990610f89565b60405180910390fd5b428111610464576040517f08c379a000000000000000000000000000000000000000000000000000000000815260040161045b9061101b565b60405180910390fd5b604051806060016040528034815260200182815260200160011515815250600160008473ffffffffffffffffffffffffffffffffffffffff1673ffffffffffffffffffffffffffffffffffffffff168152602001908152602001600020600082015181600001556020820151816001015560408201518160020160006101000a81548160ff021916908315150217905550905050346002600082825461050a919061106a565b925050819055507fd15e75de59b97a644f8b5ec4577d26fe945f96b26b74d268e975badd4c9b6ca98234836040516105449392919061109e565b60405180910390a15050565b6000600160008373ffffffffffffffffffffffffffffffffffffffff1673ffffffffffffffffffffffffffffffffffffffff16815260200190815260200160002060020160009054906101000a900460ff166105e1576040517f08c379a00000000000000000000000000000000000000000000000000000000081526004016105d890611121565b60405180910390fd5b600160008373ffffffffffffffffffffffffffffffffffffffff1673ffffffffffffffffffffffffffffffffffffffff1681526020019081526020016000206001015442106106335760009050610684565b42600160008473ffffffffffffffffffffffffffffffffffffffff1673ffffffffffffffffffffffffffffffffffffffff168152602001908152602001600020600101546106819190611141565b90505b919050565b60008054906101000a900473ffffffffffffffffffffffffffffffffffffffff1673ffffffffffffffffffffffffffffffffffffffff163373ffffffffffffffffffffffffffffffffffffffff1614610717576040517f08c379a000000000000000000000000000000000000000000000000000000000815260040161070e90610e8b565b60405180910390fd5b600160008273ffffffffffffffffffffffffffffffffffffffff1673ffffffffffffffffffffffffffffffffffffffff16815260200190815260200160002060020160009054906101000a900460ff166107a6576040517f08c379a000000000000000000000000000000000000000000000000000000000815260040161079d90611121565b60405180910390fd5b600160008273ffffffffffffffffffffffffffffffffffffffff1673ffffffffffffffffffffffffffffffffffffffff16815260200190815260200160002060010154421061082a576040517f08c379a0000000000000000000000000000000000000000000000000000000008152600401610821906111c1565b60405180910390fd5b6000600160008373ffffffffffffffffffffffffffffffffffffffff1673ffffffffffffffffffffffffffffffffffffffff168152602001908152602001600020600001549050600160008373ffffffffffffffffffffffffffffffffffffffff1673ffffffffffffffffffffffffffffffffffffffff16815260200190815260200160002060008082016000905560018201600090556002820160006101000a81549060ff0219169055505080600260008282546108e99190611141565b9250508190555060008054906101000a900473ffffffffffffffffffffffffffffffffffffffff1673ffffffffffffffffffffffffffffffffffffffff166108fc829081150290604051600060405180830381858888f19350505050158015610956573d6000803e3d6000fd5b507fd8026ee69c7e854f8623f3de92662e61fb3aa1969b9faade53685153ba2a52d382826040516109889291906111e1565b60405180910390a15050565b600047905090565b60008054906101000a900473ffffffffffffffffffffffffffffffffffffffff1681565b60025481565b600160003373ffffffffffffffffffffffffffffffffffffffff1673ffffffffffffffffffffffffffffffffffffffff16815260200190815260200160002060020160009054906101000a900460ff16610a55576040517f08c379a0000000000000000000000000000000000000000000000000000000008152600401610a4c90611256565b60405180910390fd5b6000600160003373ffffffffffffffffffffffffffffffffffffffff1673ffffffffffffffffffffffffffffffffffffffff16815260200190815260200160002060405180606001604052908160008201548152602001600182015481526020016002820160009054906101000a900460ff16151515158152505090508060200151421015610b19576040517f08c379a0000000000000000000000000000000000000000000000000000000008152600401610b10906112c2565b60405180910390fd5b600081600001519050600160003373ffffffffffffffffffffffffffffffffffffffff1673ffffffffffffffffffffffffffffffffffffffff16815260200190815260200160002060008082016000905560018201600090556002820160006101000a81549060ff021916905550508060026000828254610b9a9190611141565b925050819055503373ffffffffffffffffffffffffffffffffffffffff166108fc829081150290604051600060405180830381858888f19350505050158015610be7573d6000803e3d6000fd5b507fdce59fc7b8b185a882896cca7a033953e920a1712af333122d3b7ccd5f3c98773382604051610c199291906111e1565b60405180910390a15050565b60016020528060005260406000206000915090508060000154908060010154908060020160009054906101000a900460ff16905083565b600080fd5b600073ffffffffffffffffffffffffffffffffffffffff82169050919050565b6000610c8c82610c61565b9050919050565b610c9c81610c81565b8114610ca757600080fd5b50565b600081359050610cb981610c93565b92915050565b600060208284031215610cd557610cd4610c5c565b5b6000610ce384828501610caa565b91505092915050565b6000819050919050565b610cff81610cec565b82525050565b60008115159050919050565b610d1a81610d05565b82525050565b6000606082019050610d356000830186610cf6565b610d426020830185610cf6565b610d4f6040830184610d11565b949350505050565b610d6081610cec565b8114610d6b57600080fd5b50565b600081359050610d7d81610d57565b92915050565b60008060408385031215610d9a57610d99610c5c565b5b6000610da885828601610caa565b9250506020610db985828601610d6e565b9150509250929050565b6000602082019050610dd86000830184610cf6565b92915050565b610de781610c81565b82525050565b6000602082019050610e026000830184610dde565b92915050565b600082825260208201905092915050565b7f4f6e6c79206f776e65722063616e20706572666f726d2074686973206163746960008201527f6f6e000000000000000000000000000000000000000000000000000000000000602082015250565b6000610e75602283610e08565b9150610e8082610e19565b604082019050919050565b60006020820190508181036000830152610ea481610e68565b9050919050565b7f4772616e7420616d6f756e74206d75737420626520677265617465722074686160008201527f6e207a65726f0000000000000000000000000000000000000000000000000000602082015250565b6000610f07602683610e08565b9150610f1282610eab565b604082019050919050565b60006020820190508181036000830152610f3681610efa565b9050919050565b7f42656e656669636961727920616c7265616479206861732061206772616e7400600082015250565b6000610f73601f83610e08565b9150610f7e82610f3d565b602082019050919050565b60006020820190508181036000830152610fa281610f66565b9050919050565b7f52656c656173652074696d65206d75737420626520696e20746865206675747560008201527f7265000000000000000000000000000000000000000000000000000000000000602082015250565b6000611005602283610e08565b915061101082610fa9565b604082019050919050565b6000602082019050818103600083015261103481610ff8565b9050919050565b7f4e487b7100000000000000000000000000000000000000000000000000000000600052601160045260246000fd5b600061107582610cec565b915061108083610cec565b92508282019050808211156110985761109761103b565b5b92915050565b60006060820190506110b36000830186610dde565b6110c06020830185610cf6565b6110cd6040830184610cf6565b949350505050565b7f4772616e7420646f6573206e6f74206578697374000000000000000000000000600082015250565b600061110b601483610e08565b9150611116826110d5565b602082019050919050565b6000602082019050818103600083015261113a816110fe565b9050919050565b600061114c82610cec565b915061115783610cec565b925082820390508181111561116f5761116e61103b565b5b92915050565b7f4772616e7420616c72656164792072656c656173656400000000000000000000600082015250565b60006111ab601683610e08565b91506111b682611175565b602082019050919050565b600060208201905081810360008301526111da8161119e565b9050919050565b60006040820190506111f66000830185610dde565b6112036020830184610cf6565b9392505050565b7f4e6f206772616e742061737369676e6564000000000000000000000000000000600082015250565b6000611240601183610e08565b915061124b8261120a565b602082019050919050565b6000602082019050818103600083015261126f81611233565b9050919050565b7f4772616e74206e6f742079657420617661696c61626c65000000000000000000600082015250565b60006112ac601783610e08565b91506112b782611276565b602082019050919050565b600060208201905081810360008301526112db8161129f565b905091905056fea2646970667358221220906df452eef834957fe12676cc1e772ee41e2db47bcf8530b4900966e53b5e5e64736f6c634300081c0033",
  "linkReferences": {},
  "deployedLinkReferences": {}
}