{
  "_format": "hh-sol-artifact-1",
  "contractName": "GrantContract",
  "sourceName": "contracts/GrantContract.sol",
  "abi": [
    {
      "inputs": [],
      "stateMutability": "nonpayable",
      "type": "constructor"
    },
    {
      "anonymous": false,
      "inputs": [
        {
          "indexed": true,
          "internalType": "address",
          "name": "beneficiary",
          "type": "address"
        },
        {
          "indexed": false,
          "internalType": "uint256",
          "name": "amount",
          "type": "uint256"
        }
      ],
      "name": "ClaimedGrant",
      "type": "event"
    },
    {
      "anonymous": false,
      "inputs": [
        {
          "indexed": true,
          "internalType": "address",
          "name": "beneficiary",
          "type": "address"
        },
        {
          "indexed": false,
          "internalType": "uint256",
          "name": "amount",
          "type": "uint256"
        },
        {
          "indexed": false,
          "internalType": "uint256",
          "name": "releaseTime",
          "type": "uint256"
        }
      ],
      "name": "GrantCreated",
      "type": "event"
    },
    {
      "anonymous": false,
      "inputs": [
        {
          "indexed": true,
          "internalType": "address",
          "name": "beneficiary",
          "type": "address"
        },
        {
          "indexed": false,
          "internalType": "uint256",
          "name": "amount",
          "type": "uint256"
        }
      ],
      "name": "GrantReverted",
      "type": "event"
    },
    {
      "inputs": [],
      "name": "claimGrant",
      "outputs": [],
      "stateMutability": "nonpayable",
      "type": "function"
    },
    {
      "inputs": [
        {
          "internalType": "address",
          "name": "beneficiary",
          "type": "address"
        },
        {
          "internalType": "uint256",
          "name": "releaseTime",
          "type": "uint256"
        }
      ],
      "name": "createGrant",
      "outputs": [],
      "stateMutability": "payable",
      "type": "function"
    },
    {
      "inputs": [
        {
          "internalType": "address",
          "name": "beneficiary",
          "type": "address"
        }
      ],
      "name": "getGrantDetails",
      "outputs": [
        {
          "internalType": "uint256",
          "name": "amount",
          "type": "uint256"
        },
        {
          "internalType": "uint256",
          "name": "releaseTime",
          "type": "uint256"
        }
      ],
      "stateMutability": "view",
      "type": "function"
    },
    {
      "inputs": [
        {
          "internalType": "address",
          "name": "beneficiary",
          "type": "address"
        }
      ],
      "name": "getTimeLeft",
      "outputs": [
        {
          "internalType": "uint256",
          "name": "",
          "type": "uint256"
        }
      ],
      "stateMutability": "view",
      "type": "function"
    },
    {
      "inputs": [],
      "name": "getTotalFunds",
      "outputs": [
        {
          "internalType": "uint256",
          "name": "",
          "type": "uint256"
        }
      ],
      "stateMutability": "view",
      "type": "function"
    },
    {
      "inputs": [
        {
          "internalType": "address",
          "name": "",
          "type": "address"
        }
      ],
      "name": "grants",
      "outputs": [
        {
          "internalType": "uint256",
          "name": "amount",
          "type": "uint256"
        },
        {
          "internalType": "uint256",
          "name": "releaseTime",
          "type": "uint256"
        },
        {
          "internalType": "bool",
          "name": "exists",
          "type": "bool"
        }
      ],
      "stateMutability": "view",
      "type": "function"
    },
    {
      "inputs": [],
      "name": "owner",
      "outputs": [
        {
          "internalType": "address",
          "name": "",
          "type": "address"
        }
      ],
      "stateMutability": "view",
      "type": "function"
    },
    {
      "inputs": [
        {
          "internalType": "address",
          "name": "beneficiary",
          "type": "address"
        }
      ],
      "name": "revertGrant",
      "outputs": [],
      "stateMutability": "nonpayable",
      "type": "function"
    },
    {
      "stateMutability": "payable",
      "type": "receive"
    }
  ],
  "bytecode": "0x6080604052348015600f57600080fd5b50336000806101000a81548173ffffffffffffffffffffffffffffffffffffffff021916908373ffffffffffffffffffffffffffffffffffffffff1602179055506113448061005f6000396000f3fe60806040526004361061007f5760003560e01c80636cb71df91161004e5780636cb71df9146101395780638da5cb5b14610162578063b869cea31461018d578063eb8bbd28146101cc57610086565b80630b961c1f1461008b578063111eb8b1146100c95780633dce2b46146101065780635d22e77c1461012257610086565b3661008657005b600080fd5b34801561009757600080fd5b506100b260048036038101906100ad9190610d0a565b6101f7565b6040516100c0929190610d50565b60405180910390f35b3480156100d557600080fd5b506100f060048036038101906100eb9190610d0a565b61031a565b6040516100fd9190610d79565b60405180910390f35b610120600480360381019061011b9190610dc0565b610455565b005b34801561012e57600080fd5b506101376106e0565b005b34801561014557600080fd5b50610160600480360381019061015b9190610d0a565b61093b565b005b34801561016e57600080fd5b50610177610c44565b6040516101849190610e0f565b60405180910390f35b34801561019957600080fd5b506101b460048036038101906101af9190610d0a565b610c68565b6040516101c393929190610e45565b60405180910390f35b3480156101d857600080fd5b506101e1610c9f565b6040516101ee9190610d79565b60405180910390f35b600080600160008473ffffffffffffffffffffffffffffffffffffffff1673ffffffffffffffffffffffffffffffffffffffff16815260200190815260200160002060020160009054906101000a900460ff16610289576040517f08c379a000000000000000000000000000000000000000000000000000000000815260040161028090610ed9565b60405180910390fd5b6000600160008573ffffffffffffffffffffffffffffffffffffffff1673ffffffffffffffffffffffffffffffffffffffff16815260200190815260200160002060405180606001604052908160008201548152602001600182015481526020016002820160009054906101000a900460ff1615151515815250509050806000015181602001519250925050915091565b600081600160008273ffffffffffffffffffffffffffffffffffffffff1673ffffffffffffffffffffffffffffffffffffffff16815260200190815260200160002060020160009054906101000a900460ff166103ac576040517f08c379a00000000000000000000000000000000000000000000000000000000081526004016103a390610f45565b60405180910390fd5b600160008473ffffffffffffffffffffffffffffffffffffffff1673ffffffffffffffffffffffffffffffffffffffff1681526020019081526020016000206001015442106103fe576000915061044f565b42600160008573ffffffffffffffffffffffffffffffffffffffff1673ffffffffffffffffffffffffffffffffffffffff1681526020019081526020016000206001015461044c9190610f94565b91505b50919050565b60008054906101000a900473ffffffffffffffffffffffffffffffffffffffff1673ffffffffffffffffffffffffffffffffffffffff163373ffffffffffffffffffffffffffffffffffffffff16146104e3576040517f08c379a00000000000000000000000000000000000000000000000000000000081526004016104da90611014565b60405180910390fd5b60003411610526576040517f08c379a000000000000000000000000000000000000000000000000000000000815260040161051d906110a6565b60405180910390fd5b428111610568576040517f08c379a000000000000000000000000000000000000000000000000000000000815260040161055f90611138565b60405180910390fd5b600160008373ffffffffffffffffffffffffffffffffffffffff1673ffffffffffffffffffffffffffffffffffffffff16815260200190815260200160002060020160009054906101000a900460ff16156105f8576040517f08c379a00000000000000000000000000000000000000000000000000000000081526004016105ef906111ca565b60405180910390fd5b604051806060016040528034815260200182815260200160011515815250600160008473ffffffffffffffffffffffffffffffffffffffff1673ffffffffffffffffffffffffffffffffffffffff168152602001908152602001600020600082015181600001556020820151816001015560408201518160020160006101000a81548160ff0219169083151502179055509050508173ffffffffffffffffffffffffffffffffffffffff167fd15e75de59b97a644f8b5ec4577d26fe945f96b26b74d268e975badd4c9b6ca934836040516106d4929190610d50565b60405180910390a25050565b33600160008273ffffffffffffffffffffffffffffffffffffffff1673ffffffffffffffffffffffffffffffffffffffff16815260200190815260200160002060020160009054906101000a900460ff16610770576040517f08c379a000000000000000000000000000000000000000000000000000000000815260040161076790610f45565b60405180910390fd5b6000600160003373ffffffffffffffffffffffffffffffffffffffff1673ffffffffffffffffffffffffffffffffffffffff16815260200190815260200160002060405180606001604052908160008201548152602001600182015481526020016002820160009054906101000a900460ff16151515158152505090508060200151421015610834576040517f08c379a000000000000000000000000000000000000000000000000000000000815260040161082b9061125c565b60405180910390fd5b600160003373ffffffffffffffffffffffffffffffffffffffff1673ffffffffffffffffffffffffffffffffffffffff16815260200190815260200160002060008082016000905560018201600090556002820160006101000a81549060ff021916905550503373ffffffffffffffffffffffffffffffffffffffff166108fc82600001519081150290604051600060405180830381858888f193505050501580156108e4573d6000803e3d6000fd5b503373ffffffffffffffffffffffffffffffffffffffff167fabb7e1b0086889cde72c2a7d00df604f5af84a9f44668ebcdf331c7dec5de240826000015160405161092f9190610d79565b60405180910390a25050565b60008054906101000a900473ffffffffffffffffffffffffffffffffffffffff1673ffffffffffffffffffffffffffffffffffffffff163373ffffffffffffffffffffffffffffffffffffffff16146109c9576040517f08c379a00000000000000000000000000000000000000000000000000000000081526004016109c090611014565b60405180910390fd5b80600160008273ffffffffffffffffffffffffffffffffffffffff1673ffffffffffffffffffffffffffffffffffffffff16815260200190815260200160002060020160009054906101000a900460ff16610a59576040517f08c379a0000000000000000000000000000000000000000000000000000000008152600401610a5090610f45565b60405180910390fd5b600160008373ffffffffffffffffffffffffffffffffffffffff1673ffffffffffffffffffffffffffffffffffffffff168152602001908152602001600020600101544210610add576040517f08c379a0000000000000000000000000000000000000000000000000000000008152600401610ad4906112ee565b60405180910390fd5b6000600160008473ffffffffffffffffffffffffffffffffffffffff1673ffffffffffffffffffffffffffffffffffffffff168152602001908152602001600020600001549050600160008473ffffffffffffffffffffffffffffffffffffffff1673ffffffffffffffffffffffffffffffffffffffff16815260200190815260200160002060008082016000905560018201600090556002820160006101000a81549060ff0219169055505060008054906101000a900473ffffffffffffffffffffffffffffffffffffffff1673ffffffffffffffffffffffffffffffffffffffff166108fc829081150290604051600060405180830381858888f19350505050158015610bf0573d6000803e3d6000fd5b508273ffffffffffffffffffffffffffffffffffffffff167fd8026ee69c7e854f8623f3de92662e61fb3aa1969b9faade53685153ba2a52d382604051610c379190610d79565b60405180910390a2505050565b60008054906101000a900473ffffffffffffffffffffffffffffffffffffffff1681565b60016020528060005260406000206000915090508060000154908060010154908060020160009054906101000a900460ff16905083565b600047905090565b600080fd5b600073ffffffffffffffffffffffffffffffffffffffff82169050919050565b6000610cd782610cac565b9050919050565b610ce781610ccc565b8114610cf257600080fd5b50565b600081359050610d0481610cde565b92915050565b600060208284031215610d2057610d1f610ca7565b5b6000610d2e84828501610cf5565b91505092915050565b6000819050919050565b610d4a81610d37565b82525050565b6000604082019050610d656000830185610d41565b610d726020830184610d41565b9392505050565b6000602082019050610d8e6000830184610d41565b92915050565b610d9d81610d37565b8114610da857600080fd5b50565b600081359050610dba81610d94565b92915050565b60008060408385031215610dd757610dd6610ca7565b5b6000610de585828601610cf5565b9250506020610df685828601610dab565b9150509250929050565b610e0981610ccc565b82525050565b6000602082019050610e246000830184610e00565b92915050565b60008115159050919050565b610e3f81610e2a565b82525050565b6000606082019050610e5a6000830186610d41565b610e676020830185610d41565b610e746040830184610e36565b949350505050565b600082825260208201905092915050565b7f4772616e7420646f6573206e6f742065786973742c2074727920616761696e00600082015250565b6000610ec3601f83610e7c565b9150610ece82610e8d565b602082019050919050565b60006020820190508181036000830152610ef281610eb6565b9050919050565b7f4772616e7420646f6573206e6f74206578697374000000000000000000000000600082015250565b6000610f2f601483610e7c565b9150610f3a82610ef9565b602082019050919050565b60006020820190508181036000830152610f5e81610f22565b9050919050565b7f4e487b7100000000000000000000000000000000000000000000000000000000600052601160045260246000fd5b6000610f9f82610d37565b9150610faa83610d37565b9250828203905081811115610fc257610fc1610f65565b5b92915050565b7f4e6f7420746865206f776e657200000000000000000000000000000000000000600082015250565b6000610ffe600d83610e7c565b915061100982610fc8565b602082019050919050565b6000602082019050818103600083015261102d81610ff1565b9050919050565b7f48656c6c6f2074686572652c20746865204772616e74206d757374206861766560008201527f2066756e64730000000000000000000000000000000000000000000000000000602082015250565b6000611090602683610e7c565b915061109b82611034565b604082019050919050565b600060208201905081810360008301526110bf81611083565b9050919050565b7f4f6f70732c207468652072656c656173652074696d65206d757374206265206960008201527f6e20746865206675747572652c2074727920616761696e000000000000000000602082015250565b6000611122603783610e7c565b915061112d826110c6565b604082019050919050565b6000602082019050818103600083015261115181611115565b9050919050565b7f4865726520776520676f2c204772616e7420616c72656164792065786973747360008201527f2c2074727920616761696e000000000000000000000000000000000000000000602082015250565b60006111b4602b83610e7c565b91506111bf82611158565b604082019050919050565b600060208201905081810360008301526111e3816111a7565b9050919050565b7f456879612c204772616e74206973206e6f742079657420617661696c61626c6560008201527f2c207761697420756e74696c2069742069730000000000000000000000000000602082015250565b6000611246603283610e7c565b9150611251826111ea565b604082019050919050565b6000602082019050818103600083015261127581611239565b9050919050565b7f4f7563682c204772616e742063616e6e6f74206265207265766572746564206160008201527f667465722072656c656173652074696d65000000000000000000000000000000602082015250565b60006112d8603183610e7c565b91506112e38261127c565b604082019050919050565b60006020820190508181036000830152611307816112cb565b905091905056fea2646970667358221220b669bba4b95e5492a29bf1974b7308eb5d68eb8d0b184ec6ecd49adc47ea4c7164736f6c634300081c0033",
  "linkReferences": {},
  "deployedLinkReferences": {}
}