{
  "_format": "hh-sol-artifact-1",
  "contractName": "Rocket",
  "sourceName": "contracts/Rocket.sol",
  "abi": [
    {
      "inputs": [
        {
          "internalType": "string",
          "name": "_name",
          "type": "string"
        }
      ],
      "stateMutability": "nonpayable",
      "type": "constructor"
    },
    {
      "inputs": [],
      "name": "getStatus",
      "outputs": [
        {
          "internalType": "string",
          "name": "",
          "type": "string"
        }
      ],
      "stateMutability": "view",
      "type": "function"
    },
    {
      "inputs": [],
      "name": "launch",
      "outputs": [],
      "stateMutability": "nonpayable",
      "type": "function"
    },
    {
      "inputs": [],
      "name": "name",
      "outputs": [
        {
          "internalType": "string",
          "name": "",
          "type": "string"
        }
      ],
      "stateMutability": "view",
      "type": "function"
    },
    {
      "inputs": [],
      "name": "startEngine",
      "outputs": [],
      "stateMutability": "nonpayable",
      "type": "function"
    },
    {
      "inputs": [],
      "name": "status",
      "outputs": [
        {
          "internalType": "string",
          "name": "",
          "type": "string"
        }
      ],
      "stateMutability": "view",
      "type": "function"
    },
    {
      "inputs": [],
      "name": "stopEngine",
      "outputs": [],
      "stateMutability": "nonpayable",
      "type": "function"
    }
  ],
  "bytecode": "0x608060405234801561001057600080fd5b50604051610cae380380610cae83398181016040528101906100329190610202565b8060009081610041919061046c565b506040518060400160405280600481526020017f69646c650000000000000000000000000000000000000000000000000000000081525060019081610086919061046c565b505061053e565b6000604051905090565b600080fd5b600080fd5b600080fd5b600080fd5b6000601f19601f8301169050919050565b7f4e487b7100000000000000000000000000000000000000000000000000000000600052604160045260246000fd5b6100f4826100ab565b810181811067ffffffffffffffff82111715610113576101126100bc565b5b80604052505050565b600061012661008d565b905061013282826100eb565b919050565b600067ffffffffffffffff821115610152576101516100bc565b5b61015b826100ab565b9050602081019050919050565b60005b8381101561018657808201518184015260208101905061016b565b60008484015250505050565b60006101a56101a084610137565b61011c565b9050828152602081018484840111156101c1576101c06100a6565b5b6101cc848285610168565b509392505050565b600082601f8301126101e9576101e86100a1565b5b81516101f9848260208601610192565b91505092915050565b60006020828403121561021857610217610097565b5b600082015167ffffffffffffffff8111156102365761023561009c565b5b610242848285016101d4565b91505092915050565b600081519050919050565b7f4e487b7100000000000000000000000000000000000000000000000000000000600052602260045260246000fd5b6000600282049050600182168061029d57607f821691505b6020821081036102b0576102af610256565b5b50919050565b60008190508160005260206000209050919050565b60006020601f8301049050919050565b600082821b905092915050565b6000600883026103187fffffffffffffffffffffffffffffffffffffffffffffffffffffffffffffffff826102db565b61032286836102db565b95508019841693508086168417925050509392505050565b6000819050919050565b6000819050919050565b600061036961036461035f8461033a565b610344565b61033a565b9050919050565b6000819050919050565b6103838361034e565b61039761038f82610370565b8484546102e8565b825550505050565b600090565b6103ac61039f565b6103b781848461037a565b505050565b5b818110156103db576103d06000826103a4565b6001810190506103bd565b5050565b601f821115610420576103f1816102b6565b6103fa846102cb565b81016020851015610409578190505b61041d610415856102cb565b8301826103bc565b50505b505050565b600082821c905092915050565b600061044360001984600802610425565b1980831691505092915050565b600061045c8383610432565b9150826002028217905092915050565b6104758261024b565b67ffffffffffffffff81111561048e5761048d6100bc565b5b6104988254610285565b6104a38282856103df565b600060209050601f8311600181146104d657600084156104c4578287015190505b6104ce8582610450565b865550610536565b601f1984166104e4866102b6565b60005b8281101561050c578489015182556001820191506020850194506020810190506104e7565b868310156105295784890151610525601f891682610432565b8355505b6001600288020188555050505b505050505050565b6107618061054d6000396000f3fe608060405234801561001057600080fd5b50600436106100625760003560e01c806301339c211461006757806306fdde0314610071578063200d2ed21461008f5780634e69d560146100ad57806381fb4963146100cb57806384d4e4eb146100d5575b600080fd5b61006f6100df565b005b610079610126565b60405161008691906103f2565b60405180910390f35b6100976101b4565b6040516100a491906103f2565b60405180910390f35b6100b5610242565b6040516100c291906103f2565b60405180910390f35b6100d36102d4565b005b6100dd61031b565b005b6040518060400160405280600881526020017f6c61756e63686564000000000000000000000000000000000000000000000000815250600190816101239190610659565b50565b6000805461013390610472565b80601f016020809104026020016040519081016040528092919081815260200182805461015f90610472565b80156101ac5780601f10610181576101008083540402835291602001916101ac565b820191906000526020600020905b81548152906001019060200180831161018f57829003601f168201915b505050505081565b600180546101c190610472565b80601f01602080910402602001604051908101604052809291908181526020018280546101ed90610472565b801561023a5780601f1061020f5761010080835404028352916020019161023a565b820191906000526020600020905b81548152906001019060200180831161021d57829003601f168201915b505050505081565b60606001805461025190610472565b80601f016020809104026020016040519081016040528092919081815260200182805461027d90610472565b80156102ca5780601f1061029f576101008083540402835291602001916102ca565b820191906000526020600020905b8154815290600101906020018083116102ad57829003601f168201915b5050505050905090565b6040518060400160405280600781526020017f7374617274656400000000000000000000000000000000000000000000000000815250600190816103189190610659565b50565b6040518060400160405280600781526020017f73746f70706564000000000000000000000000000000000000000000000000008152506001908161035f9190610659565b50565b600081519050919050565b600082825260208201905092915050565b60005b8381101561039c578082015181840152602081019050610381565b60008484015250505050565b6000601f19601f8301169050919050565b60006103c482610362565b6103ce818561036d565b93506103de81856020860161037e565b6103e7816103a8565b840191505092915050565b6000602082019050818103600083015261040c81846103b9565b905092915050565b7f4e487b7100000000000000000000000000000000000000000000000000000000600052604160045260246000fd5b7f4e487b7100000000000000000000000000000000000000000000000000000000600052602260045260246000fd5b6000600282049050600182168061048a57607f821691505b60208210810361049d5761049c610443565b5b50919050565b60008190508160005260206000209050919050565b60006020601f8301049050919050565b600082821b905092915050565b6000600883026105057fffffffffffffffffffffffffffffffffffffffffffffffffffffffffffffffff826104c8565b61050f86836104c8565b95508019841693508086168417925050509392505050565b6000819050919050565b6000819050919050565b600061055661055161054c84610527565b610531565b610527565b9050919050565b6000819050919050565b6105708361053b565b61058461057c8261055d565b8484546104d5565b825550505050565b600090565b61059961058c565b6105a4818484610567565b505050565b5b818110156105c8576105bd600082610591565b6001810190506105aa565b5050565b601f82111561060d576105de816104a3565b6105e7846104b8565b810160208510156105f6578190505b61060a610602856104b8565b8301826105a9565b50505b505050565b600082821c905092915050565b600061063060001984600802610612565b1980831691505092915050565b6000610649838361061f565b9150826002028217905092915050565b61066282610362565b67ffffffffffffffff81111561067b5761067a610414565b5b6106858254610472565b6106908282856105cc565b600060209050601f8311600181146106c357600084156106b1578287015190505b6106bb858261063d565b865550610723565b601f1984166106d1866104a3565b60005b828110156106f9578489015182556001820191506020850194506020810190506106d4565b868310156107165784890151610712601f89168261061f565b8355505b6001600288020188555050505b50505050505056fea26469706673582212207511fd873a59a4732fa54681ce2c1c756b20bb6ba6f95348ee253088f7f2550464736f6c634300081c0033",
  "linkReferences": {},
  "deployedLinkReferences": {}
}