{
  "_format": "hh-sol-artifact-1",
  "contractName": "Vote",
  "sourceName": "contracts/Vote.sol",
  "abi": [
    {
      "anonymous": false,
      "inputs": [
        {
          "indexed": false,
          "internalType": "uint256",
          "name": "electionIndex",
          "type": "uint256"
        },
        {
          "indexed": false,
          "internalType": "string",
          "name": "name",
          "type": "string"
        },
        {
          "indexed": false,
          "internalType": "string",
          "name": "party",
          "type": "string"
        },
        {
          "indexed": false,
          "internalType": "string",
          "name": "manifesto",
          "type": "string"
        }
      ],
      "name": "ContestantRegistered",
      "type": "event"
    },
    {
      "anonymous": false,
      "inputs": [
        {
          "indexed": false,
          "internalType": "uint256",
          "name": "electionIndex",
          "type": "uint256"
        }
      ],
      "name": "VotingEnded",
      "type": "event"
    },
    {
      "anonymous": false,
      "inputs": [
        {
          "indexed": false,
          "internalType": "uint256",
          "name": "electionIndex",
          "type": "uint256"
        }
      ],
      "name": "VotingStarted",
      "type": "event"
    },
    {
      "inputs": [
        {
          "internalType": "uint256",
          "name": "electionIndex",
          "type": "uint256"
        },
        {
          "internalType": "address",
          "name": "adminAddress",
          "type": "address"
        }
      ],
      "name": "addElectionAdmin",
      "outputs": [],
      "stateMutability": "nonpayable",
      "type": "function"
    },
    {
      "inputs": [
        {
          "internalType": "string",
          "name": "_name",
          "type": "string"
        },
        {
          "internalType": "uint256",
          "name": "_duration",
          "type": "uint256"
        }
      ],
      "name": "createElection",
      "outputs": [
        {
          "components": [
            {
              "internalType": "string",
              "name": "name",
              "type": "string"
            },
            {
              "internalType": "uint256",
              "name": "duration",
              "type": "uint256"
            },
            {
              "internalType": "uint256",
              "name": "startTime",
              "type": "uint256"
            },
            {
              "internalType": "uint256",
              "name": "endTime",
              "type": "uint256"
            },
            {
              "internalType": "bool",
              "name": "isActive",
              "type": "bool"
            },
            {
              "components": [
                {
                  "internalType": "string",
                  "name": "name",
                  "type": "string"
                },
                {
                  "internalType": "uint8",
                  "name": "age",
                  "type": "uint8"
                },
                {
                  "internalType": "string",
                  "name": "party",
                  "type": "string"
                },
                {
                  "internalType": "string",
                  "name": "manifesto",
                  "type": "string"
                },
                {
                  "internalType": "uint256",
                  "name": "votes",
                  "type": "uint256"
                }
              ],
              "internalType": "struct Vote.Contestant",
              "name": "winner",
              "type": "tuple"
            },
            {
              "internalType": "address[]",
              "name": "admins",
              "type": "address[]"
            },
            {
              "components": [
                {
                  "internalType": "string",
                  "name": "name",
                  "type": "string"
                },
                {
                  "internalType": "uint8",
                  "name": "age",
                  "type": "uint8"
                },
                {
                  "internalType": "string",
                  "name": "party",
                  "type": "string"
                },
                {
                  "internalType": "string",
                  "name": "manifesto",
                  "type": "string"
                },
                {
                  "internalType": "uint256",
                  "name": "votes",
                  "type": "uint256"
                }
              ],
              "internalType": "struct Vote.Contestant[]",
              "name": "contestants",
              "type": "tuple[]"
            }
          ],
          "internalType": "struct Vote.Election",
          "name": "",
          "type": "tuple"
        }
      ],
      "stateMutability": "nonpayable",
      "type": "function"
    },
    {
      "inputs": [
        {
          "internalType": "uint256",
          "name": "",
          "type": "uint256"
        }
      ],
      "name": "elections",
      "outputs": [
        {
          "internalType": "string",
          "name": "name",
          "type": "string"
        },
        {
          "internalType": "uint256",
          "name": "duration",
          "type": "uint256"
        },
        {
          "internalType": "uint256",
          "name": "startTime",
          "type": "uint256"
        },
        {
          "internalType": "uint256",
          "name": "endTime",
          "type": "uint256"
        },
        {
          "internalType": "bool",
          "name": "isActive",
          "type": "bool"
        },
        {
          "components": [
            {
              "internalType": "string",
              "name": "name",
              "type": "string"
            },
            {
              "internalType": "uint8",
              "name": "age",
              "type": "uint8"
            },
            {
              "internalType": "string",
              "name": "party",
              "type": "string"
            },
            {
              "internalType": "string",
              "name": "manifesto",
              "type": "string"
            },
            {
              "internalType": "uint256",
              "name": "votes",
              "type": "uint256"
            }
          ],
          "internalType": "struct Vote.Contestant",
          "name": "winner",
          "type": "tuple"
        }
      ],
      "stateMutability": "view",
      "type": "function"
    },
    {
      "inputs": [
        {
          "internalType": "uint256",
          "name": "electionIndex",
          "type": "uint256"
        }
      ],
      "name": "endElection",
      "outputs": [],
      "stateMutability": "nonpayable",
      "type": "function"
    },
    {
      "inputs": [
        {
          "internalType": "uint256",
          "name": "electionIndex",
          "type": "uint256"
        }
      ],
      "name": "getWinner",
      "outputs": [
        {
          "components": [
            {
              "internalType": "string",
              "name": "name",
              "type": "string"
            },
            {
              "internalType": "uint8",
              "name": "age",
              "type": "uint8"
            },
            {
              "internalType": "string",
              "name": "party",
              "type": "string"
            },
            {
              "internalType": "string",
              "name": "manifesto",
              "type": "string"
            },
            {
              "internalType": "uint256",
              "name": "votes",
              "type": "uint256"
            }
          ],
          "internalType": "struct Vote.Contestant",
          "name": "",
          "type": "tuple"
        }
      ],
      "stateMutability": "view",
      "type": "function"
    },
    {
      "inputs": [
        {
          "internalType": "uint256",
          "name": "electionIndex",
          "type": "uint256"
        },
        {
          "internalType": "string",
          "name": "_name",
          "type": "string"
        },
        {
          "internalType": "uint8",
          "name": "age",
          "type": "uint8"
        },
        {
          "internalType": "string",
          "name": "_party",
          "type": "string"
        },
        {
          "internalType": "string",
          "name": "_manifesto",
          "type": "string"
        }
      ],
      "name": "registerContestant",
      "outputs": [
        {
          "components": [
            {
              "internalType": "string",
              "name": "name",
              "type": "string"
            },
            {
              "internalType": "uint8",
              "name": "age",
              "type": "uint8"
            },
            {
              "internalType": "string",
              "name": "party",
              "type": "string"
            },
            {
              "internalType": "string",
              "name": "manifesto",
              "type": "string"
            },
            {
              "internalType": "uint256",
              "name": "votes",
              "type": "uint256"
            }
          ],
          "internalType": "struct Vote.Contestant",
          "name": "",
          "type": "tuple"
        }
      ],
      "stateMutability": "nonpayable",
      "type": "function"
    },
    {
      "inputs": [
        {
          "internalType": "string",
          "name": "_name",
          "type": "string"
        },
        {
          "internalType": "uint8",
          "name": "age",
          "type": "uint8"
        },
        {
          "internalType": "string",
          "name": "_nin",
          "type": "string"
        },
        {
          "internalType": "string",
          "name": "_nationality",
          "type": "string"
        }
      ],
      "name": "registerSelfAsVoter",
      "outputs": [],
      "stateMutability": "nonpayable",
      "type": "function"
    },
    {
      "inputs": [
        {
          "internalType": "address",
          "name": "voterAddress",
          "type": "address"
        },
        {
          "internalType": "uint256",
          "name": "electionIndex",
          "type": "uint256"
        }
      ],
      "name": "registerVoterForElection",
      "outputs": [],
      "stateMutability": "nonpayable",
      "type": "function"
    },
    {
      "inputs": [
        {
          "internalType": "uint256",
          "name": "electionIndex",
          "type": "uint256"
        }
      ],
      "name": "startElection",
      "outputs": [],
      "stateMutability": "nonpayable",
      "type": "function"
    },
    {
      "inputs": [
        {
          "internalType": "uint256",
          "name": "electionIndex",
          "type": "uint256"
        },
        {
          "internalType": "uint256",
          "name": "contestantIndex",
          "type": "uint256"
        }
      ],
      "name": "vote",
      "outputs": [],
      "stateMutability": "nonpayable",
      "type": "function"
    },
    {
      "inputs": [
        {
          "internalType": "address",
          "name": "",
          "type": "address"
        }
      ],
      "name": "voters",
      "outputs": [
        {
          "internalType": "string",
          "name": "name",
          "type": "string"
        },
        {
          "internalType": "uint8",
          "name": "age",
          "type": "uint8"
        },
        {
          "internalType": "string",
          "name": "NIN",
          "type": "string"
        },
        {
          "internalType": "string",
          "name": "nationality",
          "type": "string"
        }
      ],
      "stateMutability": "view",
      "type": "function"
    }
  ],
  "bytecode": "0x6080604052348015600f57600080fd5b506144588061001f6000396000f3fe608060405234801561001057600080fd5b50600436106100a95760003560e01c80636d32dc4b116100715780636d32dc4b1461018f5780639c98bcbb146101ab578063a3ec138d146101c7578063b384abef146101fa578063c803aa3814610216578063d1baa1c814610232576100a9565b806319e3c3df146100ae5780634129b2c9146100de578063432cf2ce1461010e5780635b0ebc9c1461013e5780635e6fef011461015a575b600080fd5b6100c860048036038101906100c39190612e24565b61024e565b6040516100d59190613014565b60405180910390f35b6100f860048036038101906100f39190613036565b61094b565b6040516101059190613014565b60405180910390f35b61012860048036038101906101239190613063565b610be5565b60405161013591906133d5565b60405180910390f35b61015860048036038101906101539190613423565b6113b1565b005b610174600480360381019061016f9190613036565b611748565b604051610186969594939291906134cb565b60405180910390f35b6101a960048036038101906101a49190613036565b611a10565b005b6101c560048036038101906101c09190613036565b611c23565b005b6101e160048036038101906101dc919061353a565b612122565b6040516101f19493929190613576565b60405180910390f35b610214600480360381019061020f91906135d0565b6122f7565b005b610230600480360381019061022b9190613610565b6126f1565b005b61024c600480360381019061024791906136cb565b6128a0565b005b610256612b0a565b85600080549050811061029e576040517f08c379a000000000000000000000000000000000000000000000000000000000815260040161029590613757565b60405180910390fd5b600081815481106102b2576102b1613777565b5b90600052602060002090600c020160040160009054906101000a900460ff1615610311576040517f08c379a0000000000000000000000000000000000000000000000000000000008152600401610308906137f2565b60405180910390fd5b86600080828154811061032757610326613777565b5b90600052602060002090600c020190506000805b82600a01805490508110156103d3573373ffffffffffffffffffffffffffffffffffffffff1683600a01828154811061037757610376613777565b5b9060005260206000200160009054906101000a900473ffffffffffffffffffffffffffffffffffffffff1673ffffffffffffffffffffffffffffffffffffffff16036103c657600191506103d3565b808060010191505061033b565b5080610414576040517f08c379a000000000000000000000000000000000000000000000000000000000815260040161040b9061385e565b60405180910390fd5b60005b60008b8154811061042b5761042a613777565b5b90600052602060002090600c0201600b0180549050811015610529578960405160200161045891906138ba565b6040516020818303038152906040528051906020012060008c8154811061048257610481613777565b5b90600052602060002090600c0201600b0182815481106104a5576104a4613777565b5b90600052602060002090600502016000016040516020016104c691906139c9565b604051602081830303815290604052805190602001200361051c576040517f08c379a000000000000000000000000000000000000000000000000000000000815260040161051390613a2c565b60405180910390fd5b8080600101915050610417565b5060008a8154811061053e5761053d613777565b5b90600052602060002090600c0201600b01600181600181540180825580915050039060005260206000209050506000808b815481106105805761057f613777565b5b90600052602060002090600c0201600b01600160008d815481106105a7576105a6613777565b5b90600052602060002090600c0201600b01805490506105c69190613a7b565b815481106105d7576105d6613777565b5b90600052602060002090600502019050898160000190816105f89190613c46565b50888160010160006101000a81548160ff021916908360ff160217905550878160020190816106279190613c46565b50868160030190816106399190613c46565b506000816004018190555060008b8154811061065857610657613777565b5b90600052602060002090600c0201600b01819080600181540180825580915050600190039060005260206000209060050201600090919091909150600082018160000190816106a79190613d2e565b506001820160009054906101000a900460ff168160010160006101000a81548160ff021916908360ff160217905550600282018160020190816106ea9190613d2e565b50600382018160030190816106ff9190613d2e565b506004820154816004015550507fe525cab89071b86fc696efb2b5d19685714cf630578fc4bd4080c96cb011dd668b82600001836002018460030160405161074a9493929190613e9a565b60405180910390a1806040518060a001604052908160008201805461076e90613900565b80601f016020809104026020016040519081016040528092919081815260200182805461079a90613900565b80156107e75780601f106107bc576101008083540402835291602001916107e7565b820191906000526020600020905b8154815290600101906020018083116107ca57829003601f168201915b505050505081526020016001820160009054906101000a900460ff1660ff1660ff16815260200160028201805461081d90613900565b80601f016020809104026020016040519081016040528092919081815260200182805461084990613900565b80156108965780601f1061086b57610100808354040283529160200191610896565b820191906000526020600020905b81548152906001019060200180831161087957829003601f168201915b505050505081526020016003820180546108af90613900565b80601f01602080910402602001604051908101604052809291908181526020018280546108db90613900565b80156109285780601f106108fd57610100808354040283529160200191610928565b820191906000526020600020905b81548152906001019060200180831161090b57829003601f168201915b505050505081526020016004820154815250509550505050505095945050505050565b610953612b0a565b600015156000838154811061096b5761096a613777565b5b90600052602060002090600c020160040160009054906101000a900460ff161515146109cc576040517f08c379a00000000000000000000000000000000000000000000000000000000081526004016109c390613f40565b60405180910390fd5b60008083815481106109e1576109e0613777565b5b90600052602060002090600c02016005016040518060a0016040529081600082018054610a0d90613900565b80601f0160208091040260200160405190810160405280929190818152602001828054610a3990613900565b8015610a865780601f10610a5b57610100808354040283529160200191610a86565b820191906000526020600020905b815481529060010190602001808311610a6957829003601f168201915b505050505081526020016001820160009054906101000a900460ff1660ff1660ff168152602001600282018054610abc90613900565b80601f0160208091040260200160405190810160405280929190818152602001828054610ae890613900565b8015610b355780601f10610b0a57610100808354040283529160200191610b35565b820191906000526020600020905b815481529060010190602001808311610b1857829003601f168201915b50505050508152602001600382018054610b4e90613900565b80601f0160208091040260200160405190810160405280929190818152602001828054610b7a90613900565b8015610bc75780601f10610b9c57610100808354040283529160200191610bc7565b820191906000526020600020905b815481529060010190602001808311610baa57829003601f168201915b50505050508152602001600482015481525050905080915050919050565b610bed612b3c565b6000808054905090506000600181600181540180825580915050039060005260206000209050506000808281548110610c2957610c28613777565b5b90600052602060002090600c0201905084816000019081610c4a9190613c46565b50838160010181905550600081600201819055506000816003018190555060008160040160006101000a81548160ff0219169083151502179055506040518060a00160405280604051806020016040528060008152508152602001600060ff1681526020016040518060200160405280600081525081526020016040518060200160405280600081525081526020016000815250816005016000820151816000019081610cf79190613c46565b5060208201518160010160006101000a81548160ff021916908360ff1602179055506040820151816002019081610d2e9190613c46565b506060820151816003019081610d449190613c46565b5060808201518160040155905050600567ffffffffffffffff811115610d6d57610d6c612cc0565b5b604051908082528060200260200182016040528015610d9b5781602001602082028036833780820191505090505b5081600a019080519060200190610db3929190612b89565b503381600a01600081548110610dcc57610dcb613777565b5b9060005260206000200160006101000a81548173ffffffffffffffffffffffffffffffffffffffff021916908373ffffffffffffffffffffffffffffffffffffffff1602179055508060405180610100016040529081600082018054610e3190613900565b80601f0160208091040260200160405190810160405280929190818152602001828054610e5d90613900565b8015610eaa5780601f10610e7f57610100808354040283529160200191610eaa565b820191906000526020600020905b815481529060010190602001808311610e8d57829003601f168201915b505050505081526020016001820154815260200160028201548152602001600382015481526020016004820160009054906101000a900460ff16151515158152602001600582016040518060a0016040529081600082018054610f0c90613900565b80601f0160208091040260200160405190810160405280929190818152602001828054610f3890613900565b8015610f855780601f10610f5a57610100808354040283529160200191610f85565b820191906000526020600020905b815481529060010190602001808311610f6857829003601f168201915b505050505081526020016001820160009054906101000a900460ff1660ff1660ff168152602001600282018054610fbb90613900565b80601f0160208091040260200160405190810160405280929190818152602001828054610fe790613900565b80156110345780601f1061100957610100808354040283529160200191611034565b820191906000526020600020905b81548152906001019060200180831161101757829003601f168201915b5050505050815260200160038201805461104d90613900565b80601f016020809104026020016040519081016040528092919081815260200182805461107990613900565b80156110c65780601f1061109b576101008083540402835291602001916110c6565b820191906000526020600020905b8154815290600101906020018083116110a957829003601f168201915b505050505081526020016004820154815250508152602001600a820180548060200260200160405190810160405280929190818152602001828054801561116257602002820191906000526020600020905b8160009054906101000a900473ffffffffffffffffffffffffffffffffffffffff1673ffffffffffffffffffffffffffffffffffffffff1681526020019060010190808311611118575b50505050508152602001600b8201805480602002602001604051908101604052809291908181526020016000905b8282101561139f57838290600052602060002090600502016040518060a00160405290816000820180546111c390613900565b80601f01602080910402602001604051908101604052809291908181526020018280546111ef90613900565b801561123c5780601f106112115761010080835404028352916020019161123c565b820191906000526020600020905b81548152906001019060200180831161121f57829003601f168201915b505050505081526020016001820160009054906101000a900460ff1660ff1660ff16815260200160028201805461127290613900565b80601f016020809104026020016040519081016040528092919081815260200182805461129e90613900565b80156112eb5780601f106112c0576101008083540402835291602001916112eb565b820191906000526020600020905b8154815290600101906020018083116112ce57829003601f168201915b5050505050815260200160038201805461130490613900565b80601f016020809104026020016040519081016040528092919081815260200182805461133090613900565b801561137d5780601f106113525761010080835404028352916020019161137d565b820191906000526020600020905b81548152906001019060200180831161136057829003601f168201915b5050505050815260200160048201548152505081526020019060010190611190565b50505050815250509250505092915050565b8060008054905081106113f9576040517f08c379a00000000000000000000000000000000000000000000000000000000081526004016113f090613757565b60405180910390fd5b6000818154811061140d5761140c613777565b5b90600052602060002090600c020160040160009054906101000a900460ff1661146b576040517f08c379a000000000000000000000000000000000000000000000000000000000815260040161146290613fac565b60405180910390fd5b6000818154811061147f5761147e613777565b5b90600052602060002090600c02016003015442106114cf577f81eb7415440ff8e6c8e92606fd3b0e5e6a5c99ea90cdb63b41aec54e897312b3816040516114c69190613fcc565b60405180910390a15b600081815481106114e3576114e2613777565b5b90600052602060002090600c0201600301544210611536576040517f08c379a000000000000000000000000000000000000000000000000000000000815260040161152d90614033565b60405180910390fd5b81600080828154811061154c5761154b613777565b5b90600052602060002090600c020190506000805b82600a01805490508110156115f8573373ffffffffffffffffffffffffffffffffffffffff1683600a01828154811061159c5761159b613777565b5b9060005260206000200160009054906101000a900473ffffffffffffffffffffffffffffffffffffffff1673ffffffffffffffffffffffffffffffffffffffff16036115eb57600191506115f8565b8080600101915050611560565b5080611639576040517f08c379a00000000000000000000000000000000000000000000000000000000081526004016116309061385e565b60405180910390fd5b600260008773ffffffffffffffffffffffffffffffffffffffff1673ffffffffffffffffffffffffffffffffffffffff168152602001908152602001600020600086815260200190815260200160002060009054906101000a900460ff16156116d7576040517f08c379a00000000000000000000000000000000000000000000000000000000081526004016116ce9061409f565b60405180910390fd5b6001600260008873ffffffffffffffffffffffffffffffffffffffff1673ffffffffffffffffffffffffffffffffffffffff168152602001908152602001600020600087815260200190815260200160002060006101000a81548160ff021916908315150217905550505050505050565b6000818154811061175857600080fd5b90600052602060002090600c020160009150905080600001805461177b90613900565b80601f01602080910402602001604051908101604052809291908181526020018280546117a790613900565b80156117f45780601f106117c9576101008083540402835291602001916117f4565b820191906000526020600020905b8154815290600101906020018083116117d757829003601f168201915b5050505050908060010154908060020154908060030154908060040160009054906101000a900460ff1690806005016040518060a001604052908160008201805461183e90613900565b80601f016020809104026020016040519081016040528092919081815260200182805461186a90613900565b80156118b75780601f1061188c576101008083540402835291602001916118b7565b820191906000526020600020905b81548152906001019060200180831161189a57829003601f168201915b505050505081526020016001820160009054906101000a900460ff1660ff1660ff1681526020016002820180546118ed90613900565b80601f016020809104026020016040519081016040528092919081815260200182805461191990613900565b80156119665780601f1061193b57610100808354040283529160200191611966565b820191906000526020600020905b81548152906001019060200180831161194957829003601f168201915b5050505050815260200160038201805461197f90613900565b80601f01602080910402602001604051908101604052809291908181526020018280546119ab90613900565b80156119f85780601f106119cd576101008083540402835291602001916119f8565b820191906000526020600020905b8154815290600101906020018083116119db57829003601f168201915b50505050508152602001600482015481525050905086565b806000808281548110611a2657611a25613777565b5b90600052602060002090600c020190506000805b82600a0180549050811015611ad2573373ffffffffffffffffffffffffffffffffffffffff1683600a018281548110611a7657611a75613777565b5b9060005260206000200160009054906101000a900473ffffffffffffffffffffffffffffffffffffffff1673ffffffffffffffffffffffffffffffffffffffff1603611ac55760019150611ad2565b8080600101915050611a3a565b5080611b13576040517f08c379a0000000000000000000000000000000000000000000000000000000008152600401611b0a9061385e565b60405180910390fd5b600160008581548110611b2957611b28613777565b5b90600052602060002090600c020160040160006101000a81548160ff0219169083151502179055504260008581548110611b6657611b65613777565b5b90600052602060002090600c02016002018190555060008481548110611b8f57611b8e613777565b5b90600052602060002090600c02016001015442611bac91906140bf565b60008581548110611bc057611bbf613777565b5b90600052602060002090600c0201600301819055507fcf33babc496bb6dc2942b39cb7b75766bbbadf7da50d176ff8c513e9911402396001600080549050611c089190613a7b565b604051611c159190613fcc565b60405180910390a150505050565b806000805490508110611c6b576040517f08c379a0000000000000000000000000000000000000000000000000000000008152600401611c6290613757565b60405180910390fd5b60008181548110611c7f57611c7e613777565b5b90600052602060002090600c020160040160009054906101000a900460ff16611cdd576040517f08c379a0000000000000000000000000000000000000000000000000000000008152600401611cd490613fac565b60405180910390fd5b60008181548110611cf157611cf0613777565b5b90600052602060002090600c0201600301544210611d41577f81eb7415440ff8e6c8e92606fd3b0e5e6a5c99ea90cdb63b41aec54e897312b381604051611d389190613fcc565b60405180910390a15b60008181548110611d5557611d54613777565b5b90600052602060002090600c0201600301544210611da8576040517f08c379a0000000000000000000000000000000000000000000000000000000008152600401611d9f90614033565b60405180910390fd5b816000808281548110611dbe57611dbd613777565b5b90600052602060002090600c020190506000805b82600a0180549050811015611e6a573373ffffffffffffffffffffffffffffffffffffffff1683600a018281548110611e0e57611e0d613777565b5b9060005260206000200160009054906101000a900473ffffffffffffffffffffffffffffffffffffffff1673ffffffffffffffffffffffffffffffffffffffff1603611e5d5760019150611e6a565b8080600101915050611dd2565b5080611eab576040517f08c379a0000000000000000000000000000000000000000000000000000000008152600401611ea29061385e565b60405180910390fd5b6000808681548110611ec057611ebf613777565b5b90600052602060002090600c020160040160006101000a81548160ff0219169083151502179055506000808681548110611efd57611efc613777565b5b90600052602060002090600c0201600b018054905011611f52576040517f08c379a0000000000000000000000000000000000000000000000000000000008152600401611f499061413f565b60405180910390fd5b60008060005b60008881548110611f6c57611f6b613777565b5b90600052602060002090600c0201600b0180549050811015612034578260008981548110611f9d57611f9c613777565b5b90600052602060002090600c0201600b018281548110611fc057611fbf613777565b5b90600052602060002090600502016004015411156120275760008881548110611fec57611feb613777565b5b90600052602060002090600c0201600b01818154811061200f5761200e613777565b5b90600052602060002090600502016004015492508091505b8080600101915050611f58565b506000878154811061204957612048613777565b5b90600052602060002090600c0201600b01818154811061206c5761206b613777565b5b90600052602060002090600502016000888154811061208e5761208d613777565b5b90600052602060002090600c0201600501600082018160000190816120b39190613d2e565b506001820160009054906101000a900460ff168160010160006101000a81548160ff021916908360ff160217905550600282018160020190816120f69190613d2e565b506003820181600301908161210b9190613d2e565b506004820154816004015590505050505050505050565b600160205280600052604060002060009150905080600001805461214590613900565b80601f016020809104026020016040519081016040528092919081815260200182805461217190613900565b80156121be5780601f10612193576101008083540402835291602001916121be565b820191906000526020600020905b8154815290600101906020018083116121a157829003601f168201915b5050505050908060010160009054906101000a900460ff16908060020180546121e690613900565b80601f016020809104026020016040519081016040528092919081815260200182805461221290613900565b801561225f5780601f106122345761010080835404028352916020019161225f565b820191906000526020600020905b81548152906001019060200180831161224257829003601f168201915b50505050509080600301805461227490613900565b80601f01602080910402602001604051908101604052809291908181526020018280546122a090613900565b80156122ed5780601f106122c2576101008083540402835291602001916122ed565b820191906000526020600020905b8154815290600101906020018083116122d057829003601f168201915b5050505050905084565b81600080549050811061233f576040517f08c379a000000000000000000000000000000000000000000000000000000000815260040161233690613757565b60405180910390fd5b6000818154811061235357612352613777565b5b90600052602060002090600c020160040160009054906101000a900460ff166123b1576040517f08c379a00000000000000000000000000000000000000000000000000000000081526004016123a890613fac565b60405180910390fd5b600081815481106123c5576123c4613777565b5b90600052602060002090600c0201600301544210612415577f81eb7415440ff8e6c8e92606fd3b0e5e6a5c99ea90cdb63b41aec54e897312b38160405161240c9190613fcc565b60405180910390a15b6000818154811061242957612428613777565b5b90600052602060002090600c020160030154421061247c576040517f08c379a000000000000000000000000000000000000000000000000000000000815260040161247390614033565b60405180910390fd5b82600260003373ffffffffffffffffffffffffffffffffffffffff1673ffffffffffffffffffffffffffffffffffffffff168152602001908152602001600020600082815260200190815260200160002060009054906101000a900460ff1661251a576040517f08c379a0000000000000000000000000000000000000000000000000000000008152600401612511906141ab565b60405180910390fd5b600360003373ffffffffffffffffffffffffffffffffffffffff1673ffffffffffffffffffffffffffffffffffffffff168152602001908152602001600020600085815260200190815260200160002060009054906101000a900460ff16156125b8576040517f08c379a00000000000000000000000000000000000000000000000000000000081526004016125af90614217565b60405180910390fd5b600084815481106125cc576125cb613777565b5b90600052602060002090600c0201600b01805490508310612622576040517f08c379a000000000000000000000000000000000000000000000000000000000815260040161261990614283565b60405180910390fd5b60016000858154811061263857612637613777565b5b90600052602060002090600c0201600b01848154811061265b5761265a613777565b5b9060005260206000209060050201600401600082825461267b91906140bf565b925050819055506001600360003373ffffffffffffffffffffffffffffffffffffffff1673ffffffffffffffffffffffffffffffffffffffff168152602001908152602001600020600086815260200190815260200160002060006101000a81548160ff02191690831515021790555050505050565b604051602001612700906142c9565b60405160208183030381529060405280519060200120600160003373ffffffffffffffffffffffffffffffffffffffff1673ffffffffffffffffffffffffffffffffffffffff16815260200190815260200160002060000160405160200161276891906139c9565b60405160208183030381529060405280519060200120146127be576040517f08c379a00000000000000000000000000000000000000000000000000000000081526004016127b59061432a565b60405180910390fd5b6127c6612c13565b84816000018190525083816020019060ff16908160ff168152505082816040018190525081816060018190525080600160003373ffffffffffffffffffffffffffffffffffffffff1673ffffffffffffffffffffffffffffffffffffffff16815260200190815260200160002060008201518160000190816128489190613c46565b5060208201518160010160006101000a81548160ff021916908360ff160217905550604082015181600201908161287f9190613c46565b5060608201518160030190816128959190613c46565b509050505050505050565b8160008082815481106128b6576128b5613777565b5b90600052602060002090600c020190506000805b82600a0180549050811015612962573373ffffffffffffffffffffffffffffffffffffffff1683600a01828154811061290657612905613777565b5b9060005260206000200160009054906101000a900473ffffffffffffffffffffffffffffffffffffffff1673ffffffffffffffffffffffffffffffffffffffff16036129555760019150612962565b80806001019150506128ca565b50806129a3576040517f08c379a000000000000000000000000000000000000000000000000000000000815260040161299a9061385e565b60405180910390fd5b600073ffffffffffffffffffffffffffffffffffffffff168473ffffffffffffffffffffffffffffffffffffffff1603612a12576040517f08c379a0000000000000000000000000000000000000000000000000000000008152600401612a0990614396565b60405180910390fd5b600560008681548110612a2857612a27613777565b5b90600052602060002090600c0201600a018054905010612a7d576040517f08c379a0000000000000000000000000000000000000000000000000000000008152600401612a7490614402565b60405180910390fd5b60008581548110612a9157612a90613777565b5b90600052602060002090600c0201600a01849080600181540180825580915050600190039060005260206000200160009091909190916101000a81548173ffffffffffffffffffffffffffffffffffffffff021916908373ffffffffffffffffffffffffffffffffffffffff1602179055505050505050565b6040518060a0016040528060608152602001600060ff1681526020016060815260200160608152602001600081525090565b60405180610100016040528060608152602001600081526020016000815260200160008152602001600015158152602001612b75612b0a565b815260200160608152602001606081525090565b828054828255906000526020600020908101928215612c02579160200282015b82811115612c015782518260006101000a81548173ffffffffffffffffffffffffffffffffffffffff021916908373ffffffffffffffffffffffffffffffffffffffff16021790555091602001919060010190612ba9565b5b509050612c0f9190612c3e565b5090565b604051806080016040528060608152602001600060ff16815260200160608152602001606081525090565b5b80821115612c57576000816000905550600101612c3f565b5090565b6000604051905090565b600080fd5b600080fd5b6000819050919050565b612c8281612c6f565b8114612c8d57600080fd5b50565b600081359050612c9f81612c79565b92915050565b600080fd5b600080fd5b6000601f19601f8301169050919050565b7f4e487b7100000000000000000000000000000000000000000000000000000000600052604160045260246000fd5b612cf882612caf565b810181811067ffffffffffffffff82111715612d1757612d16612cc0565b5b80604052505050565b6000612d2a612c5b565b9050612d368282612cef565b919050565b600067ffffffffffffffff821115612d5657612d55612cc0565b5b612d5f82612caf565b9050602081019050919050565b82818337600083830152505050565b6000612d8e612d8984612d3b565b612d20565b905082815260208101848484011115612daa57612da9612caa565b5b612db5848285612d6c565b509392505050565b600082601f830112612dd257612dd1612ca5565b5b8135612de2848260208601612d7b565b91505092915050565b600060ff82169050919050565b612e0181612deb565b8114612e0c57600080fd5b50565b600081359050612e1e81612df8565b92915050565b600080600080600060a08688031215612e4057612e3f612c65565b5b6000612e4e88828901612c90565b955050602086013567ffffffffffffffff811115612e6f57612e6e612c6a565b5b612e7b88828901612dbd565b9450506040612e8c88828901612e0f565b935050606086013567ffffffffffffffff811115612ead57612eac612c6a565b5b612eb988828901612dbd565b925050608086013567ffffffffffffffff811115612eda57612ed9612c6a565b5b612ee688828901612dbd565b9150509295509295909350565b600081519050919050565b600082825260208201905092915050565b60005b83811015612f2d578082015181840152602081019050612f12565b60008484015250505050565b6000612f4482612ef3565b612f4e8185612efe565b9350612f5e818560208601612f0f565b612f6781612caf565b840191505092915050565b612f7b81612deb565b82525050565b612f8a81612c6f565b82525050565b600060a0830160008301518482036000860152612fad8282612f39565b9150506020830151612fc26020860182612f72565b5060408301518482036040860152612fda8282612f39565b91505060608301518482036060860152612ff48282612f39565b91505060808301516130096080860182612f81565b508091505092915050565b6000602082019050818103600083015261302e8184612f90565b905092915050565b60006020828403121561304c5761304b612c65565b5b600061305a84828501612c90565b91505092915050565b6000806040838503121561307a57613079612c65565b5b600083013567ffffffffffffffff81111561309857613097612c6a565b5b6130a485828601612dbd565b92505060206130b585828601612c90565b9150509250929050565b60008115159050919050565b6130d4816130bf565b82525050565b600060a08301600083015184820360008601526130f78282612f39565b915050602083015161310c6020860182612f72565b50604083015184820360408601526131248282612f39565b9150506060830151848203606086015261313e8282612f39565b91505060808301516131536080860182612f81565b508091505092915050565b600081519050919050565b600082825260208201905092915050565b6000819050602082019050919050565b600073ffffffffffffffffffffffffffffffffffffffff82169050919050565b60006131b58261318a565b9050919050565b6131c5816131aa565b82525050565b60006131d783836131bc565b60208301905092915050565b6000602082019050919050565b60006131fb8261315e565b6132058185613169565b93506132108361317a565b8060005b8381101561324157815161322888826131cb565b9750613233836131e3565b925050600181019050613214565b5085935050505092915050565b600081519050919050565b600082825260208201905092915050565b6000819050602082019050919050565b600061328683836130da565b905092915050565b6000602082019050919050565b60006132a68261324e565b6132b08185613259565b9350836020820285016132c28561326a565b8060005b858110156132fe57848403895281516132df858261327a565b94506132ea8361328e565b925060208a019950506001810190506132c6565b50829750879550505050505092915050565b600061010083016000830151848203600086015261332e8282612f39565b91505060208301516133436020860182612f81565b5060408301516133566040860182612f81565b5060608301516133696060860182612f81565b50608083015161337c60808601826130cb565b5060a083015184820360a086015261339482826130da565b91505060c083015184820360c08601526133ae82826131f0565b91505060e083015184820360e08601526133c8828261329b565b9150508091505092915050565b600060208201905081810360008301526133ef8184613310565b905092915050565b613400816131aa565b811461340b57600080fd5b50565b60008135905061341d816133f7565b92915050565b6000806040838503121561343a57613439612c65565b5b60006134488582860161340e565b925050602061345985828601612c90565b9150509250929050565b600082825260208201905092915050565b600061347f82612ef3565b6134898185613463565b9350613499818560208601612f0f565b6134a281612caf565b840191505092915050565b6134b681612c6f565b82525050565b6134c5816130bf565b82525050565b600060c08201905081810360008301526134e58189613474565b90506134f460208301886134ad565b61350160408301876134ad565b61350e60608301866134ad565b61351b60808301856134bc565b81810360a083015261352d8184612f90565b9050979650505050505050565b6000602082840312156135505761354f612c65565b5b600061355e8482850161340e565b91505092915050565b61357081612deb565b82525050565b600060808201905081810360008301526135908187613474565b905061359f6020830186613567565b81810360408301526135b18185613474565b905081810360608301526135c58184613474565b905095945050505050565b600080604083850312156135e7576135e6612c65565b5b60006135f585828601612c90565b925050602061360685828601612c90565b9150509250929050565b6000806000806080858703121561362a57613629612c65565b5b600085013567ffffffffffffffff81111561364857613647612c6a565b5b61365487828801612dbd565b945050602061366587828801612e0f565b935050604085013567ffffffffffffffff81111561368657613685612c6a565b5b61369287828801612dbd565b925050606085013567ffffffffffffffff8111156136b3576136b2612c6a565b5b6136bf87828801612dbd565b91505092959194509250565b600080604083850312156136e2576136e1612c65565b5b60006136f085828601612c90565b92505060206137018582860161340e565b9150509250929050565b7f456c656374696f6e20646f6573206e6f74206578697374000000000000000000600082015250565b6000613741601783613463565b915061374c8261370b565b602082019050919050565b6000602082019050818103600083015261377081613734565b9050919050565b7f4e487b7100000000000000000000000000000000000000000000000000000000600052603260045260246000fd5b7f456c656374696f6e206973206163746976650000000000000000000000000000600082015250565b60006137dc601283613463565b91506137e7826137a6565b602082019050919050565b6000602082019050818103600083015261380b816137cf565b9050919050565b7f596f7520617265206e6f7420616e2061646d696e000000000000000000000000600082015250565b6000613848601483613463565b915061385382613812565b602082019050919050565b600060208201905081810360008301526138778161383b565b9050919050565b600081905092915050565b600061389482612ef3565b61389e818561387e565b93506138ae818560208601612f0f565b80840191505092915050565b60006138c68284613889565b915081905092915050565b7f4e487b7100000000000000000000000000000000000000000000000000000000600052602260045260246000fd5b6000600282049050600182168061391857607f821691505b60208210810361392b5761392a6138d1565b5b50919050565b60008190508160005260206000209050919050565b6000815461395381613900565b61395d818661387e565b94506001821660008114613978576001811461398d576139c0565b60ff19831686528115158202860193506139c0565b61399685613931565b60005b838110156139b857815481890152600182019150602081019050613999565b838801955050505b50505092915050565b60006139d58284613946565b915081905092915050565b7f436f6e74657374616e7420616c72656164792065786973747300000000000000600082015250565b6000613a16601983613463565b9150613a21826139e0565b602082019050919050565b60006020820190508181036000830152613a4581613a09565b9050919050565b7f4e487b7100000000000000000000000000000000000000000000000000000000600052601160045260246000fd5b6000613a8682612c6f565b9150613a9183612c6f565b9250828203905081811115613aa957613aa8613a4c565b5b92915050565b60006020601f8301049050919050565b600082821b905092915050565b600060088302613afc7fffffffffffffffffffffffffffffffffffffffffffffffffffffffffffffffff82613abf565b613b068683613abf565b95508019841693508086168417925050509392505050565b6000819050919050565b6000613b43613b3e613b3984612c6f565b613b1e565b612c6f565b9050919050565b6000819050919050565b613b5d83613b28565b613b71613b6982613b4a565b848454613acc565b825550505050565b600090565b613b86613b79565b613b91818484613b54565b505050565b5b81811015613bb557613baa600082613b7e565b600181019050613b97565b5050565b601f821115613bfa57613bcb81613931565b613bd484613aaf565b81016020851015613be3578190505b613bf7613bef85613aaf565b830182613b96565b50505b505050565b600082821c905092915050565b6000613c1d60001984600802613bff565b1980831691505092915050565b6000613c368383613c0c565b9150826002028217905092915050565b613c4f82612ef3565b67ffffffffffffffff811115613c6857613c67612cc0565b5b613c728254613900565b613c7d828285613bb9565b600060209050601f831160018114613cb05760008415613c9e578287015190505b613ca88582613c2a565b865550613d10565b601f198416613cbe86613931565b60005b82811015613ce657848901518255600182019150602085019450602081019050613cc1565b86831015613d035784890151613cff601f891682613c0c565b8355505b6001600288020188555050505b505050505050565b600081549050613d2781613900565b9050919050565b818103613d3c575050613e14565b613d4582613d18565b67ffffffffffffffff811115613d5e57613d5d612cc0565b5b613d688254613900565b613d73828285613bb9565b6000601f831160018114613da25760008415613d90578287015490505b613d9a8582613c2a565b865550613e0d565b601f198416613db087613931565b9650613dbb86613931565b60005b82811015613de357848901548255600182019150600185019450602081019050613dbe565b86831015613e005784890154613dfc601f891682613c0c565b8355505b6001600288020188555050505b5050505050505b565b60008154613e2381613900565b613e2d8186613463565b94506001821660008114613e485760018114613e5e57613e91565b60ff198316865281151560200286019350613e91565b613e6785613931565b60005b83811015613e8957815481890152600182019150602081019050613e6a565b808801955050505b50505092915050565b6000608082019050613eaf60008301876134ad565b8181036020830152613ec18186613e16565b90508181036040830152613ed58185613e16565b90508181036060830152613ee98184613e16565b905095945050505050565b7f456c656374696f6e206973207374696c6c206163746976650000000000000000600082015250565b6000613f2a601883613463565b9150613f3582613ef4565b602082019050919050565b60006020820190508181036000830152613f5981613f1d565b9050919050565b7f456c656374696f6e206973206e6f742061637469766500000000000000000000600082015250565b6000613f96601683613463565b9150613fa182613f60565b602082019050919050565b60006020820190508181036000830152613fc581613f89565b9050919050565b6000602082019050613fe160008301846134ad565b92915050565b7f456c656374696f6e2068617320656e6465640000000000000000000000000000600082015250565b600061401d601283613463565b915061402882613fe7565b602082019050919050565b6000602082019050818103600083015261404c81614010565b9050919050565b7f566f74657220616c726561647920726567697374657265640000000000000000600082015250565b6000614089601883613463565b915061409482614053565b602082019050919050565b600060208201905081810360008301526140b88161407c565b9050919050565b60006140ca82612c6f565b91506140d583612c6f565b92508282019050808211156140ed576140ec613a4c565b5b92915050565b7f456c656374696f6e20486164206e6f20636f6e74657374616e74730000000000600082015250565b6000614129601b83613463565b9150614134826140f3565b602082019050919050565b600060208201905081810360008301526141588161411c565b9050919050565b7f596f7520617265206e6f7420617574686f72697a656420746f20766f74650000600082015250565b6000614195601e83613463565b91506141a08261415f565b602082019050919050565b600060208201905081810360008301526141c481614188565b9050919050565b7f596f75206861766520616c726561647920766f74656400000000000000000000600082015250565b6000614201601683613463565b915061420c826141cb565b602082019050919050565b60006020820190508181036000830152614230816141f4565b9050919050565b7f496e76616c696420636f6e74657374616e7420696e6465780000000000000000600082015250565b600061426d601883613463565b915061427882614237565b602082019050919050565b6000602082019050818103600083015261429c81614260565b9050919050565b50565b60006142b360008361387e565b91506142be826142a3565b600082019050919050565b60006142d4826142a6565b9150819050919050565b7f596f752061726520616c72656164792072656769737465726564000000000000600082015250565b6000614314601a83613463565b915061431f826142de565b602082019050919050565b6000602082019050818103600083015261434381614307565b9050919050565b7f496e76616c696420416464726573730000000000000000000000000000000000600082015250565b6000614380600f83613463565b915061438b8261434a565b602082019050919050565b600060208201905081810360008301526143af81614373565b9050919050565b7f4e756d626572206f662041646d696e206c696d69742072656163686564000000600082015250565b60006143ec601d83613463565b91506143f7826143b6565b602082019050919050565b6000602082019050818103600083015261441b816143df565b905091905056fea26469706673582212208b38329c616be51492269ca9743eb4ed00089c0375ce181e2a489a6cf02a92bc64736f6c634300081c0033",
  "linkReferences": {},
  "deployedLinkReferences": {}
}