{
  "contracts/AreaCalculator.sol": {
    "AreaCalculator": {
      "abi": [
        {
          "inputs": [
            {
              "internalType": "uint256",
              "name": "length",
              "type": "uint256"
            },
            {
              "internalType": "uint256",
              "name": "breadth",
              "type": "uint256"
            }
          ],
          "name": "areaOfARectangle",
          "outputs": [
            {
              "internalType": "uint256",
              "name": "_areaOfRectangle",
              "type": "uint256"
            }
          ],
          "stateMutability": "pure",
          "type": "function"
        },
        {
          "inputs": [
            {
              "internalType": "uint256",
              "name": "length",
              "type": "uint256"
            }
          ],
          "name": "areaOfASquare",
          "outputs": [
            {
              "internalType": "uint256",
              "name": "_areaOfSquare",
              "type": "uint256"
            }
          ],
          "stateMutability": "pure",
          "type": "function"
        },
        {
          "inputs": [
            {
              "internalType": "uint256",
              "name": "base",
              "type": "uint256"
            },
            {
              "internalType": "uint256",
              "name": "height",
              "type": "uint256"
            }
          ],
          "name": "areaOfATriangle",
          "outputs": [
            {
              "internalType": "uint256",
              "name": "_areaOfTriangle",
              "type": "uint256"
            }
          ],
          "stateMutability": "pure",
          "type": "function"
        }
      ],
      "evm": {
        "bytecode": {
          "linkReferences": {},
          "object": "6080604052348015600f57600080fd5b506104888061001f6000396000f3fe608060405234801561001057600080fd5b50600436106100415760003560e01c80630693a02b146100465780637fab3fc814610076578063d885ba45146100a6575b600080fd5b610060600480360381019061005b919061015f565b6100d6565b60405161006d91906101ae565b60405180910390f35b610090600480360381019061008b91906101c9565b6100ec565b60405161009d91906101ae565b60405180910390f35b6100c060048036038101906100bb919061015f565b610102565b6040516100cd91906101ae565b60405180910390f35b600081836100e49190610225565b905092915050565b60006002826100fb91906103a7565b9050919050565b6000600282846101129190610225565b61011c9190610421565b905092915050565b600080fd5b6000819050919050565b61013c81610129565b811461014757600080fd5b50565b60008135905061015981610133565b92915050565b6000806040838503121561017657610175610124565b5b60006101848582860161014a565b92505060206101958582860161014a565b9150509250929050565b6101a881610129565b82525050565b60006020820190506101c3600083018461019f565b92915050565b6000602082840312156101df576101de610124565b5b60006101ed8482850161014a565b91505092915050565b7f4e487b7100000000000000000000000000000000000000000000000000000000600052601160045260246000fd5b600061023082610129565b915061023b83610129565b925082820261024981610129565b915082820484148315176102605761025f6101f6565b5b5092915050565b60008160011c9050919050565b6000808291508390505b60018511156102be5780860481111561029a576102996101f6565b5b60018516156102a95780820291505b80810290506102b785610267565b945061027e565b94509492505050565b6000826102d75760019050610393565b816102e55760009050610393565b81600181146102fb576002811461030557610334565b6001915050610393565b60ff841115610317576103166101f6565b5b8360020a91508482111561032e5761032d6101f6565b5b50610393565b5060208310610133831016604e8410600b84101617156103695782820a905083811115610364576103636101f6565b5b610393565b6103768484846001610274565b9250905081840481111561038d5761038c6101f6565b5b81810290505b9392505050565b600060ff82169050919050565b60006103b282610129565b91506103bd8361039a565b92506103ea7fffffffffffffffffffffffffffffffffffffffffffffffffffffffffffffffff84846102c7565b905092915050565b7f4e487b7100000000000000000000000000000000000000000000000000000000600052601260045260246000fd5b600061042c82610129565b915061043783610129565b925082610447576104466103f2565b5b82820490509291505056fea26469706673582212209c221dde33b6b843c9841c535e95e5a0b6ecf523fb8d33606f1e4e278f3c5cac64736f6c634300081c0033",
          "opcodes": "PUSH1 0x80 PUSH1 0x40 MSTORE CALLVALUE DUP1 ISZERO PUSH1 0xF JUMPI PUSH1 0x0 DUP1 REVERT JUMPDEST POP PUSH2 0x488 DUP1 PUSH2 0x1F PUSH1 0x0 CODECOPY PUSH1 0x0 RETURN INVALID PUSH1 0x80 PUSH1 0x40 MSTORE CALLVALUE DUP1 ISZERO PUSH2 0x10 JUMPI PUSH1 0x0 DUP1 REVERT JUMPDEST POP PUSH1 0x4 CALLDATASIZE LT PUSH2 0x41 JUMPI PUSH1 0x0 CALLDATALOAD PUSH1 0xE0 SHR DUP1 PUSH4 0x693A02B EQ PUSH2 0x46 JUMPI DUP1 PUSH4 0x7FAB3FC8 EQ PUSH2 0x76 JUMPI DUP1 PUSH4 0xD885BA45 EQ PUSH2 0xA6 JUMPI JUMPDEST PUSH1 0x0 DUP1 REVERT JUMPDEST PUSH2 0x60 PUSH1 0x4 DUP1 CALLDATASIZE SUB DUP2 ADD SWAP1 PUSH2 0x5B SWAP2 SWAP1 PUSH2 0x15F JUMP JUMPDEST PUSH2 0xD6 JUMP JUMPDEST PUSH1 0x40 MLOAD PUSH2 0x6D SWAP2 SWAP1 PUSH2 0x1AE JUMP JUMPDEST PUSH1 0x40 MLOAD DUP1 SWAP2 SUB SWAP1 RETURN JUMPDEST PUSH2 0x90 PUSH1 0x4 DUP1 CALLDATASIZE SUB DUP2 ADD SWAP1 PUSH2 0x8B SWAP2 SWAP1 PUSH2 0x1C9 JUMP JUMPDEST PUSH2 0xEC JUMP JUMPDEST PUSH1 0x40 MLOAD PUSH2 0x9D SWAP2 SWAP1 PUSH2 0x1AE JUMP JUMPDEST PUSH1 0x40 MLOAD DUP1 SWAP2 SUB SWAP1 RETURN JUMPDEST PUSH2 0xC0 PUSH1 0x4 DUP1 CALLDATASIZE SUB DUP2 ADD SWAP1 PUSH2 0xBB SWAP2 SWAP1 PUSH2 0x15F JUMP JUMPDEST PUSH2 0x102 JUMP JUMPDEST PUSH1 0x40 MLOAD PUSH2 0xCD SWAP2 SWAP1 PUSH2 0x1AE JUMP JUMPDEST PUSH1 0x40 MLOAD DUP1 SWAP2 SUB SWAP1 RETURN JUMPDEST PUSH1 0x0 DUP2 DUP4 PUSH2 0xE4 SWAP2 SWAP1 PUSH2 0x225 JUMP JUMPDEST SWAP1 POP SWAP3 SWAP2 POP POP JUMP JUMPDEST PUSH1 0x0 PUSH1 0x2 DUP3 PUSH2 0xFB SWAP2 SWAP1 PUSH2 0x3A7 JUMP JUMPDEST SWAP1 POP SWAP2 SWAP1 POP JUMP JUMPDEST PUSH1 0x0 PUSH1 0x2 DUP3 DUP5 PUSH2 0x112 SWAP2 SWAP1 PUSH2 0x225 JUMP JUMPDEST PUSH2 0x11C SWAP2 SWAP1 PUSH2 0x421 JUMP JUMPDEST SWAP1 POP SWAP3 SWAP2 POP POP JUMP JUMPDEST PUSH1 0x0 DUP1 REVERT JUMPDEST PUSH1 0x0 DUP2 SWAP1 POP SWAP2 SWAP1 POP JUMP JUMPDEST PUSH2 0x13C DUP2 PUSH2 0x129 JUMP JUMPDEST DUP2 EQ PUSH2 0x147 JUMPI PUSH1 0x0 DUP1 REVERT JUMPDEST POP JUMP JUMPDEST PUSH1 0x0 DUP2 CALLDATALOAD SWAP1 POP PUSH2 0x159 DUP2 PUSH2 0x133 JUMP JUMPDEST SWAP3 SWAP2 POP POP JUMP JUMPDEST PUSH1 0x0 DUP1 PUSH1 0x40 DUP4 DUP6 SUB SLT ISZERO PUSH2 0x176 JUMPI PUSH2 0x175 PUSH2 0x124 JUMP JUMPDEST JUMPDEST PUSH1 0x0 PUSH2 0x184 DUP6 DUP3 DUP7 ADD PUSH2 0x14A JUMP JUMPDEST SWAP3 POP POP PUSH1 0x20 PUSH2 0x195 DUP6 DUP3 DUP7 ADD PUSH2 0x14A JUMP JUMPDEST SWAP2 POP POP SWAP3 POP SWAP3 SWAP1 POP JUMP JUMPDEST PUSH2 0x1A8 DUP2 PUSH2 0x129 JUMP JUMPDEST DUP3 MSTORE POP POP JUMP JUMPDEST PUSH1 0x0 PUSH1 0x20 DUP3 ADD SWAP1 POP PUSH2 0x1C3 PUSH1 0x0 DUP4 ADD DUP5 PUSH2 0x19F JUMP JUMPDEST SWAP3 SWAP2 POP POP JUMP JUMPDEST PUSH1 0x0 PUSH1 0x20 DUP3 DUP5 SUB SLT ISZERO PUSH2 0x1DF JUMPI PUSH2 0x1DE PUSH2 0x124 JUMP JUMPDEST JUMPDEST PUSH1 0x0 PUSH2 0x1ED DUP5 DUP3 DUP6 ADD PUSH2 0x14A JUMP JUMPDEST SWAP2 POP POP SWAP3 SWAP2 POP POP JUMP JUMPDEST PUSH32 0x4E487B7100000000000000000000000000000000000000000000000000000000 PUSH1 0x0 MSTORE PUSH1 0x11 PUSH1 0x4 MSTORE PUSH1 0x24 PUSH1 0x0 REVERT JUMPDEST PUSH1 0x0 PUSH2 0x230 DUP3 PUSH2 0x129 JUMP JUMPDEST SWAP2 POP PUSH2 0x23B DUP4 PUSH2 0x129 JUMP JUMPDEST SWAP3 POP DUP3 DUP3 MUL PUSH2 0x249 DUP2 PUSH2 0x129 JUMP JUMPDEST SWAP2 POP DUP3 DUP3 DIV DUP5 EQ DUP4 ISZERO OR PUSH2 0x260 JUMPI PUSH2 0x25F PUSH2 0x1F6 JUMP JUMPDEST JUMPDEST POP SWAP3 SWAP2 POP POP JUMP JUMPDEST PUSH1 0x0 DUP2 PUSH1 0x1 SHR SWAP1 POP SWAP2 SWAP1 POP JUMP JUMPDEST PUSH1 0x0 DUP1 DUP3 SWAP2 POP DUP4 SWAP1 POP JUMPDEST PUSH1 0x1 DUP6 GT ISZERO PUSH2 0x2BE JUMPI DUP1 DUP7 DIV DUP2 GT ISZERO PUSH2 0x29A JUMPI PUSH2 0x299 PUSH2 0x1F6 JUMP JUMPDEST JUMPDEST PUSH1 0x1 DUP6 AND ISZERO PUSH2 0x2A9 JUMPI DUP1 DUP3 MUL SWAP2 POP JUMPDEST DUP1 DUP2 MUL SWAP1 POP PUSH2 0x2B7 DUP6 PUSH2 0x267 JUMP JUMPDEST SWAP5 POP PUSH2 0x27E JUMP JUMPDEST SWAP5 POP SWAP5 SWAP3 POP POP POP JUMP JUMPDEST PUSH1 0x0 DUP3 PUSH2 0x2D7 JUMPI PUSH1 0x1 SWAP1 POP PUSH2 0x393 JUMP JUMPDEST DUP2 PUSH2 0x2E5 JUMPI PUSH1 0x0 SWAP1 POP PUSH2 0x393 JUMP JUMPDEST DUP2 PUSH1 0x1 DUP2 EQ PUSH2 0x2FB JUMPI PUSH1 0x2 DUP2 EQ PUSH2 0x305 JUMPI PUSH2 0x334 JUMP JUMPDEST PUSH1 0x1 SWAP2 POP POP PUSH2 0x393 JUMP JUMPDEST PUSH1 0xFF DUP5 GT ISZERO PUSH2 0x317 JUMPI PUSH2 0x316 PUSH2 0x1F6 JUMP JUMPDEST JUMPDEST DUP4 PUSH1 0x2 EXP SWAP2 POP DUP5 DUP3 GT ISZERO PUSH2 0x32E JUMPI PUSH2 0x32D PUSH2 0x1F6 JUMP JUMPDEST JUMPDEST POP PUSH2 0x393 JUMP JUMPDEST POP PUSH1 0x20 DUP4 LT PUSH2 0x133 DUP4 LT AND PUSH1 0x4E DUP5 LT PUSH1 0xB DUP5 LT AND OR ISZERO PUSH2 0x369 JUMPI DUP3 DUP3 EXP SWAP1 POP DUP4 DUP2 GT ISZERO PUSH2 0x364 JUMPI PUSH2 0x363 PUSH2 0x1F6 JUMP JUMPDEST JUMPDEST PUSH2 0x393 JUMP JUMPDEST PUSH2 0x376 DUP5 DUP5 DUP5 PUSH1 0x1 PUSH2 0x274 JUMP JUMPDEST SWAP3 POP SWAP1 POP DUP2 DUP5 DIV DUP2 GT ISZERO PUSH2 0x38D JUMPI PUSH2 0x38C PUSH2 0x1F6 JUMP JUMPDEST JUMPDEST DUP2 DUP2 MUL SWAP1 POP JUMPDEST SWAP4 SWAP3 POP POP POP JUMP JUMPDEST PUSH1 0x0 PUSH1 0xFF DUP3 AND SWAP1 POP SWAP2 SWAP1 POP JUMP JUMPDEST PUSH1 0x0 PUSH2 0x3B2 DUP3 PUSH2 0x129 JUMP JUMPDEST SWAP2 POP PUSH2 0x3BD DUP4 PUSH2 0x39A JUMP JUMPDEST SWAP3 POP PUSH2 0x3EA PUSH32 0xFFFFFFFFFFFFFFFFFFFFFFFFFFFFFFFFFFFFFFFFFFFFFFFFFFFFFFFFFFFFFFFF DUP5 DUP5 PUSH2 0x2C7 JUMP JUMPDEST SWAP1 POP SWAP3 SWAP2 POP POP JUMP JUMPDEST PUSH32 0x4E487B7100000000000000000000000000000000000000000000000000000000 PUSH1 0x0 MSTORE PUSH1 0x12 PUSH1 0x4 MSTORE PUSH1 0x24 PUSH1 0x0 REVERT JUMPDEST PUSH1 0x0 PUSH2 0x42C DUP3 PUSH2 0x129 JUMP JUMPDEST SWAP2 POP PUSH2 0x437 DUP4 PUSH2 0x129 JUMP JUMPDEST SWAP3 POP DUP3 PUSH2 0x447 JUMPI PUSH2 0x446 PUSH2 0x3F2 JUMP JUMPDEST JUMPDEST DUP3 DUP3 DIV SWAP1 POP SWAP3 SWAP2 POP POP JUMP INVALID LOG2 PUSH5 0x6970667358 0x22 SLT KECCAK256 SWAP13 0x22 SAR 0xDE CALLER 0xB6 0xB8 NUMBER 0xC9 DUP5 SHR MSTORE8 MCOPY SWAP6 0xE5 LOG0 0xB6 0xEC CREATE2 0x23 0xFB DUP14 CALLER PUSH1 0x6F 0x1E 0x4E 0x27 DUP16 EXTCODECOPY TLOAD 0xAC PUSH5 0x736F6C6343 STOP ADDMOD SHR STOP CALLER "
        },
        "methodIdentifiers": {
          "areaOfARectangle(uint256,uint256)": "0693a02b",
          "areaOfASquare(uint256)": "7fab3fc8",
          "areaOfATriangle(uint256,uint256)": "d885ba45"
        }
      }
    }
  }
}