{
  "_format": "hh-sol-artifact-1",
  "contractName": "GrantContract",
  "sourceName": "contracts/GrantContract.sol",
  "abi": [
    {
      "inputs": [],
      "stateMutability": "nonpayable",
      "type": "constructor"
    },
    {
      "anonymous": false,
      "inputs": [
        {
          "indexed": true,
          "internalType": "address",
          "name": "beneficiary",
          "type": "address"
        },
        {
          "indexed": false,
          "internalType": "uint256",
          "name": "amount",
          "type": "uint256"
        },
        {
          "indexed": false,
          "internalType": "uint256",
          "name": "releaseTime",
          "type": "uint256"
        }
      ],
      "name": "GrantCreated",
      "type": "event"
    },
    {
      "anonymous": false,
      "inputs": [
        {
          "indexed": true,
          "internalType": "address",
          "name": "beneficiary",
          "type": "address"
        },
        {
          "indexed": false,
          "internalType": "uint256",
          "name": "amount",
          "type": "uint256"
        }
      ],
      "name": "GrantReleased",
      "type": "event"
    },
    {
      "anonymous": false,
      "inputs": [
        {
          "indexed": true,
          "internalType": "address",
          "name": "beneficiary",
          "type": "address"
        },
        {
          "indexed": false,
          "internalType": "uint256",
          "name": "amount",
          "type": "uint256"
        }
      ],
      "name": "GrantReverted",
      "type": "event"
    },
    {
      "inputs": [
        {
          "internalType": "address",
          "name": "_beneficiary",
          "type": "address"
        },
        {
          "internalType": "uint256",
          "name": "_releaseTime",
          "type": "uint256"
        }
      ],
      "name": "createGrant",
      "outputs": [],
      "stateMutability": "payable",
      "type": "function"
    },
    {
      "inputs": [
        {
          "internalType": "address",
          "name": "_beneficiary",
          "type": "address"
        }
      ],
      "name": "getGrantInfo",
      "outputs": [
        {
          "internalType": "address",
          "name": "",
          "type": "address"
        },
        {
          "internalType": "uint256",
          "name": "",
          "type": "uint256"
        },
        {
          "internalType": "uint256",
          "name": "",
          "type": "uint256"
        },
        {
          "internalType": "bool",
          "name": "",
          "type": "bool"
        }
      ],
      "stateMutability": "view",
      "type": "function"
    },
    {
      "inputs": [
        {
          "internalType": "address",
          "name": "_beneficiary",
          "type": "address"
        }
      ],
      "name": "getTimeLeft",
      "outputs": [
        {
          "internalType": "uint256",
          "name": "",
          "type": "uint256"
        }
      ],
      "stateMutability": "view",
      "type": "function"
    },
    {
      "inputs": [],
      "name": "getTotalBalance",
      "outputs": [
        {
          "internalType": "uint256",
          "name": "",
          "type": "uint256"
        }
      ],
      "stateMutability": "view",
      "type": "function"
    },
    {
      "inputs": [
        {
          "internalType": "address",
          "name": "",
          "type": "address"
        }
      ],
      "name": "grants",
      "outputs": [
        {
          "internalType": "address",
          "name": "beneficiary",
          "type": "address"
        },
        {
          "internalType": "uint256",
          "name": "amount",
          "type": "uint256"
        },
        {
          "internalType": "uint256",
          "name": "releaseTime",
          "type": "uint256"
        },
        {
          "internalType": "bool",
          "name": "isActive",
          "type": "bool"
        }
      ],
      "stateMutability": "view",
      "type": "function"
    },
    {
      "inputs": [],
      "name": "owner",
      "outputs": [
        {
          "internalType": "address",
          "name": "",
          "type": "address"
        }
      ],
      "stateMutability": "view",
      "type": "function"
    },
    {
      "inputs": [],
      "name": "releaseGrant",
      "outputs": [],
      "stateMutability": "nonpayable",
      "type": "function"
    },
    {
      "inputs": [
        {
          "internalType": "address",
          "name": "_beneficiary",
          "type": "address"
        }
      ],
      "name": "revertGrant",
      "outputs": [],
      "stateMutability": "nonpayable",
      "type": "function"
    },
    {
      "inputs": [],
      "name": "totalGrants",
      "outputs": [
        {
          "internalType": "uint256",
          "name": "",
          "type": "uint256"
        }
      ],
      "stateMutability": "view",
      "type": "function"
    }
  ],
  "bytecode": "0x6080604052348015600f57600080fd5b50336000806101000a81548173ffffffffffffffffffffffffffffffffffffffff021916908373ffffffffffffffffffffffffffffffffffffffff16021790555061138d8061005f6000396000f3fe6080604052600436106100865760003560e01c80638da5cb5b116100595780638da5cb5b14610138578063959bfafb14610163578063b869cea31461017a578063d9211be8146101ba578063fa240b8a146101e557610086565b8063111eb8b11461008b57806312b58349146100c85780633dce2b46146100f35780636cb71df91461010f575b600080fd5b34801561009757600080fd5b506100b260048036038101906100ad9190610ceb565b610225565b6040516100bf9190610d31565b60405180910390f35b3480156100d457600080fd5b506100dd61036b565b6040516100ea9190610d31565b60405180910390f35b61010d60048036038101906101089190610d78565b610373565b005b34801561011b57600080fd5b5061013660048036038101906101319190610ceb565b6106b2565b005b34801561014457600080fd5b5061014d6108fa565b60405161015a9190610dc7565b60405180910390f35b34801561016f57600080fd5b5061017861091e565b005b34801561018657600080fd5b506101a1600480360381019061019c9190610ceb565b610b28565b6040516101b19493929190610dfd565b60405180910390f35b3480156101c657600080fd5b506101cf610b85565b6040516101dc9190610d31565b60405180910390f35b3480156101f157600080fd5b5061020c60048036038101906102079190610ceb565b610b8b565b60405161021c9493929190610dfd565b60405180910390f35b600080600260008473ffffffffffffffffffffffffffffffffffffffff1673ffffffffffffffffffffffffffffffffffffffff1681526020019081526020016000206040518060800160405290816000820160009054906101000a900473ffffffffffffffffffffffffffffffffffffffff1673ffffffffffffffffffffffffffffffffffffffff1673ffffffffffffffffffffffffffffffffffffffff16815260200160018201548152602001600282015481526020016003820160009054906101000a900460ff1615151515815250509050806060015161033d576040517f08c379a000000000000000000000000000000000000000000000000000000000815260040161033490610e9f565b60405180910390fd5b80604001514210610352576000915050610366565b4281604001516103629190610eee565b9150505b919050565b600047905090565b60008054906101000a900473ffffffffffffffffffffffffffffffffffffffff1673ffffffffffffffffffffffffffffffffffffffff163373ffffffffffffffffffffffffffffffffffffffff1614610401576040517f08c379a00000000000000000000000000000000000000000000000000000000081526004016103f890610f94565b60405180910390fd5b600073ffffffffffffffffffffffffffffffffffffffff168273ffffffffffffffffffffffffffffffffffffffff1603610470576040517f08c379a000000000000000000000000000000000000000000000000000000000815260040161046790611000565b60405180910390fd5b600034116104b3576040517f08c379a00000000000000000000000000000000000000000000000000000000081526004016104aa90611092565b60405180910390fd5b6000600260008473ffffffffffffffffffffffffffffffffffffffff1673ffffffffffffffffffffffffffffffffffffffff1681526020019081526020016000206001015414610538576040517f08c379a000000000000000000000000000000000000000000000000000000000815260040161052f90611124565b60405180910390fd5b60405180608001604052808373ffffffffffffffffffffffffffffffffffffffff16815260200134815260200182426105719190611144565b815260200160011515815250600260008473ffffffffffffffffffffffffffffffffffffffff1673ffffffffffffffffffffffffffffffffffffffff16815260200190815260200160002060008201518160000160006101000a81548173ffffffffffffffffffffffffffffffffffffffff021916908373ffffffffffffffffffffffffffffffffffffffff160217905550602082015181600101556040820151816002015560608201518160030160006101000a81548160ff021916908315150217905550905050346001600082825461064c9190611144565b925050819055508173ffffffffffffffffffffffffffffffffffffffff167fd15e75de59b97a644f8b5ec4577d26fe945f96b26b74d268e975badd4c9b6ca93483426106989190611144565b6040516106a6929190611178565b60405180910390a25050565b60008054906101000a900473ffffffffffffffffffffffffffffffffffffffff1673ffffffffffffffffffffffffffffffffffffffff163373ffffffffffffffffffffffffffffffffffffffff1614610740576040517f08c379a000000000000000000000000000000000000000000000000000000000815260040161073790610f94565b60405180910390fd5b6000600260008373ffffffffffffffffffffffffffffffffffffffff1673ffffffffffffffffffffffffffffffffffffffff16815260200190815260200160002090508060030160009054906101000a900460ff166107d4576040517f08c379a00000000000000000000000000000000000000000000000000000000081526004016107cb90610e9f565b60405180910390fd5b8060020154421061081a576040517f08c379a000000000000000000000000000000000000000000000000000000000815260040161081190611213565b60405180910390fd5b60008160010154905060008260030160006101000a81548160ff02191690831515021790555060008054906101000a900473ffffffffffffffffffffffffffffffffffffffff1673ffffffffffffffffffffffffffffffffffffffff166108fc829081150290604051600060405180830381858888f193505050501580156108a6573d6000803e3d6000fd5b508273ffffffffffffffffffffffffffffffffffffffff167fd8026ee69c7e854f8623f3de92662e61fb3aa1969b9faade53685153ba2a52d3826040516108ed9190610d31565b60405180910390a2505050565b60008054906101000a900473ffffffffffffffffffffffffffffffffffffffff1681565b338073ffffffffffffffffffffffffffffffffffffffff163373ffffffffffffffffffffffffffffffffffffffff161461098d576040517f08c379a0000000000000000000000000000000000000000000000000000000008152600401610984906112a5565b60405180910390fd5b6000600260003373ffffffffffffffffffffffffffffffffffffffff1673ffffffffffffffffffffffffffffffffffffffff16815260200190815260200160002090508060030160009054906101000a900460ff16610a21576040517f08c379a0000000000000000000000000000000000000000000000000000000008152600401610a1890610e9f565b60405180910390fd5b8060020154421015610a68576040517f08c379a0000000000000000000000000000000000000000000000000000000008152600401610a5f90611337565b60405180910390fd5b60008160010154905060008260030160006101000a81548160ff0219169083151502179055503373ffffffffffffffffffffffffffffffffffffffff166108fc829081150290604051600060405180830381858888f19350505050158015610ad4573d6000803e3d6000fd5b503373ffffffffffffffffffffffffffffffffffffffff167f0d35302f827a91d56c49cdeaf0312fce55b9b7158edbcf3d8fbad456e341c77082604051610b1b9190610d31565b60405180910390a2505050565b60026020528060005260406000206000915090508060000160009054906101000a900473ffffffffffffffffffffffffffffffffffffffff16908060010154908060020154908060030160009054906101000a900460ff16905084565b60015481565b6000806000806000600260008773ffffffffffffffffffffffffffffffffffffffff1673ffffffffffffffffffffffffffffffffffffffff1681526020019081526020016000206040518060800160405290816000820160009054906101000a900473ffffffffffffffffffffffffffffffffffffffff1673ffffffffffffffffffffffffffffffffffffffff1673ffffffffffffffffffffffffffffffffffffffff16815260200160018201548152602001600282015481526020016003820160009054906101000a900460ff161515151581525050905080600001518160200151826040015183606001519450945094509450509193509193565b600080fd5b600073ffffffffffffffffffffffffffffffffffffffff82169050919050565b6000610cb882610c8d565b9050919050565b610cc881610cad565b8114610cd357600080fd5b50565b600081359050610ce581610cbf565b92915050565b600060208284031215610d0157610d00610c88565b5b6000610d0f84828501610cd6565b91505092915050565b6000819050919050565b610d2b81610d18565b82525050565b6000602082019050610d466000830184610d22565b92915050565b610d5581610d18565b8114610d6057600080fd5b50565b600081359050610d7281610d4c565b92915050565b60008060408385031215610d8f57610d8e610c88565b5b6000610d9d85828601610cd6565b9250506020610dae85828601610d63565b9150509250929050565b610dc181610cad565b82525050565b6000602082019050610ddc6000830184610db8565b92915050565b60008115159050919050565b610df781610de2565b82525050565b6000608082019050610e126000830187610db8565b610e1f6020830186610d22565b610e2c6040830185610d22565b610e396060830184610dee565b95945050505050565b600082825260208201905092915050565b7f4772616e74206973206e6f742061637469766500000000000000000000000000600082015250565b6000610e89601383610e42565b9150610e9482610e53565b602082019050919050565b60006020820190508181036000830152610eb881610e7c565b9050919050565b7f4e487b7100000000000000000000000000000000000000000000000000000000600052601160045260246000fd5b6000610ef982610d18565b9150610f0483610d18565b9250828203905081811115610f1c57610f1b610ebf565b5b92915050565b7f4f6e6c7920746865206f776e65722063616e2063616c6c20746869732066756e60008201527f6374696f6e000000000000000000000000000000000000000000000000000000602082015250565b6000610f7e602583610e42565b9150610f8982610f22565b604082019050919050565b60006020820190508181036000830152610fad81610f71565b9050919050565b7f496e76616c69642062656e656669636961727920616464726573730000000000600082015250565b6000610fea601b83610e42565b9150610ff582610fb4565b602082019050919050565b6000602082019050818103600083015261101981610fdd565b9050919050565b7f4772616e7420616d6f756e74206d75737420626520677265617465722074686160008201527f6e20300000000000000000000000000000000000000000000000000000000000602082015250565b600061107c602383610e42565b915061108782611020565b604082019050919050565b600060208201905081810360008301526110ab8161106f565b9050919050565b7f4772616e7420616c72656164792065786973747320666f72207468697320626560008201527f6e65666963696172790000000000000000000000000000000000000000000000602082015250565b600061110e602983610e42565b9150611119826110b2565b604082019050919050565b6000602082019050818103600083015261113d81611101565b9050919050565b600061114f82610d18565b915061115a83610d18565b925082820190508082111561117257611171610ebf565b5b92915050565b600060408201905061118d6000830185610d22565b61119a6020830184610d22565b9392505050565b7f4772616e742072656c656173652074696d652068617320616c7265616479206560008201527f6c61707365640000000000000000000000000000000000000000000000000000602082015250565b60006111fd602683610e42565b9150611208826111a1565b604082019050919050565b6000602082019050818103600083015261122c816111f0565b9050919050565b7f4f6e6c79207468652062656e65666963696172792063616e2063616c6c20746860008201527f69732066756e6374696f6e000000000000000000000000000000000000000000602082015250565b600061128f602b83610e42565b915061129a82611233565b604082019050919050565b600060208201905081810360008301526112be81611282565b9050919050565b7f4772616e742072656c656173652074696d6520686173206e6f7420656c61707360008201527f6564000000000000000000000000000000000000000000000000000000000000602082015250565b6000611321602283610e42565b915061132c826112c5565b604082019050919050565b6000602082019050818103600083015261135081611314565b905091905056fea26469706673582212208a75788da17291981dbce9c6ab0f7a7d9bd9f4b62857f45975c1c45041da4b0864736f6c634300081c0033",
  "linkReferences": {},
  "deployedLinkReferences": {}
}